:020000022000DC
:10600000402100207569020085CC02006169020010
:10601000616902006169020061690200000000001C
:10602000000000000000000000000000AD69020058
:106030006169020000000000AD6B020061690200AE
:10604000256C0200256C0200256C0200256C020004
:10605000256C0200256C0200256C0200256C0200F4
:10606000256C0200256C0200256C0200256C0200E4
:10607000256C0200256C0200256C0200256C0200D4
:10608000256C0200256C0200256C0200256C0200C4
:10609000256C0200256C0200256C0200256C0200B4
:1060A000256C0200256C0200256C0200256C0200A4
:1060B000256C0200256C0200256C0200256C020094
:1060C000256C0200256C0200256C0200256C020084
:1060D000256C0200256C0200256C0200256C020074
:1060E000256C0200256C0200256C0200256C020064
:1060F000256C0200256C0200256C0200256C020054
:1061000010F8012B11F8013B012A28BF9A42F7D061
:10611000D01A704738B5104C204609F0C4FA28B997
:1061200000214FF4004009F0D2FDF9E72269A5688B
:10613000136823F0080313602B684FF4C022032177
:106140002046984708216B692046984700214FF464
:10615000804009F0BCFDF5E78800030008B502485F
:1061600006F0C4FB002008BDE2040300014B1B68DD
:10617000184700BFD0000020014B1860704700BFD7
:10618000D000002030B5044685B00D461022002115
:10619000684609F0C7FE02238DF802302A46044BF8
:1061A00001932146684605F061FF05B030BD00BF90
:1061B0006D6102002DE9F047058B0446280717465C
:1061C0000CD501290CBF45F0100545F020052583AD
:1061D00087F31188BFF36F8FBDE8F087022905F0C0
:1061E000070540F09480204606F0A8FB052864D8F7
:1061F00001A353F820F000BFD16102000F63020039
:10620000BB6202007D62020097620200A962020086
:1062100001F007035A1F012A1FD8002221F00701AD
:10622000062BD4F8008089B2C4E9002209D1434684
:1062300003E0628B013262831B68002BF9D141F0CD
:1062400002012183204606F079FB4FF00009002867
:106250006DD041F02001218369E0042B0AD121F0A7
:10626000070189B22183204606F068FB10B141F096
:10627000200121834FF00008C14658E02369D3F87C
:106280000090238B23F0070343F0060323834FF092
:10629000000846464BE02369D3F80490238B23F093
:1062A000070343F00403F1E72369D3F80890238B35
:1062B00023F0070343F00503E8E74FF00008C14669
:1062C000E7E7012243F00803238387F31188BFF334
:1062D0006F8F002A3BD1B8F1000F4AD1B9F1000FFE
:1062E00002D02D492046C847EFF31187202383F3BE
:1062F0001288BFF36F8F238B23F008039BB2238395
:10630000D9063FD523F01002228303F00705666902
:10631000218B002EBFF67CAF0023D4F8008021F043
:106320000701C4E9003341F0010121839946238B21
:1063300003F0070AAA4502D0A268002AC1D1B8F129
:10634000000F02D1B9F1000FDAD00022BAE7A1683C
:106350000029C0D00D680029BDD04F683346524691
:106360002046B8471DB12B6829461D46F3E72B464A
:10637000FAE74146334652462046D8F8008006F0F8
:1063800009FBA8E79A067FF523AF23F020022283BA
:1063900003F0070527E700BFC1C90200014B0360F6
:1063A000002070477803030007B51B491B4806F01F
:1063B000F8FD70BB1A49194806F0F3FD48BB1949AE
:1063C000164806F0EEFD20BB1749144806F0E9FD1B
:1063D000F8B90146154A114807F0CAF8C8B902468B
:1063E00013490E48012307F09DF990B9012300934A
:1063F000014602230948EF2206F0DDFC48B90748B0
:1064000006F002FD28B9054803B05DF804EB06F07C
:106410002BBD03B05DF804FB480100209804002068
:10642000300100201801002000010020D4000020CD
:106430001D05030080B505460E461746984605F033
:1064400075FB034600F000FCDFF81890044649F89D
:106450000030424630463946A84754F8090000F05B
:106460008FFB00BF0800000008B50348034A002165
:10647000121A06F0FFFB08BD30050020C40C0020F6
:106480000748084A084908B5121A06F0F5FB0748FC
:10649000074A0849BDE80840121A06F0EDBB00BFE4
:1064A000000000202C0500203C0A03000000002012
:1064B000000000203C0A030038B505460C4699B19F
:1064C000D1E901230F48096806F010FAD4E9042342
:1064D000E1680D4806F00AFAE1690C4806F006FA90
:1064E000A1690B4806F002FA012D05D1EFF30581F1
:1064F0000848103906F0FAF921462846BDE8384028
:1065000004F04CB936050300660503009605030048
:10651000A6050300D505030030BFFFF7FDBF00BF90
:106520002DE9F0410B4EDFF8308006EB0807CC1B5D
:10653000054632460949204609F0E6FCA0194246C4
:106540000021083C09F0EEFCAC6707F10800BDE84B
:10655000F08100BF00000000080000006803030095
:106560002DE9F843324D804632488946174606F0F9
:10657000BDF9AB6ADE0622D52F4806F0B7F9112423
:10658000AB6A1D0703D52D4806F0B0F91224284D3B
:10659000AB6A980715D52A4806F0A8F96E6BAB6A66
:1065A000190642D52748314606F0A0F9B9F1000F87
:1065B00003D0AB6A23F08003AB62132403E0102402
:1065C000DEE76FF015061A4DAB6ADA0703D51E48F1
:1065D00006F08CF91424AB6A9B0603D51B4806F021
:1065E00085F91524124B9A6AD50602D49A6A900747
:1065F0000AD55B68190507D54146304600F076FAA2
:1066000010B180F309880224094B9A6A920642BFAE
:106610005A6A22F400525A629A6A42F0FF029A625F
:1066200000233B702046BDE8F8836FF01506C4E7F1
:1066300000ED00E0E9050300000603003406030056
:10664000480603006106030078060300980603006D
:1066500010B51D4C1D4806F049F9A36A990130D5C3
:106660001B4806F043F91E20A36ADA0103D5194836
:1066700006F03CF91F20144CA36A1B0303D51648EF
:1066800006F034F92120A36A590303D5134806F014
:106690002DF922200C4CA36A9A0303D5104806F06A
:1066A00025F92320A36ADB0303D50E4806F01EF963
:1066B0002420054A936A6FEA03436FEA1343936207
:1066C00010BD1D20D0E700BF00ED00E0C8060300AC
:1066D000E1060300F5060300100703002F0703007F
:1066E000550703007007030070B5244C0646244884
:1066F0000D4606F0FBF8A36AD90435D5214806F00B
:10670000F5F81720A36A1A0503D51F4806F0EEF81E
:1067100018201A4CA36A9B050FD51C4806F0E6F812
:10672000A16BA36A180407D5194806F0DFF81EB15B
:10673000A36A23F40043A3621920104CA36A5905ED
:1067400003D5144806F0D2F81A20A36ADA050DD54D
:10675000114806F0CBF81B20084A936A43F47F43A4
:10676000936200232B7070BD1620CBE7A36A9B04B5
:10677000F2D50A4806F0BAF81C20EDE700ED00E07B
:106780009C070300B307030034060300C50703009A
:10679000DF070300F5070300110803009806030054
:1067A0002DE9F0415D4B5F688AB00446C7F30806E7
:1067B000002585F31188BFF36F8F02F07F43B3F19B
:1067C0007F4F06D102F00C03082B13D1544806F07A
:1067D0008DF800252C464FF00008F31E8DF8078039
:1067E000092B00F28C80DFE803F00A80847C8A8A1F
:1067F0008A8A8A8810074CBF0C460125EBE7494876
:10680000464E06F073F88DF80780F36A9A0704D5B0
:10681000454806F06BF800232AE0F36A002B01DA02
:106820004248F6E7F36A5B00F5D5414806F05EF8AA
:106830007369A26943F480737361BFF34F8FBFF331
:106840006F8F32F8023C726922F480727261BFF37A
:106850004F8FBFF36F8F03F47F42B2F55F4F27D1A5
:10686000DBB2022B24D12168324806F03FF82368BE
:106870009DF80720CAB902AE04F1200720686168BC
:10688000324603C20834BC421646F7D1099A002D9D
:1068900041D0C2F3080121B96FEA52226FEA4222C5
:1068A000099202A91846FFF707FE0AB0BDE8F08179
:1068B0001A4B9A6AD2B232B10DF107020121204679
:1068C000FFF74EFE0FE09A6A12F47F4F05D00DF1EC
:1068D00007010120FFF708FF05E09B6AB3F5803F41
:1068E00099D3FFF7B5FE0346C2E70DF10702002179
:1068F000E5E70DF107010020ECE70F4889E70F4BB2
:106900000F49104817F4F87FA6F1100208BF194686
:1069100005F0ECFF7FE76FF30802C1E700ED00E050
:1069200058080300840803009C080300BE08030005
:10693000CD080300ED0803000A0903002A0803003C
:106940003F0803002F090300044B5A6942F010026C
:106950005A615A6922F008025A61704700ED00E05E
:10696000EFF30880EFF3098101B57246FFF718FFD6
:1069700001BD00BF0B4880F3088803F0C3FA202054
:1069800080F3118808484FF40461401880F30988A7
:10699000EFF314800221084380F31488BFF36F8F54
:1069A00000F06CF840210020801300201EF0040F3E
:1069B0000CBFEFF30880EFF30980816911F8021C26
:1069C0000229FFD001B5724606F058F901BD00BF9B
:1069D00040B2002807DB044A4109012300F01F00F0
:1069E000834042F82130704700E100E040B20028C7
:1069F0000CDB4309064900F01F00203301228240CE
:106A000041F82320BFF34F8FBFF36F8F704700BF54
:106A100000E100E0054B420900F01F0053F822207E
:106A2000012303FA00F01040704700BF00E100E0CE
:106A300040B20028A8BF00F1604001F10101B8BFD9
:106A4000064B4FEA4111ACBF00F5614000F00F006A
:106A5000C9B2B4BF195480F80013704714ED00E0B8
:106A6000044B054A23F07F039360BFF34F8FBFF3BE
:106A70006F8F70470060020000ED00E008B5FFF77F
:106A8000EFFF0B4AD2F8883023F47003C2F8883045
:106A9000EFF3148323F0040383F31488BFF36F8FA1
:106AA000FFF7E2FCFFF7ECFC00F0B0F803F048FF62
:106AB00000ED00E042F8203C009B42F81C3C0A49F3
:106AC000019B42F8183C029B42F8143C21F0010162
:106AD0004FF0807342F8043C42F8081C0023203A2F
:106AE0000265C367704700BF35640200094A034668
:106AF000906870B113F1160F806E05D0A0F14002BE
:106B0000934205D3834203D2814228BF00207047BD
:106B1000002070475C0C002008B515460B4A0C4B52
:106B20009060826F1A600E4600F0A0F82C4686F343
:106B300009880020034B98472046002100220023AB
:106B4000014C2047A1CC0200356402005C0C0020FF
:106B5000C0080020014B10221A61704700ED00E0D0
:106B6000054B5A699B689A421FBF044A536843F019
:106B700080535360704700BF5C0C002000ED00E0C4
:106B8000084B9B6883420BD1EFF3058343B1064B5F
:106B90005A6842F080525A605A6A22F400425A629D
:106BA00008F0DCBF5C0C002000ED00E014498A68AE
:106BB0004FF030001044EFF3098C80E8F01F2020E4
:106BC00080F31288BFF36F8F0E4F4FF000664A6953
:106BD0008A603E60906F0C4C2060D06F0023D367BA
:106BE00080F3118804B5104600F040F8BDE8044079
:106BF00002F1300090E8F01F8CF309887047000024
:106C00005C0C002004ED00E0C008002004480023D4
:106C10002021C2180133302B82F80013F9D17047BC
:106C200000E100E008B5EFF30583064A103B02EBF4
:106C3000C30152F8330049688847BDE80840FFF7B0
:106C40008FBF00BF140103000148006870470000B7
:106C5000C0080020024B034A0348012100F076B827
:106C6000000004200000002078030300836E054A22
:106C7000403B1360044B4021C2E90113104601213F
:106C800000F06EB8C408002000000B15084AC2F8D6
:106C900098000B6823F01F03034343F01003C2F86E
:106CA0009C308B6843F00103C2F8A030704700BFEE
:106CB00000ED00E02DE9F043DFF8608085B00E467E
:106CC0001F4604464FF00009B14523DA6068D8B189
:106CD0003FB1411E08421BD11F2819D92368194210
:106CE00016D12368019305F0EFFFA36803430393D4
:106CF000D8F89050C5F30725D0B2013DA84207D877
:106D000001A9FFF7C3FF421C09F101090C34DBE7BD
:106D10006FF01502104605B0BDE8F08300ED00E00D
:106D2000044B0522C3F89420BFF34F8FBFF36F8F3E
:106D3000704700BF00ED00E0BFF35F8F024B002201
:106D4000C3F89420704700BF00ED00E010B5034C7D
:106D500001232278FFF7AEFF207010BD940C0020B5
:106D600008B50B4A00231278FFF7A4FF10F1160FA5
:106D700007D0084A0021D2F89030C3F30723984285
:106D800000DB08BDC2F89800C2F8A0100130F2E79D
:106D9000940C002000ED00E02DE9F0435A4B5B4DD0
:106DA000D3F890302C68C3F307239C4285B000F2DF
:106DB000A780FFF7C1FF00200C2684421AD1544E51
:106DC000DFF8449134706846FFF7E8FA514C524DB1
:106DD00080460027B84514D133784B490020D1F8BC
:106DE0009020C2F307229342C0F28480FFF798FFFD
:106DF000002045E0696806FB0011FFF747FF0130FE
:106E0000DBE7009800EB07114FEA071CCB68234033
:106E1000B3F5000F4DD00AD8B3F5001F33D0B3F54A
:106E2000800F3BD0B3F5801F13D00137D2E7B3F109
:106E3000007F47D0B3F1805F4DD0B3F1807FF4D1B4
:106E400050F80C3088684A6805F03EFF40F08870C2
:106E500009E050F80C3088684A6805F035FF40F0CA
:106E6000885040F43020CDE901230390D9F89030C8
:106E70003078C3F30723013B984234D96FF01500F3
:106E800005B0BDE8F08350F80C3088684A6805F01A
:106E90001BFF40F0885040F40020E4E750F80C302D
:106EA00088684A6805F010FF40F0C06040F4003088
:106EB000D9E750F80C3088684A6805F005FF40F0C3
:106EC0008270D0E750F80C3088684A6805F0FCFE04
:106ED00040F48020C7E750F80C3088684A6805F015
:106EE000F3FE2843BFE701A9FFF7D0FE3378013353
:106EF00033709AE7C1F89830C1F8A00001336EE70B
:106F00004FF0FF30BCE700BF00ED00E0840303005A
:106F1000940C00200000F0FF0000021108B5024BA5
:106F20001B689847002008BDD0080020034B044A86
:106F30001860937843F0020393707047D0080020E4
:106F40006001002008B50649064821F00701C1F19B
:106F5000005202F5802205F086FC002008BD00BF2B
:106F6000FF340020D408002070B54169867A0B4DAB
:106F7000044659B1437ADB0706D4242303FB0653A6
:106F8000DB691B689B6898470023636124202146C6
:106F900000FB0650BDE8704008F013BD74040020EB
:106FA000024B242202FB0030704700BF7404002013
:106FB0002DE9F04385B005466846039190461C468E
:106FC00008F0DDFEDDE90067EFF31189202383F38C
:106FD0001288BFF36F8F6B8A002B41D02A8A9A42A6
:106FE00025D900220023284603F008FF0446F0B10B
:106FF00089F31188BFF36F8F039B002B41D032467A
:107000003B46684608F0E0FEA27A264B242101FBAD
:1070100002332046DB691B6803A91D68DDE90023F4
:10702000A847606170BB2046FFF79EFF24E0698A95
:107030004B1E6B8289F31188BFF36F8F2B7D2A8AD9
:107040002C6A1B3323F00303521A02FB0344154B33
:10705000154AEB1A9B105343A3722B7DE372CBE7C7
:1070600089F31188BFF36F8F23464246284603F009
:10707000C5FE04460028BFD10024204605B0BDE867
:10708000F0836361012300252381039B6382E27AFD
:107090006560294604F1180008F044FF6369258201
:1070A000E360EAE774040020398EE338F8B5124D46
:1070B0000024242600B9F8BD00F108024768BFF398
:1070C0005B8F52E8003F591E42E8001CBCF1000FE4
:1070D000F7D1BFF35B8FDBB2012BECD1837AC460B5
:1070E00006FB035344609B6913B198473846E1E7B8
:1070F000FFF73AFFFAE700BF74040020024B0122B9
:10710000C3F840250020704700E0014048B1054B1E
:10711000054A1B68B3FBF2F35843044B43F00103E9
:10712000184770477403002040420F0070030300AB
:1071300008B5054A054B136010463F23536002F023
:10714000BDFF002008BD00BFE0080020FFFF0F00CA
:107150002DE9F04190F8283003F01F03012B04467D
:107160000F4600F128062FD0022B18D08BB394F8CD
:107170002910204605F0BBFE024678B3304605F0E4
:10718000A0FF1D4D002834D113693BB33A46314668
:10719000204698470346FFF757FD2B5024E0818D8A
:1071A000C9B206F085FA05460028E0D0304605F061
:1071B00088FF024668688368CAB99B6873B13A461B
:1071C0003146BDE8F0411847818DC9B206F057FA43
:1071D000E9E790F8291006F08EFAE4E7FFF734FDAE
:1071E000054B6FF085021A500020BDE8F081DB6886
:1071F000E4E7D368C9E700BF0C0000002DE9F04FB9
:107200000B7E33F0800893B004460E46154640F0DE
:1072100095847AB10846FFF749FF737EDA0703D4F5
:107220009B0711D5337E7BB9204613B0BDE8F04FE4
:1072300005F073BF497E8F0700F1280908D5802B20
:107240000CD13046FFF732FF404613B0BDE8F08F57
:10725000880700F03B84002B40F03884CA0736D5FD
:10726000338A082B0ED1F2681368A3625368C9F8F9
:1072700004303146002005F054FD054638B1FFF7D3
:1072800015FFE6E03046FFF711FF0025E1E0484634
:1072900005F017FF38B1E18D29B1204606F0A9FBB2
:1072A00005460028F1D0FFF7CFFC94F82880B54FB1
:1072B000002318F0600FC351C8F3411309D0032B0A
:1072C00040F0C481FFF7C0FC6FF085033AE035461B
:1072D000E9E7484605F0F5FE94F82930002840F02B
:1072E0005381013B0A2BEDD801A252F823F000BFD5
:1072F00067740200C5720200FB740200C5720200CE
:107300001D730200C5720200C5720200C572020040
:107310008D730200C5720200EF730200618D7F2938
:10732000D0D8A38D002BCDD1E38D002BCAD118F07E
:107330001F0FC7D194F83030022B05D1FFF784FC22
:107340004FF0FF333B5076E0A069036993F880303B
:107350001B0707D5C9B205F016FF804628B1002DDE
:107360006CD171E7012384F8393094F83030012B67
:107370000AD1638D43B984F83030FFF765FC3B5880
:10738000002B00F0858056E00123F4E7204605F04D
:107390000DFD628DFF2A014694D8E38D002B91D11B
:1073A00094F82830D8068DD194F83030002BC5D011
:1073B0002AB1D2B2204606F088F80028BED0618DEE
:1073C00094F838308B42D8D0C9B2204606F084F801
:1073D00080460028C3D1628D002A14BF02230123F6
:1073E00084F830300521204606F093FBC5E708F00D
:1073F0001F08B8F1010F7FF465AFE38D002B7FF418
:1074000061AF628DFF2A3FF65DAFA18DFF293FF688
:1074100059AF94F83030022B90D1D2B2C9B2204685
:1074200006F06AFA10F1020F804640F01481FFF76F
:107430000BFC47F8008065B14FF000082846FFF7C5
:1074400035FEB8F1000F7FF4FFAEFFF7FDFB3B58B0
:10745000F3B1484605F035FE0346A069002B00F065
:107460006183802166E3E38D002B7FF42BAF94F8DA
:107470003030002B3FF462AF012BA18D02D10029E7
:107480007FF45CAF18F01F0810D0B8F1020F1AD0CB
:10749000737EE28DD90700F1DA82002A40F0ED8296
:1074A000204605F024FE0028D3D1BDE600297FF454
:1074B00045AF638D012BEBD194F86C3061F3C303BE
:1074C00084F86C30E4E7B4F82AA0BAF1000FDFD1F9
:1074D0005FFA81F84146204606F001FB0346FFF7BC
:1074E000B3FB3B50013302D14FF0FF3837E7524630
:1074F0004146204605F0EBFD3FE7E38D002B7FF48E
:10750000E1AE628DA38D022A5FFA83FA11D108F0F1
:107510001F085AEA08087FF4D5AEA0690122190AAB
:1075200005F00EFE00287FF4CDAE012384F839303B
:1075300023E794F8301000293FF400AF012902D16D
:10754000002B7FF4FBAE18F01F0811D0B8F1020F2A
:107550009ED1002A9CD15146204606F0ABFA034644
:10756000FFF772FB3B500133BED001225146C0E70A
:10757000002B7FF4E3AE012A8AD194F86C3043F0FB
:1075800008039DE70C0000000A2B3FF69BAE01A20A
:1075900052F823F0C1750200C5720200C5720200E4
:1075A000C5720200C5720200C57202003B7602007D
:1075B000C5720200CB790200C5720200F5790200A3
:1075C000E38D022B7FF47EAE94F83030002B3FF435
:1075D000B5AE012BA18D02D100297FF4AFAE18F01A
:1075E0001F0811D0B8F1020F1CD04FF0000805F1B0
:1075F0000C0A504605F05DFDE38D984218D2FFF766
:1076000023FB6FF00B039DE600297FF497AE94F8FF
:107610006C304FEA930808F00208C3F3001348EAFD
:107620000308E4E7C9B2204606F068FA8046DEE7C0
:107630004146504605F098FB9FE6B4F82AA018F0A2
:107640001F0F4FEA1A235FFA8AFA09D0294620460B
:10765000FFF77EFD8046B8F1000F7FF480AE8CE628
:10766000013B0E2B3FF62EAE01A252F823F000BFD5
:10767000AD760200ED76020097770200C572020037
:10768000C57202008F7702008F770200C572020078
:10769000C5720200C5720200C5720200C572020006
:1076A000C5720200C5720200D978020005F10C080B
:1076B000404605F0FEFC83462046B4F82EA005F0B7
:1076C00075FB20B101287FF4FDAD616F00E0216FF3
:1076D000002900F037820A78DA4528BFDA46524599
:1076E00028BF5246404605F02EFB46E6204605F0F0
:1076F0005DFB0AF1010201900146D2B2204605F07D
:10770000BEFE804600283FF4DDAD05F10C0AD0F83E
:1077100004B0504605F0CDFC9BF80020824228BF03
:1077200002465946504605F00EFBD8F80CB0BBF1A6
:10773000000F09D1298AE38D99427FF61EAEC91A3E
:10774000504605F01BFB18E6DBF8040083681B6B52
:1077500013B9DBF800B0EAE7019998470028F8D0A0
:10776000A0F1040858F8041F0029F2D00A78002A72
:10777000EFD05046CDE9022105F09BFC029A039917
:10778000904238BF82B2504605F0DDFAEAE7204663
:1077900005F00CFB96E552460321204605F0E7FB79
:1077A000824600283FF48EAD05F07EFCB4F82EB082
:1077B0009AF81530C8B99AF814808DF828808DF899
:1077C0002930DAF8103005F10C0A1B88ADF82A30A0
:1077D000504605F06EFCC3455A4628BF42468242D9
:1077E00028BF02460AA950467DE7DAF808208DF83E
:1077F0001530B24B1340B24A4FF0000893428DF857
:10780000148058D1102106A807F0BBF9021EFFF61C
:1078100059AD0AA9102ADFF8ACE20DF1180C0846A0
:1078200028BF1022424501F1020133D892000232F2
:107830005FFA82F88DF81480034605F10C0A504671
:10784000029305F036FCD845424628BF5A4690427E
:1078500028BF104602288346804628BF4FF0020BFF
:107860005A46A8EB0B0805A9504605F06CFA4FEAFA
:1078700058030193029B9B4603EB5802934521D189
:1078800018F0010F3FF479AD019A995C504605F06C
:1078900063FA72E51CF8013B4FEA131A03F00F0379
:1078A0001EF80AA01EF8033001F802AC01F8013CF2
:1078B00008F10108B6E79AF81480DAF810308DF86C
:1078C0001480BAE71BF8011B5046CDE9023205F0DF
:1078D0004BFADDE90232D1E7204605F067FA38B10C
:1078E00001282CD0FFF7B0F96FF085033B5044E539
:1078F000236F002B00F026815B88B3F5007FF1D960
:10790000714B0A9300238DF82C30E36C04F14C0B7F
:107910009B4508BF0023BDF82A10A3B15A7D0F2A4A
:1079200008D11A7D0A44ADF82A209DF82C20013296
:107930008DF82C20226D934203D01B68EBE7636F18
:10794000D7E7BDF82A10019105F10C0A504605F061
:10795000B0FBB4F82E800199884528BF8846804541
:1079600028BF80464246052A28BF05220AA950465C
:10797000019205F0E8F9019AB8EB02083FF4FDAC7A
:10798000E36C5B453FF4F9AC002B3FF4F6AC5A7D59
:107990000F2A14D11A7D19690193424528BF424626
:1079A000504605F0D0F9019B1A7D424594BFA8EBE3
:1079B0000208A8EB0808B8F1000F3FF4DEAC226D16
:1079C00093423FF4DAAC1B68DEE794F83030002BCA
:1079D0003FF4B4ACE38D012B7FF474AC05F10C08DB
:1079E000404605F066FB00283FF409AE94F83810D5
:1079F00040464CE708F01F08B8F1010F7FF49EAC39
:107A0000204605F050FD00283FF498ACB4F82CA0B7
:107A1000BAF1FF0F3FF656AC43681B795345FFF4AC
:107A200051AC5FFA8AF30F2B3FF64CACE38D012B80
:107A30007FF448AC05F10C08404605F03AFB0028FD
:107A40003FF4DDAD04EB0A0393F83A10D0E7484663
:107A500005F037FB0146002877D1002A3FF420AD1E
:107A6000A06906F06BFE014600283FF40EAC2046EC
:107A700013B0BDE8F04F05F0C1BF484605F021FB4B
:107A8000002865D12846FFF711FB09E5A0690369C5
:107A900093F8801011F004017FF4C6AB06F062FE8B
:107AA000064600283FF4D5AC0146204605F0A6FF67
:107AB00000283FF4B9AB3046FFF7E1BB00FF0200FE
:107AC000000302000E0A0300050F05004A077FF5B8
:107AD000DCAB002B3FF4B5AB3046FFF7E7FA94F888
:107AE0003930002B3FF4B0AB94F82930052B05D189
:107AF000618DA069C9B205F046FB054694F82930AE
:107B0000032B09D1638D022B06D1A18DA069002220
:107B1000090A05F015FB0546002384F83930A8460C
:107B2000FFF792BBE38D002B3FF49BAC291E18BFDF
:107B30000121C90106F01BFDFFF776BB6FF00408B9
:107B4000FFF782BB6FF0150809E4002A3FF4A8ACE8
:107B50002946204605F052FF002897D02846FFF717
:107B60008EBB00BF0B78062B10B414D10369D3F879
:107B70009C20EFF31184202383F31288BFF36F8FCF
:107B80004B6800201860506A58B9C2E9083384F382
:107B90001188BFF36F8F044810BC0022002307F048
:107BA00070BE03605362F2E7280400202DE9FF4114
:107BB00020264FF0FF335E484FF0FF3201A902F05C
:107BC000F7FF039B1B69D3F89C40236A93B1EFF343
:107BD000118286F31288BFF36F8F216A29B1606A20
:107BE0000B682362814208BF636282F31188BFF38E
:107BF0006F8FC9B99DF80430062BDAD0072BD8D87F
:107C000001A252F823F000BF5B7C02004F7C02000F
:107C10007B7C0200617C02009F7C0200957C02005C
:107C2000B37B0200297D02000B7ED1F81E205D0689
:107C3000204609D1FFF7E2FA02460028C5D0072105
:107C4000204605F066FFC0E705F029FDF4E70022B5
:107C50000121204605F05DFFABE700221146F8E761
:107C600094F86C3043F0040301A984F86C3020468A
:107C700005F0B1FA00220321EBE794F86C3023F011
:107C8000040301A984F86C30204605F0A4FA002210
:107C90000221DEE701A9204605F09DFA89E794F864
:107CA0006C30A76923F0040384F86C30D7F808809F
:107CB0003B69BFF35B8FD3F8A030BFF35B8F9A07AC
:107CC0002FD5D8F83C3038469847D8F824300021D2
:107CD00038469847D8F84030054638469847ADB9F9
:107CE0002946204605F0F8FB054678B9A06906F05C
:107CF00058FD831E5842584194F86C3084F8305037
:107D000023F0680343EA401384F86C300022042116
:107D1000204605F0FEFE002D3FF44BAF2A4607211A
:107D200097E74FF0FF35F1E7029A062191E700BF90
:107D30002804002030B589B000220023CDE90623B5
:107D400000246FF00703CDE90334CDE901441A4B59
:107D50001A4900944FF48062194803F0D1FB194985
:107D6000174807F0F8FE184B18498B4207D3184BF9
:107D7000184900208B4210D3002009B030BD03F118
:107D80001402BFF35B8F52E8000F42E80045002D5C
:107D9000F9D1BFF35B8F1833E7E703F11402BFF3A8
:107DA0005B8F52E8004F42E80005002DF9D1BFF388
:107DB0005B8F1833DEE700BFAD7B0200000D0020B3
:107DC0003005002052090300140500202C05002076
:107DD0002C0500202C05002038B50246094905462F
:107DE000806906F044FD044648B985F83800284605
:107DF00005F048FA044610B1A86906F06BFD20466C
:107E000038BD00BF657B020070B5084C084E0546C2
:107E1000B44202D30024204670BD63682846196826
:107E2000FEF76EF90028F6D01834F1E714050020AB
:107E30002C05002070B50646EFF31181202383F353
:107E40001288BFF36F8F1B4D2A6881F31188BFF32F
:107E50006F8F526892F86C20D20705D4BDE870404D
:107E60002122002303F064BAEFF3118283F3128816
:107E7000BFF36F8F2C682CB1696823682B608C422C
:107E800008BF6B6082F31188BFF36F8F44B16068E5
:107E900004F10801C36998470748214607F0A1FC8F
:107EA0002B6833B130460022BDE87040002303F058
:107EB00007BA70BDE8080020F803002030B585B08F
:107EC000CDE90012054600221448002303A902F060
:107ED000DBFD0246E8B9039BDDE900015D60083384
:107EE00083E80300EFF31180202383F31288BFF3AC
:107EF0006F8F039B1A600A4A516861B9C2E9003367
:107F000080F31188BFF36F8F06480022002303F02F
:107F1000D7F905B030BD0B605360F1E7F8030020DE
:107F2000E80800200000002038B513464A780469AC
:107F300045682069202A08D0222A1AD0FEF784FE3C
:107F4000134B6FF085021A5011E0CA88072AF5D149
:107F50006BB1DB681A6842609A8802819B798372F0
:107F600005F0F8FD22460821284605F0E0FD002036
:107F700038BDCB88002BE1D14B888381C3F340020D
:107F800003F001030276437622460921ECE700BFA5
:107F90000C00000008B513464A78212A14D133B9E1
:107FA000FEF752FE0B4B6FF00B021A500AE0CA8824
:107FB00001690969072A28BF0722043103F10C006F
:107FC00004F0C1FE002008BDFEF73EFE014B6FF03D
:107FD0008502EAE70C00000073B504698DF807100C
:107FE0002025EFF3118685F31288BFF36F8F0122EE
:107FF000206C0DF1070104F0FAFD86F31188BFF340
:108000006F8F012810D007F0A0FDB8B10F4BBFF360
:108010005B8F012253E8001F002903D143E80020B1
:108020000028F7D1BFF35B8F237F2BB121220023E0
:1080300004F1480003F044F902B070BDA37E002BA8
:10804000E4D00021212007F042FECAE7F00800201A
:1080500038B505690E492B6C0024C3E90144DC6086
:10806000AB6B05F14800C3E90144DC6007F061FD3A
:1080700005F17800074907F030FD074905F12800B0
:1080800007F02BFD284605F065FD204638BD00BFF2
:1080900003DD0200DDDE020069DF0200F8B587685B
:1080A0001446FB6B05460E469847214606480022BB
:1080B0000023FEF77DFF044600B1067628463B6CA0
:1080C00098472046F8BD00BF7404002010F0080F48
:1080D0000B4B42B20CD100F00F00002A4FF01402FB
:1080E00002FB0033B4BFD3F80806D3F80807704783
:1080F000002AB4BFD3F8A806D3F8A807704700BF7A
:1081000000700240F8B50246EFF31181202383F39B
:108110001288BFF36F8F00F0080506F014FC0124ED
:10812000844057066FEA04061BD0D5B9174F3B6849
:1081300023FA00F0C00714D533403B6053B2DB4351
:1081400022F08000DB0F00F2DA301B0103EB40036A
:108150000F48C0F80038D0F8043843F00203C0F8E4
:1081600004380C4803683340036035B90A48036893
:10817000120654BF334023430360054BC3F86C44DD
:1081800081F31188BFF36F8FF8BD00BF4C09002049
:10819000007002405009002054090020EFF31180C4
:1081A000202383F31288BFF36F8F0A4BD3F8001C90
:1081B000032261B949F27531C3F8001CC3F8142DCC
:1081C000C3F8001C80F31188BFF36F8F7047C3F8AA
:1081D000142DF7E700E00640EFF31180202383F32E
:1081E0001288BFF36F8F0A4BD3F8001C61B949F2B4
:1081F0007532C3F8002CC3F8141DC3F8002C80F3AB
:108200001188BFF36F8F70470022C3F8142DF6E773
:1082100000E0064070B5024606F095FBEFF31185CD
:10822000202383F31288BFF36F8F531E0124062B84
:1082300004FA00F40FD80E4E0E4B31681B680B4346
:10824000C34013F0010306D10B4802F59472214399
:1082500040F822303160094A136823431360084B09
:108260008022C3F8042185F31188BFF36F8F70BD9E
:108270004C090020540900200070024050090020E1
:1082800000E100E0F8B50306044623D410F0080727
:1082900020D100F00F02920002F1804202F51C3260
:1082A000D2F84434B3B1EFF31186202383F312885C
:1082B000BFF36F8F06F047FB084DC2F8A07401238F
:1082C00003FA00F12B6823EA01032B6086F311887F
:1082D000BFF36F8F024BC3F81845F8BD5409002057
:1082E0000070024010B591F91800154B0A7E002865
:1082F000B4BFD3F81045D3F8144502F00F020123A0
:10830000934023420DD10E4A0028B5BFD2F8100584
:10831000D2F8140503430343B4BFC2F81035C2F8C2
:1083200014350B7E1A0709D4054AC2F80C3543F4FC
:108330008073C2F80C35087EFFF7A4FF002010BD43
:10834000007002400B7E064A13F07F0F0BBF012323
:1083500043F480735365C2F818350020704700BF9E
:108360000070024070B506460D4605F05EFF0446FB
:1083700005F064FF28BB204605F083FF08B3802D7D
:1083800016D1437E9A0744BF0E4A15705B070FD57E
:108390000D4B1B7813B90D4B01221A65204605F0D1
:1083A0006CFF002201463046BDE8704005F082BFF8
:1083B0002846FFF72FFF20460121BDE8704005F059
:1083C00041BF70BD970C00209C0C00200070024043
:1083D00038B50C4605F029FF054605F02FFFB8B962
:1083E000284605F04EFF98B14CB9437EDA070FD40A
:1083F0009B0704D5074B1C70074B0122DA6420460B
:10840000FFF708FF28460121BDE8384005F01ABFF4
:1084100038BD00BF970C00200070024010B54468C2
:10842000206801F017F80D4B18600D4B1B782BB12D
:108430000C4B00221868114605F030FF0022012184
:108440002720FEF7F5FA201D02F010F904F10800CC
:1084500002F04AF907F0F6F8002010BD04090020E8
:10846000990C002058090020012810B5014619D0A8
:10847000022809D0A8B90F4B0246186805F00EFF74
:108480000D4B01221A700CE00C4B0D4C00221A709F
:108490000C4BC4F800332720FEF79AFA0123C4F8E6
:1084A000043510BD034B0022186805F0F7FE024B9F
:1084B0000022E7E758090020990C0020980C0020C2
:1084C00000700240FDFFDF010146014807F0FFBCDC
:1084D0006004002008B5054B1970054B1B7813B1DB
:1084E0000420FFF7F1FF002008BD00BF9A0C002018
:1084F0009B0C002010B50469087E0D4A06F023FA93
:10850000012303FA00F013680343136003F0EAFA4F
:108510004020FFF7D9FF4FF0FF324FF0FF3304F157
:108520008401044802F040FF03F0F0FA002010BD7F
:10853000480900206C0400202DE9F043474B0669F0
:1085400089B00546186006F1840007F0A9F90022F9
:108550000023CDE9062300246FF00703CDE903349F
:10856000CDE901443E4B3F4900954FF400723E482F
:1085700002F0C6FFDFF8F4803D493B483D4F07F06D
:10858000EAFAD8F810203C4B134043F4820343F03E
:108590004003C8F81030C14688F8184041462846C4
:1085A00005F055FE002855D10134092C18D009EBEF
:1085B0004411082C8A7C314B42F040028A7408D165
:1085C000D9F810212E4911402E4A0A43C9F810212A
:1085D00003E00A693A401A430A6108F12008DBE720
:1085E000294C2A4B2269234F134043F4041343F0D0
:1085F000400323618046A14668F07F02227621462F
:10860000284605F024FE28BB08F10108B8F1090F3F
:1086100018D009EB4811B8F1080F8A7C174B42F0CB
:1086200020028A7408D1D9F8102115491140154A41
:108630000A43C9F8102103E00A693A401A430A6163
:108640002034D9E796F8803023F0760343F07603A0
:1086500086F8803009B0BDE8F08300BF58090020DB
:108660003987020040110020B80500207C0A002054
:108670006A0903000000F9FF0000BEFF4000060089
:108680000000F7FFFF0108005C0900200000DEFF8A
:1086900010B50C462046114605F0F5FD207E06F08B
:1086A00052F90146034806F05DF90120FFF70CFF7F
:1086B000002010BDA00B002008B5064A0B7EC2F8B2
:1086C0000C3543F48073C2F80C35087EFFF7DAFDF1
:1086D000002008BD0070024010B50C7E4FF0FF3244
:1086E0004FF0FF33114802F0F5FB2046FFF70AFD7B
:1086F00004F00F02012393400D4A14F0800F14BFC1
:10870000D2F81015D2F814156FEA030315BF0B4009
:108710000B40C2F81035C2F81435044802F0A4FB2F
:10872000044B8022C3F80421002010BD5004002017
:108730000070024000E100E02DE9F04FC44D85B02B
:1087400004464FF0FF384FF0FF390022CDE9008991
:108750004FF0FF31BF4807F0C1FBBE484FF0FF317B
:1087600007F0B8FB074638072ED5BB4842464B46B4
:1087700002F0B0FBEFF31182202383F31288BFF3E2
:108780006F8FB64B1B787BB1D5F8003413F40073B0
:108790000AD10121C5F82C15D5F82C15D5F80014EF
:1087A000890548BFC5F82C3582F31188BFF36F8F58
:1087B000A94802F059FB0121204605F016FD0022D0
:1087C0000321204605F06AFDFE0608D5002120465B
:1087D00005F00BFD00220221204605F05FFDB806E2
:1087E00008D50021204605F000FD00220221204688
:1087F00005F054FDB9075CD4FA0710D5BFF35B8FC1
:10880000974B002253E8008F43E800210029F9D15B
:10881000BFF35B8F0126B8F1000F40F09D80790710
:108820002FD5D5F88004C0B28DF80800D5F884148F
:10883000C9B28DF80910D5F88834D5F88C2443EAEC
:1088400002239BB2ADF80A30D5F89024D5F8946491
:1088500042EA0622ADF80C20D5F89824D5F89C649D
:1088600042EA062292B27F4EADF80E20002840F078
:108870008C80052940F0898001213170002A00F0A8
:1088800090807B067FF55DAF206984304FF0FF322A
:108890004FF0FF3302F0F0F9734E3168002940F0D9
:1088A0009980724802F04AFD2069843002F056FA3D
:1088B00047E76F4BBFF35B8F002253E8008F43E81D
:1088C00000210029F9D1BFF35B8F4FF0010BB8F104
:1088D000000F91D098FAA8F3B3FA83F30F2B1E463A
:1088E000C6BFA3F11006F6B246F080060BFA03F3FA
:1088F00028EA030833063146204618D505F095FCD2
:10890000824605F0BAFC814660B10021504605F070
:1089100099FC00224946204605F0CCFC802E08BF79
:10892000C5F850B031462046FFF71CFDCFE705F0F3
:108930007CFC824605F0A1FC814640B100215046F6
:1089400005F080FC00224946204605F0B3FC314684
:108950002046FFF73DFDBAE798FAA8F3B3FA83F390
:108960000F2B1946C6BFA3F11001C9B241F0800117
:1089700006FA03F30A0628EA0308204602D5FFF7A1
:10898000F1FC48E7FFF724FD45E73A49002333703F
:10899000D5F87024097891420AD1374B00221A7019
:1089A00013E003F07F03ADF80A30ADF80C20F4E7D4
:1089B000314901220A7032704FF4A062ADF80820EC
:1089C000D5F87024ADF80A20039302A9204605F0DB
:1089D00098FC56E791FAA1F7B7FA87F70F2F3946B7
:1089E000C6BFA7F11001C9B241F08001204605F0D1
:1089F0001CFC804690F818904FF0FF324FF0FF3388
:108A0000154802F067FA4846FFF77CFB124802F06F
:108A10002BFA1A4B8022C3F804214146204605F068
:108A200061FC0021404605F00DFCBFF35B8F012384
:108A3000BB400F4ADB4352E8000F184042E80001F8
:108A40000029F8D1BFF35B8F32681340336024E70D
:108A5000007002406004002050040020980C0020A8
:108A6000A00B00209C0C0020480900206C04002072
:108A70009C0B00209A0C00209B0C002000E100E0E1
:108A80004FF08053D3F83031082B02BF024B002245
:108A9000C3F81C2C704700BF007002402DE9F04164
:108AA00005464FF0FF324FF0FF33384802F012FA1C
:108AB000374B8022C3F884212720FDF7ABFFA0B1FC
:108AC000344F354B3C681B686FF30F041C434FF069
:108AD00001088CBB314E40F2FF133B602720C6F8E3
:108AE0000445FDF783FFC6F800432D4A13788BB188
:108AF0002A4B0021C3F808110121C3F80026C3F84E
:108B000004165960D3F808110029FBD00021C3F8DE
:108B100008111170214B0024C3F80045FFF7B0FF86
:108B20001A4802F0A1F92146284605F0E5FCC0B13B
:108B30006FF00400BDE8F08194FAA4F6B6FA86F668
:108B40000F2E3346C6BFA6F11003D8B243F0800003
:108B5000030701D4FFF7D6FA08FA06F624EA06045A
:108B6000B7E78021284605F0C7FC0028E0D10D4B6F
:108B70000D491C68204603F0B2FF10F1780F02D1B6
:108B8000204603F088FF00EAE070D3E7500400209D
:108B900000E100E05409002050090020007002406C
:108BA000950C002004090020F40800202DE9F04F66
:108BB000B34BDFF8D082D3F85421B34F85B00AB35A
:108BC0000022C3F85421D3F8042391021AD5D3F814
:108BD000C034002B14BF4FF001224FF48072AB4B16
:108BE0009B683BB998F8000005F0ADFE0123834077
:108BF00022EA03023B681343A54A3B60136823F053
:108C0000012313609E4BD3F8604134B10022C3F8B6
:108C10006021D3F86C44C3F86C44D3F828214AB1DE
:108C20000022C3F828219B4B187805F08CFE012305
:108C300083401C4398F8005098F900902A0700F1EF
:108C40000181B9F1000FB4BF934B944B05F00F02B3
:108C5000920013441A684AB300221A602846FFF7AC
:108C600035FA8F4B1A7800F0010050401870FFF76A
:108C700007FF8C4B28461A6805F065FEC240D307F3
:108C8000064600F1F680B9F1000F80F2E280882DEF
:108C900000F0DF807E4A01231168B3400B4313606C
:108CA000812388F80030794802F0DEF88CB13B6807
:108CB000774ADFF8F4A124F001210B433B601368ED
:108CC00023EA01031360A4B24FF00109002C40F025
:108CD000F7806B4BD3F800214AB10022C3F8002182
:108CE000724B1A70704B0421186805F0D7FA644B68
:108CF000D3F858212AB30022C3F85821D3F80044EE
:108D0000C3F80044E00505D5684B012208201A701D
:108D1000FFF7DAFBA10505D5644B002210201A707D
:108D2000FFF7D2FB62050CD5604B1A784AB10022DE
:108D30001A70534B0122C3F8082520209A65FFF7CB
:108D4000C3FB4F4BDFF85CA1D3F85C31F3B14F4B61
:108D50009B681BB998F800305B0617D0484B00227F
:108D6000C3F85C21DAF80030494A23F00113CAF84D
:108D700000303B6823F4803343F001033B60136809
:108D8000042023F001131360FFF79EFBDAF8006064
:108D90003B681E4000F02E81394BD3F82C95B9F179
:108DA000000F40F0278139480022002302F092F89A
:108DB000002840F01F8116F0012314BF93FAA3F698
:108DC00096FAA6F6B6FA86F6F4B20F2EC8BF103C95
:108DD000354BCCBFE4B244F080041868214605F05E
:108DE00024FA019005F04DFA4FFA84FB04F00803D1
:108DF000BBF1000F0246029380F29C80019A058A23
:108E0000518BC368C1F30A018D4240F28A800D463E
:108E10004FF0000903F06042B2F1005F05D019463F
:108E200023482A4607F070F8214BB9F1000F00F0F3
:108E3000B280DAF800200121B14022EA0102CAF82A
:108E40000020A8E01B4B1C4A33EA290328BF134625
:108E500000E71A48314605F085FD0220FFF734FB94
:108E6000B9F1000FFFF616AF013D062D7FF612AFE8
:108E700016E7002DF4D1024B0122DA6410E700BF9F
:108E800000700240960C002054090020500400207D
:108E90004C090020970C00200871024030710240FC
:108EA000950C00205009002058090020980C002043
:108EB00008090020507102402C7102409C0B0020D8
:108EC00094FAA4F5B5FA85F509FA05F345F080059D
:108ED0002946DAF8000024EA030405F0A6F905F0B3
:108EE000D0F906462846FFF7F1F8014606F10C00D6
:108EF00003F04BFF338A002B7FF4E8AE304605F0D9
:108F0000C4F918B1304605F0C4F9DFE6284605F08B
:108F10001AFD0146434805F025FD0220FFF7D4FA6B
:108F2000D4E6019305F0B1F980F00109019B5FFAE5
:108F300089F96FE704F008013B4B00295DD0D3F8B5
:108F4000C03413F4803F08BF9946118AD068558A0F
:108F5000029243186D1A51690393401A2D1A4D4518
:108F600028BF4D46294602F10C0003F0E6FE019BA6
:108F7000598BC1F30A014945DDE902237FF459AF5A
:108F80005169D068B2F812C0128A401AACEB0001E5
:108F900091423FF44EAF4FF080520120D2F8302181
:108FA000082A02BF204A8221C2F81C1C3A6888F8AD
:108FB000004000FA06F622EA060204F008013A60D0
:108FC000194AF9B9BBF1000F04F00F044FF0140176
:108FD00001FB0421A9BF0A3402EB8402C1F8003767
:108FE000C1F80457AFBF42F82400C1F80036C1F8F9
:108FF0000456506005B0BDE8F08F04F5947153F845
:109000002190A2E7BBF1000FB5BFC2F8A036C2F8AD
:10901000A037C2F8A456C2F8A457B4BF50629064F7
:10902000E8E700BF9C0B00200070024010B5EFF392
:109030001184202383F31288BFF36F8F164B1B78A4
:1090400003F0FF02CBB11549D1F82C3513B300233F
:10905000C1F82C354FF08053D3F83031082B0CD1A8
:109060000F4BD3F8000CC02188B949F27530C3F812
:10907000000CC3F8141CC3F8000C84F31188BFF370
:109080006F8F002A0CBF6FF00A00002010BDC3F8DC
:10909000141CF2E71A46F0E7980C0020007002401A
:1090A00000E0064013B5002200921146402304461A
:1090B00005F0C7F9024618B16FF0040002B010BD08
:1090C000009040238021204605F0BBF90028F3D111
:1090D000534901238B60534B4860C860186803F004
:1090E0008FFC0028EADBEFF31184202383F312883E
:1090F000BFF36F8F4C4B4FF40062C3F8002405F0B0
:1091000014FC08B1FFF74AF84FF08053D3F8303120
:10911000082B18D1EFF31180202383F31288BFF3BB
:109120006F8F424BD3F8001CC022002971D149F245
:109130007531C3F8001CC3F8142CC3F8001C80F36D
:109140001188BFF36F8F384B0122C3F80025D3F885
:1091500000241205FBD54FF40062C3F800244FF041
:109160008053D3F83031082B17D1EFF3118020232F
:1091700083F31288BFF36F8F2C4BD3F8001C0029A8
:109180004AD149F27532C3F8002CC3F8141CC3F855
:10919000002C80F31188BFF36F8F05F0C6FB30B150
:1091A000FFF71AF805F0C1FB08B1FEF7F7FF4FF023
:1091B0008053D3F83031082B1B4B0AD140F2E372B5
:1091C000C3F800284022C3F80428BFF36F8FBFF311
:1091D0004F8F8022C3F81C250122C3F83025144B81
:1091E00040F2FF121A60134B00211960124B1960F4
:1091F000124B1970FFF744FC114B197005F095FBE9
:1092000008B1FEF7E9FF84F31188BFF36F8F0020E8
:1092100054E7C3F8142C92E70022C3F8142CB8E7E3
:10922000F4080020040900200070024000E006401D
:1092300054090020500900204C090020950C002002
:10924000970C0020084B70B5C31A0D4607499B10B8
:10925000044659430648402205F0C9FB2B46014607
:109260002046BDE870401847B80B0020B76DDBB64C
:109270006C00030073B50C4C0C4A4023041B009394
:109280000D460B460A49A41061430646094805F0FD
:10929000D9FB014628B130462B4602B0BDE87040EC
:1092A000184702B070BD00BFB80B0020B3EA02003F
:1092B000B76DDBB66C0003000022F8B5012105464E
:1092C0001046FDF7B5FB104800F020FF0446B8B982
:1092D00000F03CFF2F690D49384603F07EFB031E6A
:1092E00009DB01263E642D69084905F11C0003F0E5
:1092F00074FB031E02DA1C462046F8BDEE64FBE751
:109300006FF00404F8E700BF39940200240403005E
:109310001FB500220123CDE902236C46074A6B46A4
:10932000CDE9004405F0BEFB28B94FF4804200238C
:10933000684601F0CFFD04B010BD00BFC5EA0200D1
:1093400010B5EFF31184202383F31288BFF36F8FDE
:10935000074A136823F00201DB07116002D40120E1
:1093600005F06AFE84F31188BFF36F8F10BD00BF54
:10937000080C002030B4104B0C2202FB00330146D5
:109380000020D3E90E529863EFF31180202484F378
:109390001288BFF36F8F1C6C04F0C00444F0020409
:1093A0001C6480F31188BFF36F8F1DB12B460348F7
:1093B00030BC184730BC7047B80B00206C0003006D
:1093C00010B4EFF31180202282F31288BFF36F8F65
:1093D00017490B6843F0020413F001030C601AD024
:1093E0004FF08043D3F80C14D3F80C3413F001037E
:1093F00011D0EFF3118182F31288BFF36F8F0D4A02
:10940000136C03F0C00343F00203136481F311886B
:10941000BFF36F8F012380F31188BFF36F8F1BB1F0
:1094200010BC0020FFF7A6BF10BC012005F0FCBD5A
:10943000080C0020B80B002010B1012804D07047A0
:10944000034B1B6C5B0701D1FFF794BF704700BF54
:10945000B80B0020024AC3B21C2000FB0320704757
:10946000B80B0020F8B52A49BFF35B8F05460122EF
:1094700051E8003F41E800200028F9D1BFF35B8F9D
:1094800033B9244924484B60CB608A6003F0B8FAB2
:109490006B1E012B3BD8012D07D14FF08043D3F831
:1094A0001C3403F00303012B31D006F04EFBA0B9AE
:1094B0001A4B1E784FF080440223C4F8083301276A
:1094C000D4F81824D4F81834D20308D4002EF7D0D6
:1094D0000021212006F0FBFBF2E70026EAE703F07B
:1094E0000303012B0ED0D4F818354BB9D4F804215E
:1094F00032B1C4F80431D4F80431C4F81875A76047
:10950000012DE3D14FF080430222C3F80423F8BDBC
:10951000B40B0020A40B0020D40B0020C10C0020B1
:1095200008B5074806F0BFF838B10648FDF7FEFC5D
:109530000448FCF721FE002008BD6FF01200FBE795
:10954000C0000300499502000A2838B5074D0446BB
:1095500004D1AB680D215B6828469847AB68034887
:109560005B68E1B29847204638BD00BFC0000300E9
:109570002DE9F043476840F20636D0063B7C87B0C1
:1095800002EA060654BFC2F3401C4FF0030C01F080
:109590001F05B6F5837F144645EA43158DF803C0D1
:1095A00044D00DD8062E16D005D8A6B1022E3FD035
:1095B0006FF0150037E0B6F5807FF9D101260AE09B
:1095C00040F20222964235D0B6F5407F34D0B6F54F
:1095D000007FEDD10226220330D57A6801238B402B
:1095E000C2F80835B868A0BB05F01F036D092DD07F
:1095F000012D77D13E4A02EB8302C4F30043D2F837
:10960000001783F00103C4F3404444EA430421F407
:10961000E16144EA8C0421F0070144EA06230B438C
:10962000C2F80037002007B0BDE8F0830726D2E774
:109630000426D0E70526CEE70326CCE7630341BF27
:1096400001237A688B40C2F80C35CBE74FF0A0427B
:10965000D1E70DF10202294605F05EFF14F4403F08
:1096600080460CD1B868294605F08BFFB8F1000F91
:10967000D8D19DF80210B86800F000FFD2E74FF093
:10968000000901ABCDE90199CDE90439CDF80C9081
:10969000B86803AA294605F014FE4845C2DB14F455
:1096A000003314D0C4F300449DF803308DF80E301D
:1096B00084F001048DF80C608DF80D40B8684B46BD
:1096C00003AA294605F0B0FE0028CFDAAAE7CDE9C3
:1096D00004330DF103030393B86803AA294605F088
:1096E000F0FDF1E703F5E07350F82330FFDE00BF33
:1096F00000030050420970B5034602D0012A17D07A
:1097000070BD0D4E326951680029F9D003F01F0376
:1097100001250C689D400029F2D08A682A4002D0B9
:109720004B68304698472CB1236821461C46F2E727
:10973000024EE7E72346F8E7A40003008800030091
:1097400038B54568A86890B105F015FF014670B9B5
:10975000A86805F0F4FE044658B902460649A86810
:1097600005F0D7FE224605210620FDF761F900200D
:1097700038BD6FF00400FBE7F5960200F0B54468D1
:109780001646A068227C01F01F0587B045EA421505
:1097900000286DD0B6F5001F04D1294605F044FF1E
:1097A000002056E06268607CC2F8240501AA00200F
:1097B000B6F5800F0190506037D1B3F1007F14BF30
:1097C000052304238DF804300023CDE904230393FB
:1097D000E36823FA01F111F001010DF103073AD119
:1097E000B6F1A07F37D105F01F036A0903F5E073D6
:1097F00026D0012A3FD1214A52F82330DB072AD450
:10980000A0683A46294605F087FE16301BD002971D
:10981000A06803AA294605F054FD002819DBA068BA
:109820000122294605F0AFFEBAE7B3F1C06F05D0BB
:10983000B3F1007F14BF01230223C3E70323C1E771
:109840004FF0A042D8E7A068394600F01DFE00287E
:10985000DDDA07B0F0BDA0683A46294605F05CFEA7
:109860000028D5D19DF80310A06800F007FECFE7CF
:109870006FF08500EDE751F82330FFDE0003005064
:10988000036803F01F025B09026004D0012B034848
:1098900018BF002070474FF0A040704700030050F1
:1098A0002DE9F04F00EB8108444985B01746824608
:1098B00040F2FF19D04501D1002021E0DAF8000084
:1098C000C0F3C72B1BF0080BC0F3C323C0F308047D
:1098D00071D13B4A4C4508BF4FF0FF34B0F1E06F07
:1098E000D55C4FEA106307D2013B052B0BD8DFE8AC
:1098F00003F01A205C23585C4E2B59D06FF0850082
:1099000005B0BDE8F08FC7F80C45621C46D003A82F
:109910000394FFF7B5FF039B012606FA03F3C0F893
:109920000835304618E0C7F81445631C36D00026C9
:10993000F7E7C7F80845E8E7C7F808450026601CC0
:109940002CD003A80394FFF79BFF039B84460120C0
:1099500000FA03F3CCF80C35DAF80030019303F485
:10996000004CBCF1000F08BF834603A818BF0126B6
:109970000394FFF785FF039C019B00EB8400C3F376
:10998000412CD0F800472B0243EA8C0343EA0B0337
:109990000C40234343EA4603C0F800370AF1040AA7
:1099A00088E7C7F80C450126C9E7C7F81045BCE7AA
:1099B000C7F81445A9E76FF01500A1E7F0F8FCFF20
:1099C0001F0A03002DE9F041044647680D4606F0E2
:1099D000BCF888B14FF02008EFF31186314688F3C8
:1099E0001288BFF36F8F606805F09DF950BB86F356
:1099F0001188BFF36F8FEFE71F4B1B78002BE9D067
:109A00004FF020086426606805F08DF970B90120D8
:109A100005F0B9FA013EF6D10021212006F057F9F0
:109A2000F0E786F31188BFF36F8FF5E7EFF3118648
:109A3000314688F31288BFF36F8F606805F073F9C1
:109A40000028EED0BB691D706368BA691B680020EE
:109A5000C3F844250122C3F84825C3F82001D3F8F0
:109A60002041C3F85801D3F858019A6081F3118856
:109A7000BFF36F8FBDE8F081C10C002070B50123EA
:109A800083400F4ABFF35B8FDC4352E8001F01EABB
:109A9000040542E80056002EF7D1BFF35B8F4FF468
:109AA000803282400748C0F80823BFF35F8FBFF3BE
:109AB0006F8F03EA0100003818BF012070BD00BF9E
:109AC000280C00200010014011B3BFF35B8F01236D
:109AD000104A834052E800CF4CEA030C42E800C130
:109AE0000029F7D1BFF35B8F0B4A4FF480338340DB
:109AF000C2F80433094BBFF35B8F1B68BFF35B8F66
:109B0000C340DB0742BF064B4FF40032C3F80021CD
:109B1000704700BF280C002000100140240C0020DA
:109B200000E100E00D4B1868010A0006BFF35F8FEB
:109B30000B4BD3F80435181841F10001B3F5801F21
:109B40000AD2084BD3E90023904271EB030303D2FE
:109B500010F1807041F10001704700BF300C00200F
:109B600000100140580600202DE9F04F85B0164640
:109B70001F469DF840A00446FFF780FF0190FFF7C5
:109B8000D1FFB04271EB07035ED23E4B301A67EB58
:109B90000101984271F1000109D36FF015052046CB
:109BA0000199FFF791FF284605B0BDE8F08F364BCD
:109BB00003EB0413D3E902239F4208BF964254D01B
:109BC00032494FF4803804F1500508FA04F8AD002A
:109BD000C1F848832046ADB205F0B9F926F07F4BB5
:109BE00005F1804504F5A87305F58835DC464FF08E
:109BF00003090293029A2CF07F4341F82230C1F806
:109C00004483D1F80435224A6FF00200C01A604440
:109C100020F07F40904228D9286868B1D1F80435F7
:109C20000393A3EB0B0020F07F40B0F5000F1CD98D
:109C3000204605F08CF9039BBAF1000FADD109EB7A
:109C4000030C09F10109D5E7BAF1000FA5D10123F1
:109C5000104ABFF35B8FA34052E8000F184342E85D
:109C600000010029F8D1BFF35B8F07490E9823014B
:109C700001EB0412C8500F9B5360C2E90267002534
:109C80008DE700BF01008000400600200010014069
:109C9000FDFF7F00240C00207FB51C4C1C4BC4F83A
:109CA0000833C4F848331B4B00254FF0FF304FF00A
:109CB000FF31C4F80855C3E902014FF48033C4F8FA
:109CC0000433154B02264FF400320121C4F804631B
:109CD0001120C3F880212A46FCF7AAFE1120FCF7C8
:109CE00077FE0E4A0123A360236013600C4B0D4ADC
:109CF0000093CDE9015500232846FFF735FF304694
:109D0000FFF7B0FB284604B070BD00BF0010014053
:109D100003000F004006002000E100E0280C0020B6
:109D2000299D0200FFFF7F00D0B522F07F44FFF79E
:109D3000F9FE134AD2E90031C01AC31841F10001FB
:109D4000C2E900310F4B00221A60A4F50013B3F5ED
:109D5000400F09D20C4B1B681A0A1B061E190B4B2D
:109D600042F10007C3E90067EFF31181202383F379
:109D70001288BFF36F8FBDE8D04002F08FB800BFEC
:109D8000500600202C0C0020300C0020580600202B
:109D90002DE9F7432E4CD4F8043399070BD5D4F8AA
:109DA000043143B12B4A0023C4F80431D4F8043100
:109DB000136801331360D4F80433DA0343D5BFF3D7
:109DC0005B8F254B53E8002F22F0010143E8001080
:109DD0000028F7D1BFF35B8FD30702D4D4F840310A
:109DE0008BB30025C4F84051D4F84031FFF79AFEF8
:109DF000EFF31182202383F31288BFF36F8F174B89
:109E0000D3E90267B042B94120D34FF0FF304FF0A1
:109E1000FF31C3E90201D3E900981D604FF480339C
:109E2000C4F84833C4F84051D4F8403182F3118863
:109E3000BFF36F8FB9F1000F05D0CDF80080324627
:109E40003B460020C84703B0BDE8F083A946EDE7D4
:109E500000100140300C0020240C0020400600209F
:109E600030B5104B1B680021181841EB01040E4B54
:109E7000B0F5000F74F10005D3E9002385B00BD2D3
:109E8000821844EB0303CDE9011108490091002039
:109E9000FFF76AFE05B030BD0548121843F1000314
:109EA000F1E700BF2C0C002050060020299D020085
:109EB000FFFF7F0008B5FFF735FE034B1B68C01A94
:109EC000024B186008BD00BF500600202C0C00207B
:109ED000BFF34F8F0549064BCA6802F4E062134393
:109EE000CB60BFF34F8F00BFFDE700BF00ED00E088
:109EF0000400FA05024AD2F80034002BFBD0704768
:109F000000E0014010B54FF08053D3F83021082A0B
:109F10004ED14FF080420021C2F80C11C2F810114E
:109F2000C2F8381502F54042D3F80414C2F82015DF
:109F3000D3F80814C2F82415D3F80C14C2F8281565
:109F4000D3F81014C2F82C15D3F81414C2F8301535
:109F5000D3F81814C2F83415D3F81C14C2F84015FD
:109F6000D3F82014C2F84415D3F82414C2F84815C5
:109F7000D3F82814C2F84C15D3F82C14C2F8501595
:109F8000D3F83014C2F85415D3F83414C2F860155D
:109F9000D3F83814C2F86415D3F83C14C2F8681525
:109FA000D3F84014C2F86C15D3F84434C2F87035B5
:109FB00004F0D9FF18B13C4B3C4AC3F88C2604F09E
:109FC000D2FF18B13A4BFB22C3F8182504F0CBFF9F
:109FD00058B14FF080424FF08051D2F8E43ED1F8B2
:109FE000581261F30303C2F8E43E04F0BCFF20B151
:109FF000304B4FF40072C3F840264FF08053D3F833
:10A000003031082B17D14FF08043D3F80024D2070A
:10A0100044BF6FF00102C3F800244FF08053D3F81F
:10A020003431042B81BF4FF01023D3F808224FF0B6
:10A030008043C3F858254FF01021D1F80C32DB07CC
:10A0400014D51D480123C0F80435FFF753FFD1F89C
:10A050000C3223F00103C1F80C32FFF74BFF002351
:10A06000C0F80435FFF746FFFFF732FFD1F80032A2
:10A07000002B03DBD1F80432002B14DA0E49012344
:10A080004FF01020C1F804351224FFF733FFC0F859
:10A090000042FFF72FFFC0F80442FFF72BFF002319
:10A0A000C1F80435DEE710BD0050004048810300D0
:10A0B00000F000400090024000E00140014B1860B9
:10A0C000704700BF340C002010B5054B18681446CB
:10A0D00004F05BFF0028A4BF2070002010BD00BF6B
:10A0E000340C0020024A01238340C2F80435704733
:10A0F00000F00140014B00201B681847380C00207D
:10A10000014B1B68184700BF380C002010B50C4CE1
:10A11000237993B9012323710A4B2060002818BFCB
:10A12000184600F04BF850B923680748002BBDE8EB
:10A13000104008BF184600F091B86FF0770010BDCE
:10A14000380C0020F5A0020001A1020008B5064B62
:10A150001B682BB10020FCF75DFC08B9FCF738FC4C
:10A16000024B01221A7008BD380C0020BF0C0020E1
:10A1700038B54FF080440123C4F8083363600023EE
:10A18000C4F80031D4F8003142F21075D4F80C2430
:10A19000D4F80C34D20307D5DB0705D5012004F031
:10A1A000F2FE013DF2D138BD04F055FF0028FAD08F
:10A1B000014B00225A71F6E7400C002010B5084907
:10A1C0000C794CB9012308600B7104F044FF08B905
:10A1D000002010BD4C71FBE76FF07700F9E700BF7E
:10A1E000400C00204FF080430022C3F80021D3F838
:10A1F0000021094901221A60096811B1C3F804233A
:10A200007047D3F80021002AFBD00022C3F80021B8
:10A21000D3F80031704700BF400C002010B54FF05C
:10A220008043D3F80423D20715D5D3F8002192B187
:10A230000022C3F800210121D3F80021C3F808133C
:10A2400004F009FF044B10B15A7922B95971BDE8E5
:10A2500010401B68184710BD400C0020074A1379B6
:10A2600043B90121106011714FF080421846C2F8C5
:10A27000183570476FF07700704700BF480C00201A
:10A2800010B54FF080431D4CD3F81814D3F81824A0
:10A2900011F4803F1AD002F00302012A01D092B9D2
:10A2A00000224FF08043C3F818250022C3F8042190
:10A2B000D3F8042101229A6022688AB9D3F80421D4
:10A2C000002AFBD014E004F0D7FEE9E7D3F8142409
:10A2D000D107E5D5D3F81C249207F4D422681AB12B
:10A2E0000222C3F8042310BDD3F80421002AFBD0B6
:10A2F0000022C3F80421D3F80431F4E7480C00200D
:10A30000F8B54FF08043194FD3F80443012504F00A
:10A310001A04002604B9F8BDB4FA84F0C0F11F0095
:10A32000830003F580739BB203F1804305FA00F2CA
:10A33000196892B224EA02040029EBD01E601B685F
:10A340004FF08043022AC3F808230BD1D3F8181426
:10A35000D3F81814890705D1C3F81855C3F8042396
:10A360009D60D7E73B68C0B29847D3E7480C002010
:10A37000036803F01F025B09026004D0012B03484D
:10A3800018BF002070474FF0A040704700030050F6
:10A39000034A430900F01F00D35C1844C0B2704761
:10A3A000270A0300024611F0010030B515D18B07D2
:10A3B000C1F3400022D51249D1F8200550604FF07A
:10A3C0008052C1F82005D2F83021082A08BFD1F800
:10A3D0002025003818BF012010E04FF0A0444FF0B6
:10A3E0008055D4F820351360C4F82035D5F83051A5
:10A3F000082D08BFD4F82045002BD8D030BD00BFB1
:10A4000000030050F7B504460846FFF7C1FF04EB10
:10A4100040060D46B38ADB072AD5204604F02FFFFD
:10A420002946204604F09BFE50B1204604F0ADFEC4
:10A43000276807EB80000023C0F81035C0F81035FE
:10A440002946204604F0CAFE0021B18201A80195E8
:10A45000FFF78EFF019B00EB8300074BD0F800272E
:10A46000134043F00203C0F80037084603B0F0BDC4
:10A470006FF01500FAE700BFF0F8FCFF014804F0A8
:10A48000A2BD00BF7803002010B504480C4604F0BC
:10A490007CFD0028A4BF2070002010BD78030020A0
:10A4A0002DE9F04F074689B057F8049BD9F80413FB
:10A4B000C9B28346082241F00041484604F0B7FE85
:10A4C000051E2FDA0023032106A8CDE90633FFF786
:10A4D00069FF634B01930DF118084FF0000A019AD0
:10A4E000604912F8013B0192DA0803F007038A5C25
:10A4F00022FA03F3DB071CD40AF10103022B08F153
:10A5000004084FF0010AEAD14FF00041002248460A
:10A5100004F08DFE032106A8FFF744FF0028D8D1E0
:10A5200025F000450124002D40F0848009B0BDE8ED
:10A53000F08F4D4B53440293D8F80060002EDBD0CF
:10A54000029B96FAA6F61C78B6FA86F646EA4414FA
:10A550002046FFF71DFF0BEB4000F208818A18F838
:10A5600002000594C1F382030393009306F00706EB
:10A57000012303FA06F620EA060008F8020005A8FF
:10A58000FFF7F6FE059A039B02F5E07211F0100F3B
:10A5900050F82260C6F3014633D0009A384621466F
:10A5A00004F0FDFD05A80594FFF7E2FE059B03F509
:10A5B000E073F6B250F82330C3F301439E4207D153
:10A5C0000021204604F0BCFD3146204604F0B8FDD1
:10A5D00005A80594FFF7CCFE059B012202FA03F3C0
:10A5E000C0F820354FF08053D3F83031082B01BF2D
:10A5F000D0F82035D0F82035D0F82035D0F82035E7
:10A600009AE7022E14BF022103212046039304F08F
:10A6100097FD039B032B03D0022E07D1012BD7D12B
:10A62000009A2146384604F0BAFDD1E7032ECFD177
:10A63000022BF4E795FAA5F3B3FA83F304FA03F2D5
:10A6400025EA020503F5A2720BEB430359F8222019
:10A65000B3F87C10C2F30142384604F0A0FD62E773
:10A66000370A0300B8040300370A030010B5174C7B
:10A6700023783BBB0278C2F3400392070FD54FF01B
:10A680008053D3F83021082A08D1D3F83431022B73
:10A6900002BF4FF080430122C3F8382601234FF058
:10A6A0008042C2F88035037803F00103C2F87835A0
:10A6B0000020FCF7AFF908B9FCF78AF901232370F1
:10A6C000002010BD6FF07700FBE700BFC00C00203A
:10A6D0004FF080434FF46072C3F80823014B00220F
:10A6E0001A607047500C002008B5FFF7F1FF0368AF
:10A6F0000BB1014A136008BD500C002010B54FF09B
:10A700008043D3F80443620707D54FF4847004F004
:10A710008DFF10B11E4B1B689847A30608D54FF458
:10A720008A7004F083FF18B11A4B00201B68984709
:10A73000600608D54FF48C7004F078FF18B1154B03
:10A7400001201B689847210608D54FF48E7004F04D
:10A750006DFF18B1104B00201B689847E20508D523
:10A760004FF4907004F062FF18B10B4B01201B688E
:10A770009847A3050AD54FF4927004F057FF28B10B
:10A78000054BBDE810401B680220184710BD00BFF4
:10A79000580C0020540C0020500C002038B5EFF36A
:10A7A0001185202383F31288BFF36F8F064B9C68BB
:10A7B00004F08CFF85F31188BFF36F8F2046BDE84E
:10A7C0003840FCF7DDB900BF5C0C002038B50A4BFF
:10A7D00053F82040013053F82050A54200D838BD2E
:10A7E000606830B1037EDB0701D404F044FF083415
:10A7F000F3E723689847FAE7BC04030070B52D4BD4
:10A800002D4C2E4D012286B01A70AC421CD3032071
:10A81000FFF7DCFF0420FFF7D9FF294C294D26461E
:10A82000AE4204F1300413D301F05CF9244CAC4285
:10A830002AD301F06BF9FBF76DFC234A938923F0CF
:10A840000103938106B070BD54F8043B9847DCE7E0
:10A8500054F80C3C059354F8103C049354F8143C01
:10A86000039354F8183C029354F81C3C019354F899
:10A87000203C009354E90A2354E90C0100F0C0FD88
:10A8800054F8303C5E65CAE7D4E90A23B3F1FF3FD0
:10A8900008BFB2F1FF3F05D052EA0301206803D19F
:10A8A00000F00AFE3034C2E70849183001F006FA19
:10A8B000F8E700BFC10C00209C020300A0020300C7
:10A8C000A0020300A0020300E80600205DFC0200D5
:10A8D00070B5164E164D1749882386B003FB0066E7
:10A8E00001220023CDE904230F22CDE90232019396
:10A8F000142303FB005504464FF4C07000FB041101
:10A900000D4B00954FF4A072304600F079FD337C7A
:10A910000A4AEE6023F0040333744FF4046304FB2B
:10A92000033313442C746B6006B070BD60060020C6
:10A930005C0C0020C01B002053F802008013002094
:10A940007FB50020FFF742FF2C4B83F308882C4C87
:10A950002C4D636943F400736361E02384F8223073
:10A960000023E37723766376A37684F82030626A47
:10A9700042F4E022626284F82330FBF7E5FFFCF743
:10A98000E9F84FF0FF33A362E362FCF705FAFCF746
:10A9900061F91D481D4C00F083FDAC422AD3012013
:10A9A000FFF714FF0220FFF711FF01F093F8184B97
:10A9B000184C5C61184B059300250123174900953D
:10A9C0004FF48062CDE90353CDE90155144B204685
:10A9D00000F016FD237C064623F004032046237472
:10A9E00005F015F92846FFF773FF0D4A314620465A
:10A9F000FCF792F854F8043B9847CEE7C01B0020C0
:10AA000000ED00E09C0203007007002094020300A8
:10AA10005C0C0020E8060020BA090300401D00205D
:10AA2000FDA7020038B5064C064DAC4200D338BD38
:10AA3000D4E90112204604F08EFE1434F5E700BF7D
:10AA4000140400202804002030B585B0DDE9084555
:10AA5000034B0293CDE9004504F03BFE05B030BD49
:10AA600085C7020038B5064C064DAC4200D338BD50
:10AA7000204604F094FE0028F9D11C34F5E700BF0D
:10AA8000F80300201404002073B50C46EFF3118185
:10AA9000202585F31288BFF36F8FC5685DB12560EF
:10AAA0002B68C360836901338361002081F31188BF
:10AAB000BFF36F8F11E052EA030603D125606FF0F8
:10AAC0000B00F3E7CDE900230246083000F014FF45
:10AAD00018B9034B9B685B69236002B070BD00BF6F
:10AAE0005C0C0020F7B50D4604469DF82010EFF3EE
:10AAF0001187202080F31288BFF36F8F266AE068E9
:10AB0000864240D22668B4421AD0CEB1304604F014
:10AB1000ABFE06F1180001F069F954F8082F7069CE
:10AB20002946002505F0F0F93046C6F8805005F0BA
:10AB30007DF82046394605F0A6F8284603B0F0BD5A
:10AB4000A268A9B1E069294605F0DEF9E369A268C7
:10AB500013446269E361934201D12369E361236A8B
:10AB600001332362002087F31188BFF36F8FE5E77D
:10AB7000A0692369984208BF6069801AA0612946CC
:10AB800005F0C2F9EBE752EA03010BD007498968E7
:10AB900004F108004D61CDE900233946224600F05A
:10ABA000ABFECBE76FF02200DDE700BF5C0C0020BE
:10ABB000F7B504460846EFF31186202181F3128889
:10ABC000BFF36F8F216A00293BD0A268A16905F00D
:10ABD0009BF9A369A268256813446269A361934243
:10ABE00004BF2369A361236AAC4203F1FF332362EC
:10ABF00036D02846002D34D004F036FE05F118007A
:10AC000001F0F4F86969A268E06905F07DF9E3698B
:10AC1000A26813446269E361934204BF2369E3615C
:10AC2000236A0027013323622846C5F8807004F0A8
:10AC3000FDFF04F10800314605F025F8384603B061
:10AC4000F0BD52EA030111D00A4989684861CDE993
:10AC500000233146224604F1080000F04DFEEEE7E5
:10AC6000002086F31188BFF36F8FE8E76FF02200B2
:10AC7000F7E700BF5C0C00202DE9F34104461746BE
:10AC80001E46EFF31188202383F31288BFF36F8FE2
:10AC9000304BC2689B6872B18068984217D057EAFF
:10ACA000060216D188F31188BFF36F8F6FF00F0083
:10ACB00002B0BDE8F08193F90E1021610132C4E9C0
:10ACC000023288F31188BFF36F8F0020F0E721690B
:10ACD000F3E793F90E1090F90E30994230DA994269
:10ACE000A8BF194604F0D4FD0546CDE900761A4800
:10ACF0002246414600F000FE0028E6D0EFF3118620
:10AD0000202383F31288BFF36F8FA068D0B123682C
:10AD100021699C420AD04BB193F90E309942A8BFE9
:10AD200019466FF07F039942B8BF194604F0B0FD91
:10AD300040B10948314604F0A6FF6FF00A00B7E7BA
:10AD40000025D2E7002DF4D186F31188BFF36F8F71
:10AD5000F3E700BF5C0C0020C20C0020F8B583684C
:10AD60000546002B40D0234A926893423FD1C368E6
:10AD7000012B03D9013BC3600020F8BDEFF311871D
:10AD8000202383F31288BFF36F8F0169806804F07A
:10AD90007FFD2C68A54207D10023C5E9023387F364
:10ADA0001188BFF36F8FE7E7002CF5D0D4E90032AC
:10ADB00013605A60237C002623F002032374C4E945
:10ADC0000066A66004F1180001F010F8AC6094F978
:10ADD0000E302B612046C4F8806004F027FF06483F
:10ADE000394604F050FFC7E76FF01500C5E74FF094
:10ADF000FF30C2E75C0C0020C20C002073B5154682
:10AE0000EFF31186202282F31288BFF36F8F04685C
:10AE1000B4B12368426823F00303944208BF43603F
:10AE2000036023689B0704D02046656805F059F845
:10AE30002C4686F31188BFF36F8F204602B070BD99
:10AE400055EA0302F5D000F10802CDE9005331467E
:10AE5000104600F051FD0028EFD1024B9B685C6961
:10AE6000EBE700BF5C0C002070B5EFF311862023E8
:10AE700083F31288BFF36F8F0468A0421CD0DCB14B
:10AE8000D4E9003213605A60237C002523F00203CA
:10AE90002374C4E90055A56004F1180000F0A6FF72
:10AEA0002046C4F88050656104F0C0FE3146084871
:10AEB000BDE8704004F0E7BED0E902329A4218BF04
:10AEC0000133836086F31188BFF36F8F70BD00BFBD
:10AED000C20C002013B5EFF31181202484F31288F3
:10AEE000BFF36F8F846844B1013C846081F31188A3
:10AEF000BFF36F8F002002B010BD52EA030406D1E9
:10AF000081F31188BFF36F8F6FF00F00F3E7CDE986
:10AF100000230246014800F0EFFCECE7C20C0020E1
:10AF2000F8B50546EFF31187202383F31288BFF3AA
:10AF30006F8F00232C68A5421AD0CCB1D4E900321F
:10AF400013605A60237C002623F002032374C4E9B3
:10AF50000066A66004F1180000F048FF6FF00A03D5
:10AF6000C4F880306661204604F060FE0123E1E70A
:10AF70000022AA602BB139460448BDE8F84004F02D
:10AF800082BE87F31188BFF36F8FF8BDC20C00201B
:10AF90002DE9F04FDFF89C8185B004464FF0FF3675
:10AFA0004FF0FF37EFF31189202383F31288BFF3AB
:10AFB0006F8FD4F88C5065BB022104F1A40004F01B
:10AFC00024FD002800F0848004F19C0BD4F89C50F0
:10AFD0005D4500F08A80002D00F08780D5E90032C1
:10AFE00013605A602B7C4FF0000A23F002032B748D
:10AFF000C5E900AAC5F808A005F1180000F0F6FEA2
:10B000000123C5F88030C5F814A0284604F00EFED0
:10B01000DCE7D4F890202B68C4F88C30954208BF48
:10B02000C4F89030D4F8A43043F00203C4F8A4303C
:10B03000EB6823F0040343F00103EB606B6889F3D2
:10B040001188BFF36F8F28469847EFF311892023AB
:10B0500083F31288BFF36F8FEB68D80623F00102E9
:10B060004ED4EA60EB689A071BD5D8F8000023F0AD
:10B070000203EB60A8B10268002190B143689D42D1
:10B080004ED10368002943D1D8F80420C8F8003015
:10B09000904201D1C8F80430002340F8083BFFF784
:10B0A000E3FED4F8A43023F00203C4F8A430DB0597
:10B0B0003ED4D4F88C30003B18BF012389F31188AB
:10B0C000BFF36F8F002B3FF46DAF04F066FD69E7AF
:10B0D000D4F8A430D90608D5C4F8A40089F311889F
:10B0E000BFF36F8F05B0BDE8F08F0023CDE9006797
:10B0F000029304F1940249460F4800F01DFD51E708
:10B1000023F01103EB6005F11000FFF7ADFEA9E796
:10B110000B60D8F80430984208BFC8F80410BBE7A9
:10B1200001461AB1136810461A46A6E71346FAE715
:10B130000023C3E77C0C0020C20C0020F8B5C368D4
:10B140009A0704460E46C3F3400542D45F0742D433
:10B150000B680BB983680B60E368D80744BFA3682A
:10B16000336037684CBF0225012557B31B4B9A68E3
:10B17000D7F888309A421ED104F0E7FC80F0010035
:10B18000C0B2D7F8A430D907C3F380021CD5F2B1FE
:10B19000F8B100232360D7F8903073B9C7E923448E
:10B1A000384604F05CFCE36843F00403E360336872
:10B1B000A3602846F8BD0020E3E71C60C7F8904074
:10B1C000EEE76FF0150506E06FF0120503E01B07D0
:10B1D000DFD56FF00F0500233360EAE75C0C002039
:10B1E0000146014804F095BC18080020F0B589B06C
:10B1F00004460020C4E923000E9D04F19400C4E934
:10B20000250004F19C00C4E9270055B328790028E3
:10B2100040F2011008BF0120C4F8A40000204FF044
:10B22000FF364FF0FF37CDE90330CDE90100CDE91E
:10B2300006670D4B0094204600F062F955B129686D
:10B2400011B1204604F087FC6B791BB1A38943F050
:10B250000103A381204600F02FF9C4F8884009B00B
:10B26000F0BD0120D8E700BF91AF020037B50190D3
:10B270000846EFF31184202181F31288BFF36F8F0A
:10B28000C16811F01E0F16D153EA020508D101A9B9
:10B29000FFF754FF84F31188BFF36F8F03B030BD05
:10B2A00041F00801C160019981620449103000F049
:10B2B00005FD0120EEE70020ECE700BF9FFA020049
:10B2C00001460148FFF7D2BF18080020F0B585B04D
:10B2D0000C46019017461D46EFF31183202181F3A0
:10B2E0001288BFF36F8F03A92046039304F098FBE5
:10B2F00055EA0703039E09D101A92046FFF71EFF67
:10B3000086F31188BFF36F8F05B0F0BDE36807497E
:10B3100043F00803E360019BA3623A462B4604F125
:10B32000100000F0CBFC0120EAE700BF9FFA02000A
:10B3300001460148FFF7CABF180800202DE9F04177
:10B340000746EFF31188202383F31288BFF36F8F32
:10B3500000263C68A74218D0BCB1D4E90032136083
:10B360005A60237C002523F002032374C4E90055AE
:10B37000A56004F1180000F039FDC4F88050656143
:10B38000204604F053FC0136E3E736B988F3118810
:10B39000BFF36F8F3046BDE8F0810248414604F0AC
:10B3A00072FCF7E7C20C00202DE9F3411C4652EA7B
:10B3B000040307460D4616461CD0EFF311882023E0
:10B3C00083F31288BFF36F8F0846FFF7C7FCCDE900
:10B3D00000643A464146094800F08EFA04464FF0B0
:10B3E000FF324FF0FF332846FFF746FC204602B0FD
:10B3F000BDE8F0816FF00A04F8E700BFC20C00203E
:10B400002DE9F043073285B01F4622F0070200F114
:10B410005803C0E916337F32109B838100250E4606
:10B4200022F03F020F9981730423C0E906550446B8
:10B4300085600374C573002100203F2AC4E90A0116
:10B4400006F14009A2F1400805D885F31188BFF341
:10B450006F8F184602DFB51829462046FBF760F8C3
:10B4600007300E9B20F007002067C4E91A9802936A
:10B470000D9B01932D1A0C9B00932A463B463146A7
:10B480002046FBF717FB00236365044B9B6803B161
:10B490005B6F6367284605B0BDE8F0835C0C002055
:10B4A0000123037483810023C0E91A334367014BEE
:10B4B000986070475C0C002038B50446EFF31185A6
:10B4C000202383F31288BFF36F8F037C5B070FD5B4
:10B4D000183000F08BFC237C23F0040320462374F7
:10B4E00004F0A4FB29460548BDE8384004F0CBBB76
:10B4F00085F31188BFF36F8F38BD00BFC20C0020E9
:10B50000F0B587B000250595109D04950F9D039516
:10B510000E9D0295DDE912760D9D01950C9D00951D
:10B520000446FFF76DFFB6F1FF3F08BFB7F1FF3FDD
:10B5300005D056EA070305D12046FFF7BDFF204698
:10B5400007B0F0BD3A46334604F11800014900F057
:10B55000B5FBF4E75DFC02000A4A93686FF00A014C
:10B56000C3F880100849D8674B6843F080534B609C
:10B57000002383F31188BFF36F8F9368D3F88000A3
:10B58000704700BF5C0C002000ED00E038B590F97A
:10B590001020037C002A014604DA03F07F030374C1
:10B5A00004F0FDFA0D4D2A46AB6852F8184F94424C
:10B5B00000D004B9EC688B4207D01A7CD20604D1C3
:10B5C000DA897F2A01D9A2692AB1A34202D0204692
:10B5D00004F0CAFB23466B6138BD00BF5C0C002041
:10B5E00070B590F91020037C002A2FDBD9062DD1ED
:10B5F0001A4C63F07F032246037452F8183FE16946
:10B60000934207D1C0E900210860E0610FE0994250
:10B61000F8D01B68002BF5D093F90E6090F90E500E
:10B62000AE42F4DD5968C0E9003108605860A56990
:10B63000954200D005B9E568A3681A7CD20606D108
:10B64000DA897F2A03D9AA690AB9636170BDAB425E
:10B6500002D0284604F088FB6561F7E75C0C002007
:10B66000034648B9EFF3058232B9064A5169926838
:10B67000914201D0FFF770BF83F31188BFF36F8F42
:10B68000704700BF5C0C002038B5184CA168E06919
:10B690000B68814214BF1A46002249680B6059604A
:10B6A000A368E1692AB9124AC3E900210B60E3618A
:10B6B0000AE092F90E5093F90E00854212DD5168AE
:10B6C000C3E900210B605360A569094B9D4200D07E
:10B6D00005B9E568A3689D4202D0284604F044FB02
:10B6E000656138BD8A42DED01268DBE75C0C002061
:10B6F000740C00202DE9F843002A027C0CBF4FF0A7
:10B7000010084FF0080818EA020F04460D4662D1EF
:10B7100048EA0203D2090CD10374B8F1080F7BD1B7
:10B72000A36813B1204604F042FA04F1180620275A
:10B730000FE003F07F03037404F031FAEDE785F3C3
:10B740001188BFF36F8FEFF3118587F31288BFF372
:10B750006F8F304600F04AFB0B30F0D0A66D04F13D
:10B760005807B74211D04FF0000976B1304604F0C7
:10B770001EFAC6F8809006F1180000F037FB30463C
:10B78000FFF72EFFA66DB742EFD1274B9B689C4277
:10B7900042D1EFF30587003F18BF0127DFF88890FB
:10B7A0004B4653F8186F9E4200D00EB9D9F80C6082
:10B7B000D9F80830B34202D0304604F0D5FAB8F1D7
:10B7C000100FC9F8146006D0204601F066FA17B1D0
:10B7D0001648FFF765FE144B9B68A3421ED1EFF39A
:10B7E0000583DBB9A289D20711D585F31188BFF390
:10B7F0006F8F83F31188BFF36F8F0423184602DF26
:10B80000EFF31185202383F31288BFF36F8F28464F
:10B81000BDE8F843FFF7A0BE0027BFE785F3118816
:10B82000BFF36F8FBDE8F8835C0C00207007002029
:10B8300070B50F4D2B46064653F8184F9C4200D06A
:10B8400004B9EC68AB681A7CD20604D1DA897F2A85
:10B8500001D9A2692AB1A34202D0204604F084FA99
:10B8600023466B613046BDE87040FFF7F9BE00BF6C
:10B870005C0C002070B5EFF31186202383F312884F
:10B88000BFF36F8F1A4CA168E0690B68814214BF47
:10B890001A46002249680B605960A368E1692AB919
:10B8A000144AC3E900210B60E3610AE092F90E50EB
:10B8B00093F90E00854216DD5168C3E900210B6043
:10B8C0005360A5690B4B9D4200D005B9E568A3689C
:10B8D0009D4202D0284604F047FA65613046BDE833
:10B8E0007040FFF739BE8A42DAD01268D7E700BF4E
:10B8F0005C0C0020740C0020F8B5124B0C4611466D
:10B90000114A98681060DDE90676EFF31182202273
:10B9100082F31288BFF36F8F9D68284604F051F9B7
:10B92000B6F1FF3F08BFB7F1FF3F06D007493A46DF
:10B93000334605F1180000F0C1F92046BDE8F84093
:10B94000FFF70ABE5C0C0020840C00205DFC0200A6
:10B95000F8B50446EFF31187202383F31288BFF371
:10B960006F8F037C03F01F02002A0CBF0126002604
:10B9700049B235D103F07F03037404F010F9294D67
:10B98000037C817363F07F032A46037452F8183FE7
:10B99000E869934207D1C4E900200460EC610DE03E
:10B9A0009842F8D01B68002BF5D093F90EC08C4557
:10B9B000F6DD5968C4E900310C605C60AC69944202
:10B9C00000D004B9EC68AB689C4202D0204604F079
:10B9D000CBF96C6187F31188BFF36F8F3046F8BDE8
:10B9E0009B071CD5856804F0DAF881732B689D42AB
:10B9F00009D16B68C4E900531C606C60EAE76A68AF
:10BA00009A42F6D01B68002BF3D093F90E208A429D
:10BA1000F5DD5A68C4E9003214605C60DAE78173CE
:10BA2000D8E700BF5C0C0020034648B9EFF305825D
:10BA300032B9064A51699268914201D0FFF78CBD34
:10BA400083F31188BFF36F8F704700BF5C0C002039
:10BA5000F8B550EA010305460C4603D104F09DF801
:10BA60000020F8BDEFF31187202383F31288BFF382
:10BA70006F8F144E144BB068186004F0D9F8B0689A
:10BA800012492A462346183000F018F9B3681A7C88
:10BA9000DF6742F004021A746FF00A02C3F88020D4
:10BAA0000B4A536843F0805353600446002383F3EA
:10BAB0001188BFF36F8F04F05EF9201A20EAE0705E
:10BAC000CFE700BF5C0C0020840C00205DFC02006E
:10BAD00000ED00E0024B03F11802C3E906227047B3
