:020000022000DC
:10600000802F0020457D0200D9FC0200317D020076
:10601000317D0200317D0200317D02000000000070
:106020000000000000000000000000007D7D020074
:10603000317D0200000000007D7F0200317D020002
:10604000F57F0200F57F0200F57F0200F57F020078
:10605000F57F0200F57F0200F57F0200F57F020068
:10606000F57F0200F57F0200F57F0200F57F020058
:10607000F57F0200F57F0200F57F0200F57F020048
:10608000F57F0200F57F0200F57F0200F57F020038
:10609000F57F0200F57F0200F57F0200F57F020028
:1060A000F57F0200F57F0200F57F0200F57F020018
:1060B000F57F0200F57F0200F57F0200F57F020008
:1060C000F57F0200F57F0200F57F0200F57F0200F8
:1060D000F57F0200F57F0200F57F0200F57F0200E8
:1060E000F57F0200F57F0200F57F0200F57F0200D8
:1060F000F57F0200F57F0200F57F0200F57F0200C8
:1061000010F8012B11F8013B012A28BF9A42F7D061
:10611000D01A7047034613F8012B002AFBD1181A36
:106120000138704737B529490446294809F011FF5D
:10613000034638B1274A2848012109F0FCFC002019
:1061400003B030BD2549224809F003FF034608B1DA
:10615000234AF0E723491E4809F0FBFE034608B135
:10616000214AE8E721491A4809F0F3FE034608B13D
:106170001F4AE0E701461F4A154803F0E3FB0146CA
:1061800028B11D4A1448012109F0CCFCD7E71B4B6C
:106190000F48012203F020FD014608B1184AF1E73B
:1061A00001250B4800950223EF2209F038FE08482C
:1061B000294609F058FE0CB90548C1E704482146B4
:1061C0000AF067F90028F7D00E4ADBE7E401002067
:1061D00068060020DA300300682E0300CC0100209E
:1061E00008310300B40100203A3103009C01002073
:1061F00067310300700100208F310300882E0300F7
:10620000B6310300D531030008B5FFF78BFF40B16D
:10621000064802F0BDF930B1054A0648012109F0EF
:1062200081FC002008BD0148FCE700BF6806002093
:10623000F9310300682E0300F0B583B00B780B2B07
:1062400096BF314A314B52F8233000AF6E4688B0CA
:1062500005460C466A462E49CDE905134FF40073F6
:10626000ADF81C302B4B42F8103F2B4800234FF465
:10627000E65100F0C3FF2846B54609F009FEB0B16B
:10628000237843B9284602F0BBF920B1234A2248BB
:10629000012108F0D7FB2678012E08D1284602F00C
:1062A00003FA20B11E4A1C48314608F0CBFB237884
:1062B000092B0DD1002360687B6083689B6C13B150
:1062C0003A1D042198477B6813B1164806F076FF03
:1062D0002378082B0DD1606883689B6C63B13A1DED
:1062E00001219847034650B10F4A02210A4809F09C
:1062F00022FC0C37BD46F0BD6FF05703F4E77B6816
:106300000A4A0321F2E700BF902E03004432030043
:106310004632030003000001982D030057320300AA
:10632000773203001006002098320300BC320300CD
:106330002DE9F041434F444E90B00446A368DB6B17
:106340000BB120469847A3689B6B002B77D0204663
:106350009847002873DD3B78002B30D1A368DB6AB7
:106360004BBBB289B3889B1A32699BB2D21A3F2ABF
:1063700036D94022A3681B69002B3BD1334A3448ED
:10638000012108F05FFB00252A466946304609F0E6
:10639000E2FAA842804605DA2E4A2B1A01212C483F
:1063A00009F0C9FBB8F1000F09D0A3685B6933B1EC
:1063B0002046984703E0204698470028D1D1A3689B
:1063C000DB69EBB940226946304609F0E4FA05463C
:1063D000D8B9A3689B69002BB0D020469847ADE799
:1063E000002AC7D1A3685B6A0BB1204698470123F6
:1063F0003B70A3E7694620469847051EC4DABDE70F
:1064000020469847002899D0DCE73B7823B1204606
:1064100008F013FB00233B70A368DB6863B12A46D6
:10642000694620469847854288DD0B4A2B1A012190
:10643000074809F080FB81E76FF05700F3E710B0E1
:10644000BDE8F0819C130020740F0020C8320300C7
:10645000982D0300E1320300EF32030010B53A48F3
:106460000BF0CFFD30B9394A3948012108F0EAFA7A
:10647000002010BD3748384CFFF7C6FE206030B909
:10648000364A3348012108F0DDFA354AECE709F0D5
:10649000FFFC28B9206802F0B3F808B1314AF0E7F0
:1064A000314A2B48032108F0CDFA304B304A1A60AC
:1064B0000022C3E90122DA604FF480621A612D4A9A
:1064C0002348032108F0BEFA4FF0FF324FF0FF33AC
:1064D000294806F0A9FE294A1D48032108F0B2FA0E
:1064E000194CA3685B6C13B96FF0570305E00122E8
:1064F000082120469847034620B1214A144802212A
:1065000009F019FBA3685B6CDBB10F480122102175
:106510009847034620B11B4A0D48022109F00BFBA6
:1065200040F6CD4000210CF0B2F8A3682BB11B6CF3
:106530001BB11549044800229847034808F07DFA2A
:1065400096E76FF05703E6E7D82A0300FD32030011
:10655000982D030039620200700F002016330300EB
:10656000663303005732030036330300740F0020F4
:106570009D13002051330300100600205E330300FA
:106580008A330300A9330300316302002DE9F84F79
:106590008A4600AF002974D004680E1F361BF50828
:1065A00026F0070604EB0608B8F802B01BF0010B52
:1065B00016D1E94688B06A46334BCDE9053103234D
:1065C00042F8103F31485B464FF4C25100F016FECE
:1065D000CD468BF31188BFF36F8F0423184602DF7B
:1065E0002946204608F030FA284434F83030C01AE2
:1065F000854217D0E94688B06A46254BCDE9053A71
:10660000032342F8103F214800234FF4C25100F009
:10661000F5FD0023CD4683F31188BFF36F8F04236C
:10662000184602DFB8F8023023F00103A8F8023060
:106630002946204608F008FA05EB000804EBC803D9
:106640005B88DA0708D44146204608F046FA4246FD
:106650002946204608F086FAA65BAE1B04EBC6036B
:106660005B88DB0709D43146204608F036FA2A4613
:106670003146204608F076FA35462946204608F08D
:10668000E8F9BD46BDE8F88FF3340300E82D0300B8
:10669000CA34030008B5024808F071FD002008BDA7
:1066A000203503000E4A9042034602D30D4A904221
:1066B00011D30D4A22B1934202D30C4A93420AD31A
:1066C0000B4A52B10B48834234BF01200020934251
:1066D00038BF00207047012070471046704700BF48
:1066E000F02903002845030000000000000000001E
:1066F00000000000000000002DE9F04F9BB000AF4B
:106700000446D7F890A0FA637B638B4649B90378B7
:106710004678807800EB830020445E4522D8A0EBC9
:10672000040B0AF0010394F80280FB62E3783B63F8
:10673000B8F1000F0CBF4FF000090AF0010913B1C6
:106740001AF0020F17D1B9F1000F14D1FB6B1BB176
:106750007A6B5946204698475D4628466C37BD46B9
:10676000BDE8F08F451C2846FFF7D4FC01302844D3
:106770000BF1010BD1E7CAF3C003FB612378BB62C5
:106780009B00BB6163683B62BB6A04EB8301FB6BEC
:10679000002B7DD15D468844B9F1000F1DD0A94E74
:1067A0008B4699461BF8013B54F82300002808BF8C
:1067B0003046FFF7AFFCD7F8943001304BB1D7F833
:1067C00098304B4582BFD7F8943023F8190009F16F
:1067D0000109C3450544E5D1D8461AF0050F0AF072
:1067E00002030CBF4FF0020B4FF0010B0026FB63BE
:1067F0003B6B9E42B1D298F8013054F823A050462A
:10680000FFF750FFFA6908F10208034602B3B863C4
:1068100018F8021C386A08F093FCBB6BC0B1EA465A
:106820008AB06A46884B05933B6ACDE906314FF43E
:106830000073ADF82030854B42F8103F84480023A8
:106840004FF4125100F0DAFC023DD5460136CFE795
:1068500023B1FB6A2BB9A5EB0B05F7E7FB6B002B0C
:10686000F4D07848BAF1000F18BF5046FFF752FC39
:10687000D7F8943053B1D7F8983099453FBFD7F83F
:106880009420431C22F8193009F101090544DDE781
:10689000B9F1000F6CD04346102B28BF1023BB6307
:1068A00097F8389007F148000026BA6B79620CF02F
:1068B0001EF8796A00227A620AF0020201EB0803EC
:1068C0003A610AF004027B61FA6002337A6A396B3A
:1068D0008A4266D36378F96A7B621AF0020F4B44EE
:1068E000DBB20CBF72080022002940F0A9801AF028
:1068F000040F14BF314600216370A170E270B969C2
:106900007A6BFB6B20469847051EFFF626AFBB6AE5
:1069100023707B6A63703B6BE37031467A6BFB6B71
:1069200084F8028007F158009847061EC0F2C48020
:106930003A6BBB69386B03EB4203ABEB0301D7E95E
:106940000D23C91A7B6903EB4000FB6B98470028B5
:10695000C0F2B4802E4435184FF0000807F1480A01
:10696000C84577D300217A6BFB6B08469847F4E65D
:10697000B8F1000F0CD01AF0040F0ED04346102BC4
:1069800028BF1023BB6397F8386007F158008CE7E5
:10699000C7F838804646C1468CE7C7F838804E466F
:1069A00088E713F8015C13F8021C54F82500BB605B
:1069B000FFF778FE0246F869BB6838B1386AC7E964
:1069C000013208F0BDFBD7E90132F0B912B3FA6A1F
:1069D00072B1B9F10F0F18D809F1280107F1400081
:1069E000014409F1010201F8205C5FFA82F90CE030
:1069F000FA6852B10F2E08D806F1280107F14000BD
:106A0000721C0E1806F8105CD6B27A6A01327A62ED
:106A100002335BE73A69002ADBD10F2EF5D806F185
:106A2000280007F1400C6044721C00F8101C07F1AC
:106A3000680151FA82F20236F6B202F8105CE4E71D
:106A4000002159E75B3503006235030004000001B3
:106A5000902D030018F80A3087F8473054F823B017
:106A6000D7F8943033B3D7F89830984522D2D7F876
:106A7000943033F818607A6BFB6B012107F1470003
:106A8000984700281ADB0E4B0544BBF1000F08BFE6
:106A90009B4626B95846FFF73DFB461CB6B27A6BBB
:106AA000FB6B314658469847002807DB054408F140
:106AB000010855E70026DEE735464EE605464CE67A
:106AC0005B350300014B1860704700BFFC010020DC
:106AD0002DE9F047058B0446280717460CD50129F8
:106AE0000CBF45F0100545F02005258387F311887C
:106AF000BFF36F8FBDE8F087022905F0070540F06E
:106B00009480204608F0CEFD052864D801A353F8F0
:106B100020F000BFED6A02002B6C0200D76B020070
:106B2000996B0200B36B0200C56B020001F0070312
:106B30005A1F012A1FD8002221F00701062BD4F882
:106B4000008089B2C4E9002209D1434603E0628B88
:106B5000013262831B68002BF9D141F002012183CD
:106B6000204608F09FFD4FF0000900286DD041F04D
:106B70002001218369E0042B0AD121F0070189B2A9
:106B80002183204608F08EFD10B141F020012183C1
:106B90004FF00008C14658E02369D3F80090238BDA
:106BA00023F0070343F0060323834FF00008464613
:106BB0004BE02369D3F80490238B23F0070343F0C1
:106BC0000403F1E72369D3F80890238B23F007032C
:106BD00043F00503E8E74FF00008C146E7E701226C
:106BE00043F00803238387F31188BFF36F8F002AD4
:106BF0003BD1B8F1000F4AD1B9F1000F02D02D49B5
:106C00002046C847EFF31187202383F31288BFF390
:106C10006F8F238B23F008039BB22383D9063FD5C4
:106C200023F01002228303F007056669218B002EF2
:106C3000BFF67CAF0023D4F8008021F00701C4E93F
:106C4000003341F0010121839946238B03F0070AA9
:106C5000AA4502D0A268002AC1D1B8F1000F02D122
:106C6000B9F1000FDAD00022BAE7A1680029C0D03C
:106C70000D680029BDD04F68334652462046B847BC
:106C80001DB12B6829461D46F3E72B46FAE741461E
:106C9000334652462046D8F8008008F02FFDA8E77A
:106CA0009A067FF523AF23F02002228303F0070525
:106CB00027E700BF29F702002DE9F047DFF85480ED
:106CC000044607464FF0010994FAA4F5B5FA85F594
:106CD00009FA05F32E0108EB05156FEA030A24EA09
:106CE00003042B7B63B158F806301B696BB946442B
:106CF000042273682846196807EA0A0708F0A2FE0A
:106D0000002CE1D13846BDE8F08728469847002896
:106D1000F6D1ECE7702E030010B51049104888B08A
:106D200000220BF054FD4FF400320023CDE906237E
:106D300000240E23CDE90334CDE90144094B0A496F
:106D400000944FF44072094806F084FD0849074852
:106D50000BF0B8FB204608B010BD00BF756D0200F7
:106D6000A80B0020A57002000018002018070020C2
:106D700021360300014806F021BA00BF200600209A
:106D80002DE9F047804621480F4608F03BFE0646B5
:106D9000002833D000252846BDE8F087237B83B147
:106DA0002368DB680BB120469847636883F8069038
:106DB00023681B69D3B9636804221968204608F068
:106DC00041FE013610345445E8D3B8F1000FE2D04B
:106DD000002DDFD02846FFF76FFF0546002FF7D0C4
:106DE00000214FF4A4700BF052FCF1E720469847C5
:106DF0000028E0D009FA06F31D43E2E7044CDFF86F
:106E000014A005464FF00109DDE700BF980F0020F0
:106E1000702E0300802E0300014B53F820007047B2
:106E2000D42E030008B5034608462BB1044A13606C
:106E300000F056FC002008BD6FF01500FBE700BF16
:106E40000002002010B5044C237813B9034806F063
:106E5000B5F90123237010BD9D17002020060020E6
:106E600010B504460B4808F0CDFD5CB1BFF35B8F55
:106E7000094B53E8001F013943E80012002AF8D1FA
:106E8000BFF35B8F054807F0D1FA0548BDE8104015
:106E900006F094B9900F0020940F0020A80B00205A
:106EA00020060020064BBFF35B8F002253E8000F43
:106EB00043E800210029F9D1BFF35B8F704700BF81
:106EC000900F002070B5FFF7EDFF084C084E054607
:106ED000B44200D370BD63685B792BB123685B68F3
:106EE00013B12946204698471034F1E7702E03006D
:106EF000802E030010B5044C0449204608F04CFADB
:106F0000034B1C6010BD00BF6C050020C02E0300A9
:106F1000880F00200D4A0E48002310B513700D4A4B
:106F200013600D4A4FF400411360FFF77BFFFFF73A
:106F3000E1FF0A4B0A4918468B4200D310BD1A1ACA
:106F40005C681211013222711033F5E79E170020A0
:106F500001FA0200900F0020940F0020702E030011
:106F6000802E0300014600220148002308F035BAB4
:106F70006C050020014808F0CCBA00BF6C05002069
:106F8000024B0146186808F01FBB00BF880F0020A5
:106F9000014808F054BB00BF6C05002070B52A4BB7
:106FA0001B78002B4ED0FFF7E5FF0446002846D1A2
:106FB000264B274D1B68002B19DD0BF0C0FB4FF44F
:106FC0007A76A0FB063206FB0121D5E90020DB0B17
:106FD00043EA41439B1A4FEAD13140F2E93261EB77
:106FE0000001934271F1000101D3FFF76BFFD5E976
:106FF000003213F57A7342F10002C5E900320CB396
:10700000BDE87040FFF7C4BF6B685B7923B12B68A4
:1070100021461B68284698471035B542F4D32046D0
:10702000FFF7AEFFBFF35B8F0A4B53E8001F013938
:1070300043E80012002AF8D1BFF35B8FB8E7064D92
:10704000064EEAE7002070BD9D170020900F00203B
:10705000A00B0020940F0020702E0300802E030050
:1070600070B50D4D297861B90120FFF789FE0B4CF1
:107070000B4EB44206D3FFF791FF0028FBD101234A
:107080002B7070BD63685B791BB1236820469B68D9
:1070900098471034EDE700BF9E170020702E0300C4
:1070A000802E030000212DE9F8430846FFF768FE13
:1070B000044648B340F267684FF0000900F0ACFFA7
:1070C0001A4B1B4A1B58136033B11A4B1B68092B10
:1070D00002DD194806F072F8184F002544B1204629
:1070E000FFF7EAFD044618B94FF0FF384FF0FF39BB
:1070F000FFF754FF064628B9B5B90F4842464B463C
:1071000006F092F83546E9E74FF0FF384FF0FF39C7
:10711000D4E72B689B691BB100221146284698478B
:107120001035BD42F5D3E8E7054DFAE70800000049
:107130008C0F0020940F002020060020802E0300DA
:10714000702E030013B5184808F05CFC174B1B7831
:1071500073B1EFF31184202383F31288BFF36F8F91
:10716000FFF71CFF84F31188BFF36F8F02B010BDCF
:107170000F4B1B68002BF9D050B900220023CDE93A
:1071800000230C484FF40042002307F029F9EDE7F3
:107190000928EBD1074807F049F9074802B0BDE8D4
:1071A000104006F00BB800BF940F00209E1700207F
:1071B0008C0F0020A80B00202006002010B5064BE5
:1071C0001B68044698472146A060044808F082F9ED
:1071D000BDE81040FFF7B6BF000200206C0500209C
:1071E000044A054B9B1AB1EBD30F34BF52F8310060
:1071F00000207047902D0300702E03002DE9F04F02
:107200008FB004AFC1F34A26B8600D4690467B604C
:107210000C0D002E61D04FF000090A234FF0040B33
:1072200007F1140AFE60C7E90799C7F82490009394
:10723000CDF808B0CDF804A007F11C03F9684A4660
:107240004046FFF759FAB0F5006F03461CD36C4671
:107250008AB0D8F8041004AB2448C3E9050140F211
:10726000FF71D9611A464FF400711984204B42F81E
:10727000103F20484B464FF41251FFF7BFFFA54681
:107280002C37BD46BDE8F08FC0F30A0604F11700A5
:10729000184420F0070080083B60FFF763FE66F3A8
:1072A0005325044680B13B68134A00F11001C7E939
:1072B0000839F961CDE901AB0A230093F96807F1B8
:1072C0001C034046FFF718FA66F353257B68B9683C
:1072D0002A46204608F0D6FBD2E704F1170020F03A
:1072E00007008008FFF73EFE0446EDE73636030050
:1072F00004000001A82D030057FA02002DE9F04F09
:1073000087B0DDE9127ADDE9106B05468846144640
:107310009946BFB11021CDF800A03B465A46002047
:10732000CDF814A007F033FDB0F5006F01460BD384
:10733000194A1A4840F2FF73022107B0BDE8F04F26
:1073400008F0F9BB3946384604F0070305F0070496
:10735000E40044EA831444EA402444EA065406F173
:107360001700084420F0070080080391FFF7FAFD9A
:10737000054640B13FB10399CDF800A03B465A46BF
:10738000103007F004FD4B4622464146284607B020
:10739000BDE8F04F08F076BB75360300A82D03005A
:1073A000406820B1034BC01A40F3CF0070474FF044
:1073B000FF307047902D03000EB403B503AB0146B8
:1073C00053F8042B0448019300F0ACFF02B05DF8C1
:1073D00004EB03B0704700BF99FB0200CA0605D456
:1073E0008B064CBF02490349FFF7E6BF704700BF59
:1073F000AE360300AD3603002DE9F04F8BB0994651
:10740000179B0793DDE918A39DF858801A9F0692F1
:1074100004460D460593B8F1000F00F0BF80844B81
:1074200013F80830089307F48073099308F008FBF9
:1074300007F0020B024600287DD07E492046FFF768
:10744000BBFF0646BBF1000F08D017F0440F74D104
:1074500079492A462046FFF7AFFF064407F00103AB
:1074600053B1764B764953F82820764B2046002AB4
:1074700008BF1A46FFF7A0FF07F48073002B07F040
:10748000080318BF4FF00009002B00F082806E4BFC
:107490006E4953F828202046FFF78EFF0546069BCD
:1074A0002BB16B491A462046FFF786FF0544B9F118
:1074B000000F0DD0089B002B6ED06649664BB8F1CB
:1074C000040F18BF19464A462046FFF775FF0544CA
:1074D00062483544079B1BB16149224607F0FFFD16
:1074E000059B002B00F09080DDF814903946B9F12F
:1074F000100F204628BF4FF01009FFF76FFF00263E
:10750000B54252DC002633461AF80320554920467E
:10751000FFF752FF0136102E4DD0710703D15249AB
:107520002046FFF749FF4E453346EDD34F492046ED
:10753000FFF742FFEEE7064684E74D4B1868002848
:107540008BD04C4B4FF47A7B1B68B5FBF3F54FF4B3
:107550006163B5FBF0F100FB11550BFB05F54FF036
:107560003C0CB1FBF3F203FB1211B5FBF0FEB1FBD7
:10757000FCF300FB1E550CFB13110BFB05F50091F2
:10758000B5FBF0F53C49CDE901E52046FFF714FFD6
:1075900063E707F0080582E72F4994E7B9F1010F87
:1075A0000CBF2E483548454694E72F492046FFF743
:1075B00003FF0136A4E7324920460026FFF7FCFE10
:1075C00033461AF803202F49A2F120035F2B28BF6E
:1075D0002E222046FFF7F0FE0136102E0DD0720746
:1075E00003D121492046FFF7E7FEB1453346E8D8ED
:1075F0001D492046FFF7E0FEEEE7059BB3EB0903CC
:10760000CA4405937FF470AFB8F1000F0AD0FB07AE
:1076100004D50C4A0A492046FFF7CEFE39462046DB
:10762000FFF7DCFE20460BB0BDE8F04F08F0A7BA2C
:10763000E4440300BE360300C2360300E42E030018
:1076400054320300B0360300F82E0300E73603007F
:10765000ED360300B5360300B936030099FB02008E
:1076600025830200F1360300F9360300F7360300E4
:10767000A00F00209C0F0020CB360300CFFB0200A0
:10768000FB360300FD36030073B542F20F738B42E5
:1076900028BF0B4605680F4A04460521684606F0D8
:1076A0005DFF63680C495B6806460B22284608F0BC
:1076B00058FA63683246694628465B6808F051FA12
:1076C000636806495B681B22284608F04AFA02B044
:1076D00070BD00BF273D0300D8440300BC44030035
:1076E000074A00210123904206D8064A01B9012326
:1076F0001360054B1860704740085B000121F2E7FA
:1077000040420F009C0F0020A00F0020F8B5074F4B
:107710000D4604464618B44201D12846F8BD14F877
:10772000011BBB6801485B689847F4E7D82A03004F
:10773000014B036000207047402F030080B50546D1
:107740000E461746984606F09BFB034600F064FC85
:10775000DFF81890044649F8003042463046394672
:10776000A84754F8090000F0F3FB00BF0800000030
:1077700008B50348034A0021121A08F0A5FA08BD0B
:1077800018070020D01700200748084A084908B504
:10779000121A08F09BFA0748074A0849BDE8084052
:1077A000121A08F093BA00BF00000020140700204E
:1077B00028450300000000200000002028450300A9
:1077C0002DE9F047064600AF0C46002936D0E946C1
:1077D0008AB0D1E90012A3686D462148E8464FF00F
:1077E000050ACDE90501CDE9072348F810AF1D488A
:1077F000424600234FF42151FFF700FDCD46D4E966
:1078000003126369AD461848C5F810A0C5E9050123
:10781000C5E907231348002342464FF42151FFF7DF
:10782000EDFCCD46E369114A0E48012108F083F9C9
:10783000A3690F4A0B48012108F07DF9012E07D1F9
:10784000EFF305830B4A0748103B314608F073F904
:107850002146304605F0ECF8BD46BDE8F08700BF94
:107860003A370300E02D030069370300983703001F
:10787000A7370300D537030030BFFFF7FDBF00BFB8
:107880002DE9F0410B4EDFF8308006EB0807CC1BEA
:1078900005463246094920460BF029F8A019424610
:1078A0000021083C0BF031F8AC6707F10800BDE897
:1078B000F08100BF0000000008000000802E0300DF
:1078C00010B5204C2049214808F00DFAA36A99010F
:1078D00036D51E481E4908F006FA1E20A36ADA01B2
:1078E00004D51A481B4908F0FEF91F20154CA36A5D
:1078F0001B0304D51548184908F0F5F92120A36A9F
:10790000590304D51148154908F0EDF922200D4C12
:10791000A36A9A0304D50D48114908F0E4F923201D
:10792000A36ADB0304D509480E4908F0DCF92420DA
:10793000044A936A6FEA03436FEA1343936210BDEC
:107940001D20CBE700ED00E0E8370300E02D030049
:1079500000380300133803002D3803004B380300B0
:10796000703803008A38030070B506460D46284C6F
:107970002849294808F0B7F9A36AD9043CD5264814
:10798000264908F0B0F91720A36A1A0504D5224841
:10799000234908F0A8F918201D4CA36A9B0512D5AD
:1079A0001D48204908F09FF9A36BA26A100409D56D
:1079B0001D4A1948012108F0BEF81EB1A36A23F43C
:1079C0000043A3621920124CA36A590504D512483A
:1079D000164908F088F91A20A36ADA050ED50E4870
:1079E000134908F080F91B20094A936A43F47F4346
:1079F000936200232B7070BD1620C5E7A36A9B0419
:107A0000F2D505480B4908F06EF91C20ECE700BFE1
:107A100000ED00E0B5380300E02D0300CB38030093
:107A2000DC380300EF380300083903001D39030078
:107A300038390300503903002DE9F8438046894660
:107A40001746354D3549364808F04DF9AB6ADE0624
:107A500027D53449324808F046F91124AB6A1D078E
:107A600004D531492E4808F03EF912242A4DAB6A5C
:107A7000980718D52D492A4808F035F96E6BAB6A7E
:107A8000190646D52A4A26483346012108F053F8FC
:107A9000B9F1000F03D0AB6A23F08003AB6213246B
:107AA00003E01024DAE76FF015061B4DAB6ADA0726
:107AB00004D520491A4808F016F91424AB6A9B062D
:107AC00004D51D49164808F00EF91524124B9A6A80
:107AD000D50602D49A6A90070AD55B68190507D5BE
:107AE0004146304600F0EAF910B180F309880224DB
:107AF000094B9A6A920642BF5A6A22F400525A62AD
:107B00009A6A42F0FF029A6200233B702046BDE869
:107B1000F8836FF01506C2E700ED00E07F3903003F
:107B2000E02D030095390300DC380300C839030059
:107B3000E0390300F6390300503903002DE9F04124
:107B4000684B8AB0D3F8048000AF0446C8F3080637
:107B5000002585F31188BFF36F8F02F07F43B3F1E7
:107B60007F4F07D102F00C03082B12D15E495F480A
:107B700008F0B9F800252C460023FB71F31E092BF1
:107B800000F28F80DFE803F00A8588818D8D8D8D6E
:107B90008D8B10074CBF0C460125EDE75449534827
:107BA000504E08F0A0F80023FB71F36A9A0705D540
:107BB00050494E4808F097F800232DE0F36A002B57
:107BC00001DA4D49F5E7F36A5B00F5D54B494748C3
:107BD00008F089F87369A26943F480737361BFF395
:107BE0004F8FBFF36F8F32F8023C726922F48072BC
:107BF0007261BFF34F8FBFF36F8F03F47F42B2F513
:107C00005F4F2BD1DBB2022B28D123683C4A374887
:107C1000012107F090FF2368FA79DAB907F1080625
:107C200004F1200C20686168324603C208346445C0
:107C30001646F7D17A6A002D50D0C2F3080121B957
:107C40006FEA52226FEA42227A6207F1080118466F
:107C5000FFF7B6FD2837BD46BDE8F081214B9A6A93
:107C6000D2B22AB1FA1D01212046FFF7E5FE0EE04F
:107C70009A6A12F47F4F04D0F91D0120FFF774FEB9
:107C800005E09B6AB3F5803F96D3FFF719FE0346E4
:107C9000C2E7FA1D0021E7E7F91D0020EEE71949C8
:107CA00087E7194A194B18F4F87FE8468AB008BFED
:107CB00013466A461649CDE905134FF40073ADF833
:107CC0002030103E134B079642F8103F0748002320
:107CD0004FF41151FFF792FAC5466DE76FF30802B2
:107CE000B2E700BF00ED00E0433A0300E02D0300DF
:107CF0006E3A0300853A0300A63A0300B43A030043
:107D0000D33A0300EF3A0300153A03002A3A03007E
:107D1000133B030004000001044B5A6942F01002B7
:107D20005A615A6922F008025A61704700ED00E07A
:107D3000EFF30880EFF3098101B57246FFF7FEFE0D
:107D400001BD00BF0B4880F3088804F015FA20201D
:107D500080F3118808484FF40461401880F30988C3
:107D6000EFF314800221084380F31488BFF36F8F70
:107D700000F06CF8802F0020C02100201EF0040FBE
:107D80000CBFEFF30880EFF30980816911F8021C42
:107D90000229FFD001B5724607F09AFF01BD00BF6E
:107DA00040B2002807DB044A4109012300F01F000C
:107DB000834042F82130704700E100E040B20028E3
:107DC0000CDB4309064900F01F00203301228240EA
:107DD00041F82320BFF34F8FBFF36F8F704700BF71
:107DE00000E100E0054B420900F01F0053F822209B
:107DF000012303FA00F01040704700BF00E100E0EB
:107E000040B20028A8BF00F1604001F10101B8BFF5
:107E1000064B4FEA4111ACBF00F5614000F00F0086
:107E2000C9B2B4BF195480F80013704714ED00E0D4
:107E3000044B054A23F07F039360BFF34F8FBFF3DA
:107E40006F8F70470060020000ED00E008B5FFF79B
:107E5000EFFF0B4AD2F8883023F47003C2F8883061
:107E6000EFF3148323F0040383F31488BFF36F8FBD
:107E7000FFF77EFCFFF788FC00F0B0F804F008FF85
:107E800000ED00E042F8203C009B42F81C3C0A490F
:107E9000019B42F8183C029B42F8143C21F001017E
:107EA0004FF0807342F8043C42F8081C0023203A4B
:107EB0000265C367704700BF3D770200094A034669
:107EC000906870B113F1160F806E05D0A0F14002DA
:107ED000934205D3834203D2814228BF00207047DA
:107EE000002070476413002008B515460B4A0C4B60
:107EF0009060826F1A600E4600F0A0F82C4686F360
:107F000009880020034B98472046002100220023C7
:107F1000014C2047FDFC02003D7702006413002065
:107F2000C80F0020014B10221A61704700ED00E0DD
:107F3000054B5A699B689A421FBF044A536843F035
:107F400080535360704700BF6413002000ED00E0D1
:107F5000084B9B6883420BD1EFF3058343B1064B7B
:107F60005A6842F080525A605A6A22F400425A62B9
:107F70000AF0ADBA6413002000ED00E014498A68ED
:107F80004FF030001044EFF3098C80E8F01F202000
:107F900080F31288BFF36F8F0E4F4FF000664A696F
:107FA0008A603E60906F0C4C2060D06F0023D367D6
:107FB00080F3118804B5104600F040F8BDE8044095
:107FC00002F1300090E8F01F8CF309887047000040
:107FD0006413002004ED00E0C80F002004480023D3
:107FE0002021C2180133302B82F80013F9D17047D9
:107FF00000E100E008B5EFF30583064A103B02EB11
:10800000C30152F8330049688847BDE80840FFF7CC
:108010008FBF00BF2C2B0300014800687047000091
:10802000C80F0020024B034A0348012100F08AB820
:108030000000042000000020402F0300836E054A4A
:10804000403B1360044B4021C2E90113104601215B
:1080500000F082B8CC0F002000000B1508B50346D5
:108060001048D0F89020C2F30722013A934207D972
:108070000D480E4A012107F05EFD6FF0150008BDA6
:10808000C0F898300A6822F01F021A4342F010022A
:10809000C0F89C208A6842F00102C0F8A02018466F
:1080A000EDE700BF00ED00E0C02D03002A3B030018
:1080B000F0B50E4685B01F4604460025B5420DDAE0
:1080C000606810B397B1431E18420AD0104A114895
:1080D0002B46012107F02FFD6FF01502104605B069
:1080E000F0BD1F28F2D921680B42EFD1236801931C
:1080F00007F018FEA36801A90343D0B20393FFF76A
:10810000ADFF10F1160FE7D0421C01350C34D5E756
:10811000503B0300C02D0300044B0522C3F89420FC
:10812000BFF34F8FBFF36F8F704700BF00ED00E0CC
:10813000BFF35F8F024B0022C3F89420704700BF4B
:1081400000ED00E010B5034C01232278FFF7B0FFEB
:10815000207010BDA017002008B50B4A002312782C
:10816000FFF7A6FF10F1160F07D0084A0021D2F83A
:108170009030C3F30723984200DB08BDC2F8980093
:10818000C2F8A0100130F2E7A017002000ED00E0D7
:108190002DE9F0435D485E49D0F890300C68C3F398
:1081A00007239C4285B000F2AE80FFF7C1FF49680B
:1081B0000022944201F10C011AD1564F564D3C70E9
:1081C0006846FFF7B5FA554C554E81464FF000080A
:1081D000C14520D13B784D490020D1F89020C2F311
:1081E00007229342C0F28980FFF796FF002050E0FB
:1081F000C0F8982051F80C3C23F01F03134343F0C0
:108200001003C0F89C3051F8043C43F00103C0F85F
:10821000A0300132CDE7009800EB08114FEA081CAE
:10822000CB682340B3F5000F49D00BD8B3F5001F3E
:1082300032D0B3F5800F37D0B3F5801F14D008F1DA
:108240000108C5E7B3F1007F42D0B3F1805F48D0A9
:10825000B3F1807FF3D150F80C3088684A6807F09A
:1082600061FD40F0887009E050F80C3088684A6879
:1082700007F058FD40F0885040F43020039001A9E9
:108280003878CDE90123FFF7E9FE002831DA6FF0F5
:10829000150005B0BDE8F08350F80C3088684A68D6
:1082A00007F040FD3043E9E750F80C3088684A6831
:1082B00007F038FD40F0C06040F40030DEE750F8D1
:1082C0000C3088684A6807F02DFD40F08270D5E7D1
:1082D00050F80C3088684A6807F024FD40F480208C
:1082E000CCE750F80C3088684A6807F01BFD28433B
:1082F000C4E73B7801333B70A1E7C1F89830C1F87F
:10830000A000013369E74FF0FF30C2E700ED00E065
:108310004C2F0300A0170020000002110000F0FF06
:1083200000000811F0B587B007460E46144600213C
:10833000102268461D460AF0E8FA02238DF8023042
:108340002A46054B019321466846CDE9047606F09E
:108350002FF907B0F0BD00BF45FD020008B5024B84
:108360001B689847002008BDD80F0020034B044A23
:108370001860937843F0020393707047D80F002081
:108380000C02002008B50649064821F00701C1F19A
:10839000005202F5802206F0B9FC002008BD00BFA3
:1083A0003F4B0020DC0F002070B54169867A0B4DF1
:1083B000044659B1437ADB0706D4242303FB065352
:1083C000DB691B689B689847002363612420214672
:1083D00000FB0650BDE8704009F09EBF4406002037
:1083E000024B242202FB0030704700BF44060020ED
:1083F0002DE9F04385B005466846039190461C463A
:108400000AF09FF9DDE90067EFF31189202383F378
:108410001288BFF36F8F6B8A002B41D02A8A9A4251
:1084200025D900220023284604F092FE0446F0B12C
:1084300089F31188BFF36F8F039B002B41D0324625
:108440003B4668460AF0A2F9A27A264B242101FB9A
:1084500002332046DB691B6803A91D68DDE90023A0
:10846000A847606170BB2046FFF79EFF24E0698A41
:108470004B1E6B8289F31188BFF36F8F2B7D2A8A85
:108480002C6A1B3323F00303521A02FB0344154BDF
:10849000154AEB1A9B105343A3722B7DE372CBE773
:1084A00089F31188BFF36F8F23464246284604F0B4
:1084B0004FFE04460028BFD10024204605B0BDE889
:1084C000F0836361012300252381039B6382E27AA9
:1084D0006560294604F118000AF017FA63692582DD
:1084E000E360EAE744060020398EE338F8B5124D20
:1084F0000024242600B9F8BD00F108024768BFF344
:108500005B8F52E8003F591E42E8001CBCF1000F8F
:10851000F7D1BFF35B8FDBB2012BECD1837AC46060
:1085200006FB035344609B6913B198473846E1E763
:10853000FFF73AFFFAE700BF44060020024B012292
:10854000C3F840250020704700E0014048B1054BCA
:10855000054A1B68B3FBF2F35843044B43F0010395
:1085600018477047A004002040420F00802E0300EF
:1085700008B5054A054B136010463F23536003F0CE
:10858000D7FE002008BD00BFE80F0020FFFF0F004E
:1085900038B5044605F050FC204607F032FCA069CF
:1085A00058B194F86C30DB0723D409F02AFD68B980
:1085B000114A1248012107F0B5FA6FF01205201D8B
:1085C00007F026FC05F04CFC284638BD204600F09C
:1085D000DFFF05460028F2D10146242204F12800DD
:1085E0000AF093F994F86C3043F0010384F86C308E
:1085F000E5E76FF07705E2E7A03B0300402E0300BC
:1086000070B5044605F018FC204607F0FAFB94F814
:108610006C30DA073CD5C3F340019B073BD4A0691B
:1086200008F057FD0646A06908F0E3FD054658B17D
:108630001A4A1B48012107F075FA201D07F0E8FBD4
:1086400005F00EFC284670BDA36F4BB131462046A5
:1086500007F064FD0546A0B1A06908F0F6FDECE75F
:10866000A06908F06EFDA0670028EFD10D4A0C4804
:10867000012107F057FAA06908F0E7FD6FF00B053C
:10868000DBE794F86C3043F0020384F86C30D4E7F5
:108690004FF0FF35D1E76FF07705CEE7C33B03001E
:1086A000402E0300DF3B030038B590F86C309B0789
:1086B000044620D507F0A5FB0021204601F0EAF88A
:1086C00020B10E4A0E48012107F02CFAA06908F0EB
:1086D000BCFD054620B10B4A0948012107F022FAEA
:1086E00094F86C3023F0020384F86C30201D07F0FE
:1086F0008FFB284638BD6FF07705FAE7FB3B030098
:10870000402E0300193C030038B5802104468069DF
:1087100008F03AFD054678B10146204601F020FBFD
:10872000044638B10648074A012107F0FBF92846FC
:10873000FFF7DCFE204638BD6FF00B04FAE700BF00
:10874000202E0300493C030038B50446806F07F033
:1087500015FB054607F00DFB2046294601F000FBFE
:10876000044638B10448054A012107F0DBF92846E0
:10877000FFF7BCFE204638BD202E03006C3C0300F2
:108780002DE9F04190F8283003F01F03012B044637
:108790000F4600F128062FD0022B18D08BB394F887
:1087A0002910204607F07BFB024678B3304607F0DD
:1087B00060FC1D4D002834D113693BB33A46314665
:1087C000204698470346FFF727FC2B5024E0818D75
:1087D000C9B201F077F905460028E0D0304607F02D
:1087E00048FC024668688368CAB99B6873B13A4618
:1087F0003146BDE8F0411847818DC9B207F0F7FC5A
:10880000E9E790F8291007F00BFDE4E7FFF704FC17
:10881000054B6FF085021A500020BDE8F081DB683F
:10882000E4E7D368C9E700BF0C0000002DE9F04F72
:108830000B7E33F0800895B004460E4615460AD0EC
:10884000A44AA548012107F06DF96FF004084046DD
:1088500015B0BDE8F08F82B10846FFF747FE737E82
:10886000DF0704D49D07F2D5337E002BEFD12046DD
:1088700015B0BDE8F04FFFF767BF4A7E00F1280949
:10888000900705D5802B09D13046FFF72FFEDEE794
:10889000910700F05E84002B40F05B84D20741D545
:1088A000338A082B14D1F2681368A3625368C9F89D
:1088B00004303146002007F068FA054690B1874A37
:1088C0008548012107F02EF92846FFF70FFEF7E053
:1088D0008148834A012107F025F93046FFF706FE5B
:1088E0000025EDE0484607F0C4FB38B1E18D29B121
:1088F000204607F07BFD05460028F1D0FFF78CFBF2
:1089000094F82880774F002318F0600FC351C8F304
:10891000411309D0032B40F0DB81FFF77DFB6FF0A3
:10892000850339E03546E9E7484607F0A2FB94F8AD
:108930002930002840F06A81013B0A2BEDD801A2C2
:1089400052F823F0F18A02001B890200818B020099
:108950001B890200718902001B8902001B89020029
:108960001B890200ED8902001B8902005D8A02005A
:10897000618D7F29D1D8A38D002BCED1E38D002B23
:10898000CBD118F01F0FC8D194F83030022B05D18D
:10899000FFF742FB4FF0FF333B5083E0A0690369D0
:1089A00093F880301B070DD5C9B207F09BFB8046BA
:1089B00058B1638D4C4A4848012107F0BCF8002D9E
:1089C00073D144E7012384F8393094F83030012B17
:1089D0000AD1638D43B984F83030FFF71DFB3B5853
:1089E000002B00F09A805DE00123F4E7204607F0B9
:1089F00011FA628DFF2A01468FD8E38D002B8CD1AE
:108A000094F82830D80688D194F83030002BBFD0A5
:108A10002AB1D2B2204607F0BCFB0028B8D0618D45
:108A200094F838308B42D8D0C9B2204600F032FFDB
:108A3000638D804630B12D4A00900121264807F011
:108A400084F8BCE7002B14BF0222012284F83020F6
:108A500005211A46204607F036FDBEE708F01F083C
:108A6000B8F1010F7FF459AFE38D002B7FF455AFC0
:108A7000628DFF2A3FF651AFA18DFF293FF64DAF22
:108A800094F83030022B83D1D2B2C9B2204607F01D
:108A900030FC10F1020F804640F01F81FFF7BCFA56
:108AA00047F8008065B14FF000082846FFF71EFD2B
:108AB000B8F1000F7FF4CBAEFFF7AEFA3B5863B3CB
:108AC000484607F0D6FA0346A069002B00F07C83E5
:108AD000802181E38B3C0300202E0300C33C030074
:108AE000AC3C03000C000000E53C0300073D030024
:108AF000E38D002B7FF411AF94F83030002B3FF45E
:108B000047AF012BA18D02D100297FF441AF18F0AE
:108B10001F0810D0B8F1020F1AD0737EE28DD9076A
:108B200000F1F882002A40F00B832046FFF7ECFDAD
:108B30000028C5D19BE600297FF42AAF638D012B65
:108B4000EBD194F86C3061F3C30384F86C30E4E744
:108B5000B4F82AA0BAF1000FDFD15FFA81F84146DC
:108B6000204607F07CFC0346FFF756FA3B500133E2
:108B700000F0368352464146204607F080FA2CE743
:108B8000E38D002B7FF4C9AE628DA38D022A5FFABC
:108B900083FA11D108F01F085AEA08087FF4BDAE25
:108BA000A0690122190A07F07AFA00287FF4B5AE0D
:108BB000012384F8393010E794F8301000293FF48D
:108BC000E7AE012902D1002B7FF4E2AE18F01F08B6
:108BD00012D0B8F1020FA0D1002A9ED151462046F2
:108BE00007F028FC0346FFF717FA3B50013300F06B
:108BF000F78201225146BFE7002B7FF4C9AE012A5C
:108C00008BD194F86C3043F008039EE70A2B3FF6B3
:108C100084AE01A252F823F0458C02001B890200A9
:108C20001B8902001B8902001B8902001B890200AC
:108C3000BF8C02001B890200919002001B89020078
:108C4000BB900200E38D022B7FF467AE94F83030C6
:108C5000002B3FF49DAE012BA18D02D100297FF4A2
:108C600097AE18F01F0811D0B8F1020F1CD04FF0CA
:108C7000000805F10C0A504607F0F3F9E38D98421D
:108C800018D2FFF7C9F96FF00B0385E600297FF4CE
:108C90007FAE94F86C304FEA930808F00208C3F3F3
:108CA000001348EA0308E4E7C9B2204607F0E6FBF0
:108CB0008046DEE74146504607F08AF88DE6B4F874
:108CC0002AA018F01F0F4FEA1A215FFA8AFA09D07A
:108CD00029462046FFF754FD8046B8F1000F7FF487
:108CE0006EAE7AE601390E293FF617AE01A353F8AE
:108CF00021F000BF318D0200718D0200278E02002D
:108D00001B8902001B8902001F8E02001F8E0200B9
:108D10001B8902001B8902001B8902001B890200BB
:108D20001B8902001B8902001B890200838F02003D
:108D300005F10C08404607F094F983462046B4F844
:108D40002EA007F067F820B101287FF4E6AD616F2F
:108D500000E0216F002900F047820A78DA4528BF39
:108D6000DA46524528BF5246404607F020F834E61E
:108D7000204607F04FF80AF1010A039001465FFA16
:108D80008AF2204607F0DFF9834630B9B94ABA487B
:108D90005346012106F0CFFEBFE505F10C0AD0F8DD
:108DA0000480504607F05DF998F80020824228BF01
:108DB00002464146504606F0FAFFDBF80CB0BBF124
:108DC000000F09D1298AE38D99427FF606AEC91AB0
:108DD000504607F007F800E6DBF8040083681B6BD9
:108DE00013B9DBF800B0EAE7039998470028F8D0F8
:108DF000A0F1040858F8041F0029F2D00A78002ACC
:108E0000EFD05046CDE9042107F02BF9049A0599DB
:108E1000904238BF82B2504606F0C9FFEAE72046CA
:108E200006F0F8FF79E552460321204607F077F86F
:108E3000824600283FF471AD07F00EF9B4F82EB069
:108E40009AF81510C8B99AF814808DF830808DF80A
:108E50003110DAF8103005F10C0A1B88ADF8323009
:108E6000504607F0FEF8C3455A4628BF42468242A4
:108E700028BF02460CA9504677E7804A8DF81D109E
:108E8000DAF808100A407E4900238A428DF81C3027
:108E900066D1102108A808F086FBB0F1000845DB78
:108EA0000CA9B8F1100FDFF8DCE10DF1200C4FF048
:108EB0000003084628BF4FF01008984501F1020151
:108EC0003ED84FEA880808F102085FFA88F88DF862
:108ED0001C80034605F10C0A5046049307F0C1F8C4
:108EE000D84528BFD846804528BF8046B8F1020F34
:108EF000C34628BF4FF0020B5A46A8EB0B0807A940
:108F0000504606F054FF4FEA58030393049B9B46D8
:108F100003EB58025A452AD118F0010F3FF45DAD1A
:108F2000039A995C504606F04BFF56E518F1580F2E
:108F30007FF4F3AC544A5048012106F0F3FDECE411
:108F40001CF8012B4FEA121A02F00F021EF80AA0B9
:108F50001EF8022001F802AC01F8012C0133ACE745
:108F60009AF81480DAF810308DF81C80B2E71BF8FC
:108F7000011B5046CDE9042306F02AFFDDE9042356
:108F8000C8E7204606F046FF38B101282CD0FFF78D
:108F900043F86FF085033B501FE5236F002B00F073
:108FA00023815B88B3F5007FF1D9384B0C93002304
:108FB0008DF83430E36C04F14C0B9B4508BF002363
:108FC000BDF83210A3B15A7D0F2A08D11A7D0A4488
:108FD000ADF832209DF8342001328DF83420226D16
:108FE000934203D01B68EBE7636FD7E7BDF83210FD
:108FF000039105F10C0A504607F033F8B4F82E80BF
:109000000399884528BF8846804528BF8046424648
:10901000052A28BF05220CA95046039206F0C7FE78
:10902000039AB8EB02083FF4D8ACE36C5B453FF41D
:10903000D4AC002B3FF4D1AC5A7D0F2A14D11A7D49
:1090400019690393424528BF4246504606F0AFFED9
:10905000039B1A7D424594BFA8EB0208A8EB0808C1
:10906000B8F1000F3FF4B9AC226D93423FF4B5ACB8
:109070001B68DEE72A3D0300202E030000FF0200EC
:1090800000030200E9440300503D0300050F050002
:1090900094F83030002B3FF47BACE38D012B7FF450
:1090A0003CAC05F10C08404606F0DBFF00283FF41D
:1090B000E8AD94F83810404635E708F01F08B8F1DD
:1090C000010F7FF465AC204607F051F800283FF40B
:1090D0005FACB4F82CA0BAF1FF0F3FF61EAC4368AA
:1090E0001B795345FFF419AC5FFA8AF30F2B3FF657
:1090F00014ACE38D012B7FF410AC05F10C08404655
:1091000006F0AFFF00283FF4BCAD04EB0A0393F870
:109110003A10D0E7484606F0ACFF0146002867D178
:10912000002A3FF402ADA06908F01AF801460028B1
:109130003FF4D6AB204615B0BDE8F04F00F010BEAE
:10914000484606F096FF002855D12846FFF7CEF98D
:10915000EBE452077FF5C4AB002B3FF495AB3046F0
:10916000FFF7C4F994F83930002B3FF470AB94F852
:109170002930052B0CD1618DA069C9B206F0B2FF70
:10918000054628B1638D2E4A2E48012106F0D3FCF6
:1091900094F82930032B11D1638D022B0ED1A18DB0
:1091A000A0690E0A0022314606F079FF054628B173
:1091B000254A24483346012106F0BDFC002384F8EB
:1091C0003930A846FFF743BBE38D002B3FF480AC5A
:1091D000291E18BF0121C90107F0DBFEFFF747BBBD
:1091E0004FF0FF38FFF7EBBB6FF01508FFF7E7BB59
:1091F000002A3FF49AAC2946204600F0B1FD002831
:109200007FF462ABA069036993F8801011F0040148
:109210007FF42DAB07F0B8FF064600283FF450ACB2
:109220000146204600F09CFD00283FF420AB054895
:10923000064A012106F076FC3046FFF746BB00BF28
:10924000E53C0300202E0300963D0300723D030021
:109250000B78062B10B414D10369D3F89C20EFF3DC
:109260001184202383F31288BFF36F8F4B68002093
:109270001860506A58B9C2E9083384F31188BFF303
:109280006F8F044810BC0022002308F0A5BF0360C4
:109290005362F2E7D805002030B589B000220023E0
:1092A000CDE9062300246FF00703CDE90334CDE9AF
:1092B00001441A4B1A4900944FF48062194804F093
:1092C000C9FA1949174809F0FDF8184B18498B429B
:1092D00007D3184B184900208B4210D3002009B047
:1092E00030BD03F11402BFF35B8F52E8000F42E878
:1092F0000045002DF9D1BFF35B8F1833E7E703F189
:109300001402BFF35B8F52E8004F42E80005002DC6
:10931000F9D1BFF35B8F1833DEE700BF95930200EE
:10932000401B0020E00B002024320300E406002054
:1093300014070020140700201407002038B50D463C
:1093400006F015FF30B9114A1148BDE83840012137
:1093500006F0E8BBC46804B938BD2B78032B05D0F0
:10936000052B0ED0022B08D02468F4E760688368D0
:109370005B69002BF8D09847F6E7606883689B69C3
:10938000F7E760688368DB69F3E700BFBD3D030072
:10939000302E03002DE9F04385B04FF0200800AFD8
:1093A0004FF0FF3374484FF0FF32391D03F0AAFD30
:1093B000FB681B69D3F89C40236A93B1EFF31182D9
:1093C00088F31288BFF36F8F256A2DB1616A2B680D
:1093D00023628D4208BF636282F31188BFF36F8FEF
:1093E000C5B93B79062BDBD0072BD9D801A252F89F
:1093F00023F000BF7194020065940200999402006A
:1094000077940200CF940200BB940200A193020063
:10941000699502002B7ED5F81E205E06294620465F
:109420001DD1FFF703FA06460028C5D0E9468AB0E9
:109430002B7E6A465149CDE907350523CDE9051054
:1094400042F8103F4E4800234FF42151FDF7D6FE5D
:109450003246CD460721204607F035F8ACE706F046
:10946000D6FEE0E700220121204607F02CF897E71E
:1094700000221146F8E794F86C3043F0040384F8B6
:109480006C3094F83030022B03D1391D2046FFF7A1
:1094900055FF00220321E7E794F86C3023F0040322
:1094A00084F86C3094F83030022B03D1391D2046FB
:1094B000FFF744FF00220221D6E794F83030022B58
:1094C0007FF46EAF391D2046FFF738FF68E794F848
:1094D0006C30A66923F0040384F86C30D6F8089049
:1094E0003369BFF35B8FD3F8A030BFF35B8F9A076C
:1094F0001ED5D9F83C3030469847D9F824300021A1
:1095000030469847D9F8403005463046984795B1DF
:109510001C4A1B48012106F005FB002204212046BD
:1095200006F0D1FF002D3FF43BAF2A4607219BE711
:109530004FF0FF35ECE72946204600F0ABF9054631
:1095400008B1114AE5E7A06907F03DFE831E5842C5
:10955000584194F86C3084F8305023F0680343EAA3
:10956000401384F86C30D8E7084A0548012106F01A
:10957000D9FABA68062177E7D8050020EC3D030048
:10958000302E0300163E0300443E0300703E0300ED
:1095900038B502460C490546806907F07AFE044654
:1095A00030B10A4A0A48012106F0BCFA204638BD0B
:1095B00085F83800284600F04FF804460028F5D01A
:1095C000A86907F099FEF1E751920200803E03007E
:1095D000302E0300F8B501231D460C68002C35D051
:1095E00063F07F02D6B202F07F02103224FA02F753
:1095F000FF0716D5046824FA02F7FF0708D433469C
:109600001348144A012106F096FA6FF01500F8BDD0
:1096100005FA02F224EA020404600C6824EA020457
:109620000C60DC40E6070ED5026822FA03F4E4077A
:1096300000D4E5E705FA03F422EA040202600A68AE
:1096400022EA04020A600133102BC6D10020DEE7B3
:10965000582E0300A73E03002DE9F04F8369026FE7
:109660001B6993F88030C3F34113022B8FB08346FC
:109670000ED0032B0ED0012B0CBF10230823D37167
:10968000DBF854800027B8F1000F05D14446D5E03F
:109690002023F4E74023F2E7D8F80430D8F80C5040
:1096A00003930C9704977DB9049B039A09339BB2EB
:1096B00093701B0AD3701771D8F80C40002C40F03F
:1096C000D380D8F80080DDE7686883681B6B0024CE
:1096D0000D94002B00F0B98021469847002800F037
:1096E000B480C5E90344031F02933E46029A52F830
:1096F000043F02920BB11A789AB9BE4240F2A2809E
:10970000EB680D9A1343EB60686883689B6A002BD3
:1097100000F09D8098470446002800F09B80594A3D
:1097200080E05A780B2A08BF9E70029B1B685A780B
:10973000042A10D1EA680D990A43EA60DA78002A0F
:1097400060D19E702B690122B240134301362B6118
:10975000F6B200230D93029BD3F8009099F80130E4
:10976000052BC3D1DBF8183008936FF012044FF0CB
:10977000010A99F8052099F8043043EA0223ADF86C
:109780002E300C9B069399F90230069A002B5FFA53
:109790008AF1BBBF41F080014BB24FFA8AF30793C5
:1097A000B9BF21F08003103307935346DA40D20744
:1097B0002FD40D9A059222FA03F3DB0729D499F8E6
:1097C000063099F80320089800930DF12E030991B3
:1097D00007F054FB09990446D8B9079B89F8021091
:1097E000002BBCBF21F08001103101238B40069873
:1097F0000599BDF82E20A9F8042019431843CDE996
:109800000C0173E7721E9A700DA90CA8FFF7E2FE17
:109810009FE70AF1010ABAF1100FAAD1002C3FF418
:1098200065AF194A1948012106F07CF9D8F80430CF
:109830005B79174A1548012106F07DF920460FB0E3
:10984000BDE8F08F6FF01504EBE73E465CE76FF084
:10985000850464E70146686806F0A9FC049B2D684E
:109860000344049337461EE7E368A36004F10C0148
:109870000CA8FFF7AFFE08B924681FE76FF01504C6
:10988000D4E700BFE83E0300C43E0300582E0300A7
:109890000C3F03002DE9F04105460E4606F0BAFAEA
:1098A00095F8383080463BB3284606F060FC074602
:1098B000F8B10146284606F0CAFC102204460021F1
:1098C00005F13A0009F021F8002385F83830FF68E7
:1098D00047B98CB1194A1A48012106F023F92046EC
:1098E000BDE8F081786883685B6A03B198473F6898
:1098F000EEE76FF03C04EDE71EB985F83860002410
:10990000EDE732464146284606F01DFC074690B179
:109910000246284606F0C5FC04460028DFD185F83B
:109920003860FC68002CEAD0606883681B6A03B169
:1099300098472468F6E76FF03C04D0E7FB3B030050
:10994000182E0300F8B504460E465768154606F073
:10995000F1FB94F86C30D9070BD5364A3648012113
:1099600006F0E0F86FF00F06201D06F0EAFB304627
:10997000F8BD012E07D1314A2F48012106F0D2F857
:109980006FF08506F0E7FB799A0607D5A3691B6996
:1099900093F880309B0701D4294AEDE7C6B9E36DFF
:1099A00053B9626DB2B9236F6A685B7C0133DBB275
:1099B0005371226F537418E09D4207D1214A1E480B
:1099C000012106F0AFF86FF01506CDE71B68E7E759
:1099D0001D4AD1E795421BD12A689BB9A36D6265E8
:1099E0009D4200D1A26500232B60A968B9B1204631
:1099F00006F0AFFA064670B1144A0F48012106F08E
:109A000091F8B1E71A60A26D954208BFA365EAE735
:109A100013461268C6E7A86806F01EFBB87100235B
:109A20002B60A36D1BB9C4E9155500269CE71D608A
:109A3000A565FAE75D3F0300182E03007F3F030092
:109A4000393F0300AD3F0300CA3F0300EA3F030074
:109A500080B500AF88B06A46094BCDE905304FF4B8
:109A60000073ADF81C30074B42F8103F0648002346
:109A70004FF4E251FDF7C2FB0020BD4680BD00BFA0
:109A80002140030003000001282E030070B50546A5
:109A900081B12846FFF7DCFF0024204670BD6368D3
:109AA00028461968FCF72CFB0028F6D01834B4427D
:109AB000F5D3EEE7014C024EF9E700BFE4060020C3
:109AC0001407002070B501F07F0311F0800F18BF5C
:109AD000103301259D4090F83030022B044606D00B
:109AE0000C4A0D48012106F01DF8002070BD90F8C9
:109AF000386006F08FF932460146204606F023FB17
:109B00000028F2D0C0680028EFD083681D42EDD154
:109B10000068F8E73F400300282E03002DE9F843D2
:109B200005460846114616461F46FFF7AFFF044696
:109B3000002848D0284606F033FB95F86C30DA0749
:109B400005D5224A2248012105F0ECFF0AE0D4F8AD
:109B5000048004F11409BFF35B8F6369BFF35B8F6B
:109B6000DB0707D56FF00F04281D03F0A1FA20468C
:109B7000BDE8F883D8F804301BB19D4201D0154AE6
:109B8000E0E73A463146284606F0DDFAC0B1002348
:109B9000236003698BB9C0E90344BFF35B8F59E8C5
:109BA000003F43F0010349E80032002AF7D1BFF338
:109BB0005B8F0024C8F80450D6E71C600461ECE712
:109BC0006FF03C04D0E76FF01204D0E75D3F030074
:109BD000282E0300644003002DE9F84F814600AFB2
:109BE00016469846002938D06FF085042046BD46B9
:109BF000BDE8F88F6C68B8F1000F04D0A8F1040B31
:109C00005BF8041FF9B92168334600224846FFF784
:109C100085FF0446E0B16B686D468AB01B686A46F2
:109C200010490796CDE905134FF40073ADF82030C5
:109C30000D4B42F8103F0D4800234FF41151FDF732
:109C4000DDFAAD46D2E72068FCF75AFA0028D7D1F2
:109C500018355545CED30024C8E7054DDFF814A0CC
:109C6000F7E700BF9940030004000001282E03001D
:109C7000E4060020140700202DE9F04F83B000AF68
:109C80004C687B6097F830303B600E4681469046CA
:109C900006F0C0F8A3681B6B014633B96FF01504DA
:109CA00020460C37BD46BDE8F08F20469847002877
:109CB000F4D0051F002406F10C0A55F8041F09B161
:109CC0000B782BB9002C14BF00246FF03C04E7E79D
:109CD0004B78042B0ED1002C3CD18B787A689342C0
:109CE000EBD1CB783A689342E7D10B79002BD7D0F0
:109CF0000124E2E7052BE0D1002CDED0B8F1010F02
:109D000091F802B009D0B8F1020FF1D1D9F81800DA
:109D10005246594606F054FB04E0D9F81800524662
:109D200006F032FB04460028E2D06D468AB0F368A4
:109D30006A4609490990CDE907B30623CDE905181C
:109D400042F8103F054800234FF44151FDF756FA01
:109D5000AD46A5E70024A3E7D1400300502E030041
:109D60002DE9F0410B7E0C465906054637D16BB301
:109D700006F089F840B11B481B4A012105F0D2FECC
:109D80004FF0FF30BDE8F0812846D5F87080268A74
:109D9000EF8D06F03FF8F8B1421E534253419B014C
:109DA000228A9AB1BE42E98D324628BF3A46914294
:109DB0000CD9B2FBF3F103FB11223AB994F9183034
:109DC000002BBEBF637E43F008036376A86921467B
:109DD000BDE8F04107F037B998F80730E0E76FF0D9
:109DE0001500CFE7482E03000D41030070B506466D
:109DF000EFF31181202383F31288BFF36F8F1B4D84
:109E00002A6881F31188BFF36F8F526892F86C2033
:109E1000D20705D4BDE870402122002303F032BCF4
:109E2000EFF3118283F31288BFF36F8F2C682CB18C
:109E3000696823682B608C4208BF6B6082F31188CD
:109E4000BFF36F8F44B1606804F10801C36998479C
:109E50000748214608F070F92B6833B130460022DC
:109E6000BDE87040002303F0D5BB70BDF00F0020AB
:109E7000A805002030B585B0CDE9001205460022C6
:109E80001448002303A902F0A9FF0246E8B9039B86
:109E9000DDE900015D60083383E80300EFF3118022
:109EA000202383F31288BFF36F8F039B1A600A4A43
:109EB000516861B9C2E9003380F31188BFF36F8F35
:109EC00006480022002303F0A5FB05B030BD0B605F
:109ED0005360F1E7A8050020F00F002000000020EB
:109EE00038B513464A78046945682069202A08D0A5
:109EF000222A1AD0FEF790F8134B6FF085021A5001
:109F000011E0CA88072AF5D16BB1DB681A68426094
:109F10009A8802819B79837206F0F6FA224608211C
:109F2000284606F0DEFA002038BDCB88002BE1D1B0
:109F30004B888381C3F3400203F00103027643762A
:109F400022460921ECE700BF0C00000008B51346CB
:109F50004A78212A14D133B9FEF75EF80B4B6FF023
:109F60000B021A500AE0CA8801690969072A28BF4A
:109F70000722043103F10C0005F019FF002008BD91
:109F8000FEF74AF8014B6FF08502EAE70C0000008B
:109F900073B504698DF807102025EFF3118685F35A
:109FA0001288BFF36F8F0122206C0DF1070105F0BD
:109FB000D2FC86F31188BFF36F8F012810D008F010
:109FC0007BFAB8B10F4BBFF35B8F012253E8001F40
:109FD000002903D143E800200028F7D1BFF35B8FAD
:109FE000237F2BB12122002304F1480003F012FB50
:109FF00002B070BDA37E002BE4D00021212008F028
:10A0000046FBCAE7F80F002038B505690E492B6CEE
:10A010000024C3E90144DC60AB6B05F14800C3E9EF
:10A020000144DC6008F03CFA05F17800074908F0CB
:10A030000BFA074905F1280008F006FA284606F051
:10A0400063FA204638BD00BFDB060300510A030057
:10A05000A30903002DE9F0470546D0F808A089467A
:10A0600090461F4606F044FE0446C0B1067DF30745
:10A0700009D5037E1648174A012105F05CFD6FF0F3
:10A080007700BDE8F0873B464246494606F0C8FDEA
:10A0900040B9237E104A0E48012105F04CFD6FF0B7
:10A0A0001200EEE79DF8203084F8198026F00606AD
:10A0B000678323772675DAF81830214628469847B3
:10A0C000227DB0FA80F35B0963F300022275D8E7C2
:10A0D000082E03006C4103008641030070B505465D
:10A0E000866806F005FE0446D0B1037DDB0708D480
:10A0F000037E0D480D4A012105F01DFD6FF077002C
:10A1000070BD0146F3692846984738B1237D03F0B6
:10A110000103227D63F300022275F1E70346F8E7AD
:10A120006FF01200ECE700BF082E0300A841030007
:10A130002DE9F341D0F808801746D8F83C300546A1
:10A140000E4698470C48002200233946FEF750F986
:10A15000044670B9094A0A4800963B46012105F0B9
:10A16000F4FC2846D8F840309847204602B0BDE8B5
:10A17000F0810676F5E700BF44060020C3410300E6
:10A18000082E030010F0080F0B4B42B20CD100F068
:10A190000F00002A4FF0140202FB0033B4BFD3F8C3
:10A1A0000806D3F808077047002AB4BFD3F8A806FA
:10A1B000D3F8A807704700BF00700240F8B5024608
:10A1C000EFF31181202383F31288BFF36F8F00F028
:10A1D000080507F0CAF80124844057066FEA040610
:10A1E0001BD0D5B9174F3B6823FA00F0C00714D530
:10A1F00033403B6053B2DB4322F08000DB0F00F2C0
:10A20000DA301B0103EB40030F48C0F80038D0F8E8
:10A21000043843F00203C0F804380C4803683340A4
:10A22000036035B90A480368120654BF334023431C
:10A230000360054BC3F86C4481F31188BFF36F8F43
:10A24000F8BD00BF541000200070024058100020DC
:10A250005C100020EFF31180202383F31288BFF3FA
:10A260006F8F0A4BD3F8001C032261B949F2753194
:10A27000C3F8001CC3F8142DC3F8001C80F3118828
:10A28000BFF36F8F7047C3F8142DF7E700E0064067
:10A29000EFF31180202383F31288BFF36F8F0A4BF3
:10A2A000D3F8001C61B949F27532C3F8002CC3F829
:10A2B000141DC3F8002C80F31188BFF36F8F704713
:10A2C0000022C3F8142DF6E700E0064070B5024600
:10A2D00007F04BF8EFF31185202383F31288BFF3C7
:10A2E0006F8F531E0124062B04FA00F40FD80E4E74
:10A2F0000E4B31681B680B43C34013F0010306D1BA
:10A300000B4802F59472214340F822303160094A2B
:10A31000136823431360084B8022C3F8042185F39C
:10A320001188BFF36F8F70BD541000205C100020A7
:10A33000007002405810002000E100E0F8B503066C
:10A34000044623D410F0080720D100F00F02920039
:10A3500002F1804202F51C32D2F84434B3B1EFF37B
:10A360001186202383F31288BFF36F8F06F0FDFF61
:10A37000084DC2F8A074012303FA00F12B6823EA08
:10A3800001032B6086F31188BFF36F8F024BC3F874
:10A390001845F8BD5C1000200070024010B591F91E
:10A3A0001800154B0A7E0028B4BFD3F81045D3F827
:10A3B000144502F00F020123934023420DD10E4AAF
:10A3C0000028B5BFD2F81005D2F8140503430343A3
:10A3D000B4BFC2F81035C2F814350B7E1A0709D481
:10A3E000054AC2F80C3543F48073C2F80C35087E78
:10A3F000FFF7A4FF002010BD007002400B7E064A4C
:10A4000013F07F0F0BBF012343F480735365C2F831
:10A4100018350020704700BF0070024070B5064636
:10A420000D4606F065FC044606F06BFC28BB204692
:10A4300006F08AFC08B3802D16D1437E9A0744BFEC
:10A440000E4A15705B070FD50D4B1B7813B90D4BDA
:10A4500001221A65204606F073FC002201463046B0
:10A46000BDE8704006F089BC2846FFF72FFF204664
:10A470000121BDE8704006F048BC70BDA317002064
:10A48000A81700200070024038B50C4606F030FCDA
:10A49000054606F036FCB8B9284606F055FC98B1DA
:10A4A0004CB9437EDA070FD49B0704D5074B1C70C9
:10A4B000074B0122DA642046FFF708FF28460121F6
:10A4C000BDE8384006F021BC38BD00BFA31700200E
:10A4D0000070024010B54468206801F07DF80D4B13
:10A4E00018600D4B1B782BB10C4B002218681146DD
:10A4F00006F037FC002201212720FDF781FC201DFA
:10A5000002F0EEF904F1080002F028FA07F048FD25
:10A51000002010BD0C100020A517002060100020A6
:10A52000012810B503461AD002280AD000BB144BEC
:10A5300002460146186806F014FC124B01221A70FC
:10A540000CE0114B114C00221A70114BC4F800336F
:10A550002720FDF725FC0123C4F8043510BD084B66
:10A5600000220146186806F0FCFB064B0022E6E7D5
:10A57000084A0948BDE81040012105F0DCBA00BFD7
:10A5800060100020A5170020A417002000700240D2
:10A59000FDFFDF01F1410300102E030001460148D9
:10A5A00008F088B93006002008B5054B1970054B36
:10A5B0001B7813B10420FFF7F1FF002008BD00BF96
:10A5C000A6170020A717002010B50469087E0D4AC1
:10A5D00006F0CBFE012303FA00F013680343136077
:10A5E00003F02AFC4020FFF7D9FF4FF0FF324FF075
:10A5F000FF3304F18401044803F080F803F030FCD9
:10A60000002010BD501000203C06002010B50C4664
:10A610002046114606F09AFB207E06F0A6FE014673
:10A62000034806F0B1FE0120FFF7B8FF002010BD7F
:10A63000A812002008B5064A0B7EC2F80C3543F478
:10A640008073C2F80C35087EFFF778FE002008BD45
:10A650000070024010B50C7E4FF0FF324FF0FF3318
:10A66000114802F0E1FD2046FFF7A8FD04F00F02BB
:10A67000012393400D4A14F0800F14BFD2F8101537
:10A68000D2F814156FEA030315BF0B400B40C2F854
:10A690001035C2F81435044802F090FD044B8022B6
:10A6A000C3F80421002010BD000600200070024005
:10A6B00000E100E02DE9F0434B4B076989B0064605
:10A6C000186007F1840007F096FD00220023CDE911
:10A6D000062300246FF00703CDE90334CDE90144DC
:10A6E000424B434900964FF40072424803F0B2F8DF
:10A6F000DFF8048141493F4807F0E4FED8F8102014
:10A700003F4B134043F4820343F04003C8F810303A
:10A71000C14688F818404146304606F0FBFA394BEE
:10A72000394A054678B1394A3948012105F0FAF924
:10A73000284609B0BDE8F083016919401143016161
:10A7400008F12008E5E70134092C10D009EB44108A
:10A75000082C817C41F040018174EDD1D9F81011B1
:10A760002C4808402C490143C9F81011E8E72B4C4C
:10A770002B4B2269134043F4041343F0400323613D
:10A780008046A14668F07F0121763046214606F0DA
:10A79000C1FA1C4B1C4A05460028C4D108F1010827
:10A7A000B8F1090F17D009EB4810B8F1080F817CF8
:10A7B00041F02001817408D1D9F8101115480840E2
:10A7C00015490143C9F8101103E00169194011430B
:10A7D00001612034D6E797F8803023F0760343F008
:10A7E000760387F88030A3E76010002025A80200D8
:10A7F000801F0020680C0020841100200842030004
:10A800000000BEFF0000F9FF4000060011420300F7
:10A81000102E03000000F7FFFF0108006410002065
:10A820000000DEFF2DE9F04FAC4D85B004464FF03F
:10A83000FF384FF0FF390022CDE900894FF0FF319A
:10A84000A74808F03EF8A6484FF0FF3108F035F869
:10A85000074638072ED5A34842464B4602F0E4FC93
:10A86000EFF31182202383F31288BFF36F8F9E4B87
:10A870001B787BB1D5F8003413F400730AD10121A1
:10A88000C5F82C15D5F82C15D5F80014890548BF46
:10A89000C5F82C3582F31188BFF36F8F914802F011
:10A8A0008DFC0121204606F003FA002203212046F8
:10A8B00006F057FAFE0608D50021204606F0F8F902
:10A8C00000220221204606F04CFAB80608D50021E5
:10A8D000204606F0EDF900220221204606F041FA5A
:10A8E000B9075CD4FA0710D5BFF35B8F7F4B00220A
:10A8F00053E8008F43E800210029F9D1BFF35B8FB3
:10A900000126B8F1000F40F0AB8079072FD5D5F8BC
:10A910008004C0B28DF80800D5F88414C9B28DF84F
:10A920000910D5F88834D5F88C2443EA02239BB269
:10A93000ADF80A30D5F89024D5F8946442EA06229E
:10A94000ADF80C20D5F89824D5F89C6442EA06228C
:10A9500092B2674EADF80E20002840F09A8005298B
:10A9600040F0978001213170002A00F09E807B0624
:10A970007FF55DAF206984304FF0FF324FF0FF3339
:10A9800002F024FB5B4E3168002940F0C3805A4836
:10A9900002F07EFE2069843002F08AFB47E7574BC5
:10A9A000BFF35B8F002253E8008F43E800210029AA
:10A9B000F9D1BFF35B8F4FF0010BB8F1000F91D0CD
:10A9C00098FAA8F3B3FA83F30F2B1E46C6BFA3F180
:10A9D0001006F6B246F080060BFA03F328EA0308E5
:10A9E0003306314620461FD506F082F9824606F02E
:10A9F000A7F9814650B9424A42483346012105F041
:10AA00009AF831462046FFF709FDD6E70021504667
:10AA100006F07BF900224946204606F0AEF9802E6A
:10AA200008BFC5F850B0ECE706F062F9824606F0C0
:10AA300087F9814650B9344A32483346012105F03E
:10AA40007AF831462046FFF71FFDB6E75046002151
:10AA500006F05BF900224946204606F08EF9F0E741
:10AA600098FAA8F3B3FA83F30F2B1946C6BFA3F1E4
:10AA70001001C9B241F0800106FA03F30A0628EA80
:10AA80000308204602D5FFF7C9FC3AE7FFF7FCFCB4
:10AA900037E71E4900233370D5F8702409789142B6
:10AAA0000AD11B4B00221A7013E003F07F03ADF8AC
:10AAB0000A30ADF80C20F4E7154901220A70327013
:10AAC0004FF4A062ADF80820D5F87024ADF80A2044
:10AAD000039302A9204606F077F948E70070024088
:10AAE0003006002000060020A4170020A812002035
:10AAF000A8170020501000203C060020A4120020BF
:10AB00002D420300102E030046420300A61700202A
:10AB1000A717002091FAA1F7B7FA87F70F2F394648
:10AB2000C6BFA7F11001C9B241F08001204606F06E
:10AB3000DFF8804690F818904FF0FF324FF0FF3367
:10AB4000134802F071FB4846FFF738FB104802F04B
:10AB500035FB104B8022C3F804214146204606F005
:10AB600024F90021404606F0D0F8BFF35B8F0123A3
:10AB7000BB40094ADB4352E8000F184042E800019D
:10AB80000029F8D1BFF35B8F326813403360FAE6D7
:10AB90000006002000E100E0A41200204FF08053E6
:10ABA000D3F83031082B02BF024B0022C3F81C2C13
:10ABB000704700BF007002402DE9F04105464FF09C
:10ABC000FF324FF0FF33414802F02EFB404B802212
:10ABD000C3F884212720FDF705F9A8B13D4F3E4B6E
:10ABE0003C681B686FF30F041C434FF00108002CF6
:10ABF00037D13A4E40F2FF133B602720C6F8044598
:10AC0000FDF7DCF8C6F80043354A13788BB1334BB7
:10AC10000021C3F808110121C3F80026C3F8041667
:10AC20005960D3F808110029FBD00021C3F808119E
:10AC300011702A4B0024C3F80045FFF7AFFF2348EB
:10AC400002F0BCFA21462846FFF748FAF0B1254A3F
:10AC50002548012104F066FF6FF004052846BDE891
:10AC6000F08194FAA4F6B6FA86F60F2E3346C6BFE4
:10AC7000A6F11003D8B243F08000030701D4FFF718
:10AC80009DFA08FA06F624EA0604B0E72846802171
:10AC9000FFF724FA05460028D9D1144B14491E6841
:10ACA000304604F0D0FD10F1780F044603D1304651
:10ACB00004F0A5FD0446002CD0DA0E4A0A482346CB
:10ACC000012104F038FF2546C8E700BF0006002038
:10ACD00000E100E05C1000205810002000700240ED
:10ACE000A117002063420300102E03000C10002067
:10ACF000FC0F0020864203002DE9F04FB24BDFF835
:10AD0000CCA2D3F85421B24F87B00AB30022C3F8C3
:10AD10005421D3F8042391021AD5D3F8C034002B60
:10AD200014BF4FF001224FF48072AA4B9B683BB9CD
:10AD30009AF8000006F019FB0123834022EA03027F
:10AD40003B681343A44A3B60136823F0012313605C
:10AD50009D4BD3F8604134B10022C3F86021D3F891
:10AD60006C44C3F86C44D3F828214AB10022C3F8DC
:10AD700028219A4B187806F0F8FA012383401C43E7
:10AD80009AF800509AF900802A0700F10581B8F17D
:10AD9000000FB4BF924B934B05F00F029200134487
:10ADA0001A684AB300221A602846FFF7EBF98E4B67
:10ADB0001A7800F0010050401870FFF7EFFE8B4B3F
:10ADC00028461A6806F0D1FAC240D307064600F1B9
:10ADD0001B81B8F1000F80F2E680882D00F0E3803F
:10ADE0007D4A01231168B3400B43136081238AF825
:10ADF0000030784802F0E2F98CB13B68764ADFF81F
:10AE0000F09124F001210B433B60136823EA010316
:10AE10001360A4B24FF00108002C40F0FB806A4B95
:10AE2000D3F800214AB10022C3F80021714B1A70F7
:10AE30006F4B0421186805F094FF634BD3F8582139
:10AE40002AB30022C3F85821D3F80044C3F80044C1
:10AE5000E00505D5674B012208201A70FFF79EFB1D
:10AE6000A10505D5634B002210201A70FFF796FB51
:10AE700062050CD55F4B1A784AB100221A70524B0A
:10AE80000122C3F8082520209A65FFF787FB4E4B67
:10AE9000DFF858B1D3F85C31F3B14E4B9B681BB966
:10AEA0009AF800305B0617D0474B0022C3F85C21AC
:10AEB000DBF80030484A23F00113CBF800303B6840
:10AEC00023F4803343F001033B601368042023F034
:10AED00001131360FFF762FBDBF800403B681C4086
:10AEE00000F03181384BD3F82C95B9F1000F40F0C8
:10AEF0002A8138480022002302F096F9002840F009
:10AF0000228114F001230CBF94FAA4F393FAA3F363
:10AF1000B3FA83F30293029B9DF808400F2BC8BF3E
:10AF2000103C334BCCBFE4B244F080041868214697
:10AF300005F0DEFE039005F007FF63B2049304F012
:10AF40000803059363B2002B064680F29A80039BA8
:10AF5000058A5B8BD0F80C80C3F30A039D4240F254
:10AF60008A801D46002608F06043B3F1005F06D0DA
:10AF700041462148DFF880802A4607F0B8FC002EC1
:10AF800000F0B180029B01229A40DBF8003023EAF6
:10AF90000203CBF80030A6E0184B194A33EA280325
:10AFA00028BF1346FCE61748314606F0EDF90220AB
:10AFB000FFF7F4FAB8F1000FFFF612AF013D062DCE
:10AFC0007FF60EAF12E700BF00700240A21700200C
:10AFD0005C1000200006002054100020A317002061
:10AFE0000871024030710240A11700205810002063
:10AFF00060100020A41700201010002050710240A3
:10B000002C710240A4120020002DD3D15A4B0122F2
:10B01000DA64EBE694FAA4F5B5FA85F508FA05F3D7
:10B0200045F080052946D9F8000024EA030405F01C
:10B030005FFE05F089FE06462846FFF7A3F80146A5
:10B0400006F10C0004F0D5FE338A002B7FF4E4AE49
:10B05000304605F07DFE18B1304605F07DFEDBE69A
:10B06000284606F082F90146444806F08DF9022090
:10B07000FFF794FAD0E605F06BFE80F00106F6B219
:10B0800071E704F008023C4B002A5FD0D3F8C034CB
:10B0900013F4803F08BF9946328AF368758A03EB40
:10B0A0000208AD1A72699B1AED1A4D4553D2344A03
:10B0B000344800954B46012104F047FD294606F12E
:10B0C0000C0004F06EFE039B5B8BC3F30A034B453D
:10B0D0007FF458AFF2687169738A521A9B1A328AE8
:10B0E00093423FF44FAF4FF080530121D3F83031FA
:10B0F000082B02BF204B8222C3F81C2C029B3A680B
:10B100008AF8004001FA03F322EA03023A6004F0ED
:10B110000802194B0ABB049A04F00F04002A4FF0EE
:10B12000140202FB0432A9BF0A3403EB8403C2F801
:10B130000087C2F80457AFBF43F82410C2F8008656
:10B14000C2F80456596007B0BDE8F08F04F5947258
:10B1500053F82290A0E74D46B0E7049A002AB5BF05
:10B16000C3F8A086C3F8A087C3F8A456C3F8A457B1
:10B17000B4BF59629964E6E700700240A41200204F
:10B180009D420300102E030010B5EFF3118420231D
:10B1900083F31288BFF36F8F164B1B7803F0FF0207
:10B1A000CBB11549D1F82C3513B30023C1F82C3598
:10B1B0004FF08053D3F83031082B0CD10F4BD3F81C
:10B1C000000CC02188B949F27530C3F8000CC3F8EF
:10B1D000141CC3F8000C84F31188BFF36F8F002A8E
:10B1E0000CBF6FF00A00002010BDC3F8141CF2E77A
:10B1F0001A46F0E7A41700200070024000E0064065
:10B2000073B500220092114640230446FEF722FF48
:10B21000024648B1604A6148012104F083FC6FF0A6
:10B220000404204602B070BD0090402320468021D7
:10B23000FEF710FF04460028ECD15949594B4860ED
:10B24000C860012618688E6004F08EFA051E07DAC1
:10B25000554A52482B46314604F06DFC2C46E0E737
:10B26000EFF31185202383F31288BFF36F8F4F4BC9
:10B270004FF40062C3F8002406F069F808B1FEF745
:10B28000E9FF4FF08053D3F83031082B18D1EFF39A
:10B290001180202383F31288BFF36F8F444BD3F8C0
:10B2A000001CC022002970D149F27531C3F8001C7E
:10B2B000C3F8142CC3F8001C80F31188BFF36F8F00
:10B2C0003A4B0122C3F80025D3F800241205FBD520
:10B2D0004FF40062C3F800244FF08053D3F83031AC
:10B2E000082B17D1EFF31180202383F31288BFF3CB
:10B2F0006F8F2F4BD3F8001C002949D149F27532CA
:10B30000C3F8002CC3F8141CC3F8002C80F3118878
:10B31000BFF36F8F06F01BF830B1FEF7B9FF06F0F0
:10B3200016F808B1FEF796FF4FF08053D3F830318E
:10B33000082B1E4B0AD140F2E372C3F800284022CA
:10B34000C3F80428BFF36F8FBFF34F8F8022C3F879
:10B350001C250122C3F83025164B40F2FF121A605B
:10B36000154B00211960154B1960154B1970FFF72B
:10B3700015FC144B197005F0EAFF08B1FEF788FFC1
:10B3800085F31188BFF36F8F4BE7C3F8142C93E755
:10B390000022C3F8142CB9E7BC420300102E0300AE
:10B3A000FC0F00200C100020DE4203000070024061
:10B3B00000E006405C1000205810002054100020CF
:10B3C000A1170020A3170020084B70B5C31A0D4623
:10B3D00007499B10044659430648402206F019F8D5
:10B3E0002B4601462046BDE870401847C012002099
:10B3F000B76DDBB6682A030073B50C4C0C4A4023CA
:10B40000041B00930D460B460A49A41061430646EF
:10B41000094806F02AF8014628B130462B4602B00A
:10B42000BDE87040184702B070BD00BFC0120020D8
:10B43000D7140300B76DDBB6682A03000022F8B505
:10B44000012105461046FCF7DBFC104800F098FF90
:10B450000446B8B900F0B4FF2F690D49384604F02E
:10B4600070F9031E09DB01263E642D69084905F1C8
:10B470001C0004F066F9031E02DA1C462046F8BDE3
:10B48000EE64FBE76FF00404F8E700BFBDB502000F
:10B49000003003001FB500220123CDE902236C46D2
:10B4A000074A6B46CDE9004406F00EF828B94FF480
:10B4B00080420023684601F0B7FE04B010BD00BF13
:10B4C000E914030010B5EFF31184202383F31288ED
:10B4D000BFF36F8F074A136823F00201DB07116087
:10B4E00002D4012006F056FA84F31188BFF36F8F5F
:10B4F00010BD00BF1013002030B4104B0C2202FB13
:10B50000003301460020D3E90E529863EFF3118017
:10B51000202484F31288BFF36F8F1C6C04F0C004E6
:10B5200044F002041C6480F31188BFF36F8F1DB1D7
:10B530002B46034830BC184730BC7047C01200206F
:10B54000682A030010B4EFF31180202282F31288DE
:10B55000BFF36F8F17490B6843F0020413F0010328
:10B560000C601AD04FF08043D3F80C14D3F80C348D
:10B5700013F0010311D0EFF3118182F31288BFF3AE
:10B580006F8F0D4A136C03F0C00343F00203136482
:10B5900081F31188BFF36F8F012380F31188BFF30C
:10B5A0006F8F1BB110BC0020FFF7A6BF10BC01209D
:10B5B00006F0E8B910130020C012002010B10128D5
:10B5C00004D07047034B1B6C5B0701D1FFF794BF9E
:10B5D000704700BFC0120020024AC3B21C2000FB0B
:10B5E00003207047C0120020F8B52A49BFF35B8FD3
:10B5F0000546012251E8003F41E800200028F9D12A
:10B60000BFF35B8F33B9244924484B60CB608A6019
:10B6100004F0AAF86B1E012B3BD8012D07D14FF087
:10B620008043D3F81C3403F00303012B31D006F020
:10B6300043FFA0B91A4B1E784FF080440223C4F890
:10B6400008330127D4F81824D4F81834D20308D4C6
:10B65000002EF7D00021212007F019F8F2E700268C
:10B66000EAE703F00303012B0ED0D4F818354BB9E9
:10B67000D4F8042132B1C4F80431D4F80431C4F848
:10B680001875A760012DE3D14FF080430222C3F863
:10B690000423F8BDBC120020AC120020DC120020F4
:10B6A000CD17002008B5074806F0ABFC38B10648B6
:10B6B000FCF75CFE0448FBF705FA002008BD6FF0BC
:10B6C0001200FBE7D82A0300CDB602000A2838B5DD
:10B6D000074D044604D1AB680D215B6828469847A6
:10B6E000AB6803485B68E1B29847204638BD00BFAD
:10B6F000D82A03002DE9F043476840F20636D00609
:10B700003B7C87B002EA060654BFC2F3401C4FF0F0
:10B71000030C01F01F05B6F5837F144645EA431577
:10B720008DF803C044D00DD8062E16D005D8A6B18A
:10B73000022E3FD06FF0150037E0B6F5807FF9D1CB
:10B7400001260AE040F20222964235D0B6F5407F4B
:10B7500034D0B6F5007FEDD10226220330D57A68C9
:10B7600001238B40C2F80835B868A0BB05F01F0361
:10B770006D092DD0012D77D13E4A02EB8302C4F32F
:10B780000043D2F8001783F00103C4F3404444EAB5
:10B79000430421F4E16144EA8C0421F0070144EA06
:10B7A00006230B43C2F80037002007B0BDE8F08342
:10B7B0000726D2E70426D0E70526CEE70326CCE706
:10B7C000630341BF01237A688B40C2F80C35CBE795
:10B7D0004FF0A042D1E70DF10202294606F04AFBE4
:10B7E00014F4403F80460CD1B868294606F077FB38
:10B7F000B8F1000FD8D19DF80210B86800F078FFBA
:10B80000D2E74FF0000901ABCDE90199CDE9043948
:10B81000CDF80C90B86803AA294606F000FA48450E
:10B82000C2DB14F4003314D0C4F300449DF8033099
:10B830008DF80E3084F001048DF80C608DF80D4009
:10B84000B8684B4603AA294606F09CFA0028CFDACE
:10B85000AAE7CDE904330DF103030393B86803AA03
:10B86000294606F0DCF9F1E703F5E07350F82330E0
:10B87000FFDE00BF00030050420970B5034602D04E
:10B88000012A17D070BD0D4E326951680029F9D0D8
:10B8900003F01F0301250C689D400029F2D08A683F
:10B8A0002A4002D04B68304698472CB12368214685
:10B8B0001C46F2E7024EE7E72346F8E7A02A03001A
:10B8C000842A030038B54568A86890B106F001FBEA
:10B8D000014670B9A86806F0E0FA044658B9024675
:10B8E0000649A86806F0C3FA224605210620FCF79F
:10B8F00087FA002038BD6FF00400FBE779B802003A
:10B90000F0B544681646A068227C01F01F0587B098
:10B9100045EA421500286DD0B6F5001F04D129462E
:10B9200006F030FB002056E06268607CC2F8240517
:10B9300001AA0020B6F5800F0190506037D1B3F115
:10B94000007F14BF052304238DF804300023CDE9C4
:10B9500004230393E36823FA01F111F001010DF1CF
:10B9600003073AD1B6F1A07F37D105F01F036A096A
:10B9700003F5E07326D0012A3FD1214A52F8233043
:10B98000DB072AD4A0683A46294606F073FA163037
:10B990001BD00297A06803AA294606F040F90028A8
:10B9A00019DBA0680122294606F09BFABAE7B3F139
:10B9B000C06F05D0B3F1007F14BF01230223C3E79A
:10B9C0000323C1E74FF0A042D8E7A068394600F052
:10B9D00095FE0028DDDA07B0F0BDA0683A4629469A
:10B9E00006F048FA0028D5D19DF80310A06800F0B1
:10B9F0007FFECFE76FF08500EDE751F82330FFDEE3
:10BA000000030050036803F01F025B09026004D0CA
:10BA1000012B034818BF002070474FF0A04070472B
:10BA2000000300502DE9F04F00EB8108444985B038
:10BA30001746824640F2FF19D04501D1002021E08F
:10BA4000DAF80000C0F3C72B1BF0080BC0F3C323C8
:10BA5000C0F3080471D13B4A4C4508BF4FF0FF3496
:10BA6000B0F1E06FD55C4FEA106307D2013B052BC4
:10BA70000BD8DFE803F01A205C23585C4E2B59D01A
:10BA80006FF0850005B0BDE8F08FC7F80C45621C6B
:10BA900046D003A80394FFF7B5FF039B012606FADF
:10BAA00003F3C0F80835304618E0C7F81445631CA6
:10BAB00036D00026F7E7C7F80845E8E7C7F8084595
:10BAC0000026601C2CD003A80394FFF79BFF039B68
:10BAD0008446012000FA03F3CCF80C35DAF8003084
