:020000022000DC
:10600000804D00207D96020097EC03006996020007
:10601000699602006996020069960200000000007D
:10602000000000000000000000000000B596020023
:106030006996020000000000B5980200699602000F
:10604000319902001D6E030031990200319902005E
:106050003199020031990200319902003199020010
:106060003199020031990200319902003199020000
:1060700031990200319902003199020031990200F0
:1060800031990200319902003199020031990200E0
:1060900031990200319902003199020031990200D0
:1060A00031990200319902003199020031990200C0
:1060B00031990200319902003199020031990200B0
:1060C00031990200319902003199020031990200A0
:1060D0003199020031990200319902003199020090
:1060E0003199020031990200319902003199020080
:1060F0003199020031990200319902003199020070
:1061000053B94AB9002908BF00281CBF4FF0FF311E
:106110004FF0FF3000F00CB8ADF1080C6DE904CE83
:1061200000F012F8DDF804E0DDE9022304B0704766
:10613000704700BF10F8012B11F8013B012A28BF5E
:106140009A42F7D0D01A70472DE9F0478C468E4618
:10615000089E154604461946002B40F0D080724533
:1061600047D9B2FA82F74FB1C7F120030EFA07FC04
:1061700020FA03F3BD4043EA0C0CBC404FEA154E35
:10618000A8B2BCFBFEF8230C0EFB18CC08FB00F9F0
:1061900043EA0C43994528D9EB1808F1FF3204D2A1
:1061A000994502D9A8F102022B44A3EB0903A4B23A
:1061B000B3FBFEFC0EFB1C330CFB00F044EA034473
:1061C000A04214D92C190CF1FF3304D2A04202D9F9
:1061D000ACF102032C44241A43EA02401EB1FC40F5
:1061E000002334607360BDE8F0874246DDE7634614
:1061F000F1E7002A79D0B2FA82F3002B3FD019469A
:10620000C1F1200302FA01F52EFA03F20EFA01FEA3
:1062100020FA03F343EA0E034FEA154E00FA01F4A5
:10622000B2FBFEFCAFB20EFB1C201A0C0CFB07F8F5
:1062300042EA004290455AD9AA180CF1FF3004D224
:10624000904502D9ACF102002A44A2EB08029BB2AD
:10625000B2FBFEFC0EFB1C220CFB07F743EA0243D9
:106260009F4246D9EB180CF1FF3204D29F4202D96B
:10627000ACF102022B44DB1B42EA004202E0AEEB2F
:10628000020301224FEA154EAFB2B3FBFEFC200C15
:106290000EFB1C330CFB07F840EA034398452AD950
:1062A000EB180CF1FF3004D2984502D9ACF1020092
:1062B0002B44A3EB0803A4B2B3FBFEFC0EFB1C3380
:1062C0000CFB07F744EA0344A74216D92C190CF13A
:1062D000FF3304D2A74202D9ACF102032C44E41BE1
:1062E00043EA00400F46114678E71F2188E76046E1
:1062F000ABE76246BFE76046DBE76346EFE773451F
:1063000006D916B9002108466DE7C6E9000EF9E77F
:10631000B3FA83F787B9734501D3824207D8841A49
:106320006EEB030301209C461EB900215BE7384653
:10633000FAE7C6E9004CF8E7C7F1200CBB4022FAA7
:106340000CF51D4320FA0CF12EFA0CF30EFA07FEA1
:1063500041EA0E014FEA154900FA07F4B3FBF9F8D8
:106360001FFA85FE09FB18300B0C08FB0EFA43EAF6
:1063700000439A4502FA07F240D9EB1808F1FF30C2
:1063800004D29A4502D9A8F102002B44A3EB0A03D8
:1063900089B2B3FBF9F809FB183308FB0EFE41EA9A
:1063A00003418E452CD9691808F1FF3304D28E457C
:1063B00002D9A8F10203294443EA0040A0FB029855
:1063C000A1EB0E014145CE46434602D306D14C45D2
:1063D00004D2B9EB020E68EB05030138002EA4D0FD
:1063E000B4EB0E0261EB030101FA0CFC22FA07F395
:1063F0004CEA0303F940C6E9003196E74046C5E799
:106400004346D9E7000000002DE9F843D0E90738FA
:10641000856903EB08042F34A5420F46164619D8A8
:10642000DFF86C80A3FB080117A3D3E90023FFF773
:1064300067FE0346601BA0FB080123F07F4412A304
:10644000D3E90023FFF75CFE20F07F403C60306022
:10645000BDE8F883DFF838900BA3D3E90023A5FB50
:106460000901FFF74DFE20F07F440A480A2106A3E8
:10647000D3E90023E8FB0901FFF742FE20F07F404B
:106480003C603060BDE8F8838D49FD1A07000000CC
:1064900000CA9A3B00166BF1002800F04E812DE9EE
:1064A000F04FC94C94F85E2012F001058DB040F019
:1064B0003181607EFF2300F00300A37610F0FCF82A
:1064C00094F85E00420700F12981627F94F8293038
:1064D00004EB820204EB8303166AD3F82C8086B1A6
:1064E000B948314609F0A0FF33785B0605D506218F
:1064F00004F04CFE002800F05281B348414609F0F8
:1065000093FF337813F00E0F40F08C8063690BB16A
:106510000C2000E107F056FA8146002800F04C817B
:1065200007F05CFA8246002800F043810AF0C0FAC6
:106530000546002800F05C81C06E4FF6FF73AB8407
:1065400005F1100B002800F04F8105F1600205F104
:106550005C0104F027FEB5F8583023F4EF6323F014
:10656000070343F48C7343F00103A5F8583095F802
:10657000373003F03F0363F07F0385F8373095F839
:10658000723023F0070385F8723095F83C3023F021
:106590000F0385F83C307F23002785F8B6304FF491
:1065A000C023C5F86E312846C5E91277EF66A5F815
:1065B000707085F839706F85C5F82E702F65A5F855
:1065C0004071A5F87471A5F86A710CF0ADFB85F8FF
:1065D0004471C5F848910AF097FD95F87C3160F355
:1065E000020385F87C310AF095FD95F87C3160F363
:1065F000C50385F87C3195F8423167F3410385F88E
:10660000423105F1C4000CF099F9C4E9159AC4F8B7
:1066100014B0C5E902772F702D6111F0B7F800288A
:1066200040F0C380237E0121C3F342030DF12B0010
:106630008DF82B3004F058FF024600287FD04146E9
:10664000304609F0E9FC614A614BB4F85C800721EF
:10665000E0FB023100251846C4E9025558A3D3E9EE
:1066600000232570FFF74CFD606006F0A1FC00F1EF
:106670000907B8F1000F07D1357805F00F05A5F12E
:106680000105B5FA85F56D09207E636865F30000A4
:1066900010F00105207659D04E4A09920020106072
:1066A00002254D4ADFF8348104930BAE0193059225
:1066B0000321CDE90200069400903B46CDF81C80F2
:1066C00008962A460B9506F045FB314607F0FCF983
:1066D000A8BB434905914AF2D8330093CDE90300A2
:1066E000CDE90100CDF81C80089606943B460122B6
:1066F00003210B9506F0FAFA314607F0E5F9F0B9F7
:1067000094F85E3043F0010384F85E300AF082F8BA
:10671000002846D000200DB0BDE8F08F2A4604F1D5
:106720005F01C0F3C00010F02BF9FF28A0763FF402
:10673000CCAE284610F006F8C7E609F001BC636944
:10674000002B3FF4E5AE09F0D1FBE1E6214A2548F4
:10675000049303F247130694029591211360A8FB5A
:10676000000301FB08311D4B07931B4B05934FF6AC
:10677000FF7309924FF0020803930BAE10A3D3E905
:106780000023CDF82C800896FFF7BAFC3B46CDE9F4
:10679000005042462846032106F0DCFAACE71220FE
:1067A000B9E701200FF06AFFB4E709F09FFB03206F
:1067B000B1E7484607F00CF90720ACE7AFF30080DB
:1067C0008D49FD1A070000001C20002000CA9A3BDA
:1067D0008C49FD1A1020002091000300C9D002004E
:1067E000ADFD0200002AE78405F16400E866ACE62E
:1067F000504607F0F9F8484607F0EAF8DCE700BF32
:1068000070B5037E8AB0C3F342030D4604460121EE
:106810000DF1230016468DF8233004F065FE314655
:106820000246284609F0F8FB1D4A1E4B0721E0FBF3
:106830000231184618A3D3E90023FFF761FC63680F
:106840009842054621D21B1A00220192164A029351
:10685000164BA21AA3FB02320221520900230A445A
:1068600009AE099112490591CDE90333032106963A
:10687000D2B20093184606F0C3FA314607F024F965
:1068800038B9656000200AB070BDFBD9C21A002378
:10689000DBE70C200AB070BD8D49FD1A070000002F
:1068A00000CA9A3B8C49FD1A1C2000204FECC44EB4
:1068B000C9D002000000000038B51B4C9DF810E064
:1068C00094F84CC01CF0010524D163F3420C400144
:1068D00094F83830A4F842104FEACE0E0EF0180E9D
:1068E00000F0200040EA0E0023F0380303430F4875
:1068F00084F838309121A2FB000384F84CC001FBDE
:10690000023107A3D3E90023FFF7FAFBC4E9110022
:10691000284638BD0C25284638BD00BFAFF300809F
:106920008D49FD1A07000000F00A0020002AE784C4
:1069300010B504469DF8080062864FEA411CC0006D
:1069400094F8281000F018000CF0200C4CEA000C11
:106950000B4821F038014CEA010CA3FB0002912105
:1069600084F828C001FB032103A3D3E90023FFF728
:10697000C7FB606310BD00BF8D49FD1A0700000012
:10698000002AE784000000002DE9F047044600F1EA
:106990003B0190F84C0094F83830574DDFF85C918B
:1069A000C0F3400060F386138CB084F8383006F0F2
:1069B0004FFB94F83820B4F842305148246102F07B
:1069C0007902002784F838209121A3FB0002C4E952
:1069D0000277277001FB032145A3D3E90023FFF7CA
:1069E0008FFB484AA36C6364651BA2FB0525093332
:1069F000C5F38715984205EB45028FBF63600346D8
:106A00006060676449F82230064606F0D1FA63698F
:106A10004FEA450A00F10907002B4BD00DF12C0875
:106A2000AA4409EB8A030993CDF820800694B4F8B0
:106A3000423033489121A3FB000201FB0321324B7A
:106A40000793324B0593636804934FF0000928A322
:106A5000D3E900234FF0020ACDF82CA0CDF80C901A
:106A6000FFF74EFB104619464FF47A720023FFF7EA
:106A700047FB0435EDB2CDE901600321CDF800906C
:106A80003B462A46484606F065F9414607F01CF8A1
:106A900060B994F84C3043F0010384F84C3009F0AD
:106AA0009BFC08B300200CB0BDE8F0870C200CB0B4
:106AB000BDE8F0870DF12C08CDE90A336168434643
:106AC0000AAA032001F004F90028A9D10B99104863
:106AD00007A3D3E90023A1FB0001FFF711FB0A9BE9
:106AE00020F07F471F449BE750460FF0C7FDD9E7D2
:106AF0008D49FD1A07000000F00A00208C200020BC
:106B0000002AE784CDCCCCCCC9D002003D060300DE
:106B100000CA9A3B000000002DE9F04F05468BB0FB
:106B20008B46012002219946144613F027F90022D2
:106B300002218246012004F089FB31494FF4C072E2
:106B4000284604F00FFB461D2E4B0093F6B201952C
:106B50004B4632460121002006F0A0F910F0FD0F4F
:106B600046D1294BA4FB0348204623A3D3E90023A5
:106B70004146FFF7C5FA254B20F07F47A7FB0331BD
:106B80000722E01A02FB071168EB01014FF47A7249
:106B90000023FFF7B5FA95F937206B681C4C089570
:106BA000002AB4BF1B4A1C4A0695CDE904324FF6B1
:106BB000FE73CDE901700393CDF800B04B46324629
:106BC00001210020079406F091F810F0FD0F0DD17F
:106BD000BAF1000F02D10BB0BDE8F08F0122022103
:106BE00010460BB0BDE8F04F04F030BB00DEEFE71D
:106BF00000DEB6E7AFF300808D49FD1A0700000004
:106C0000400B00208909030000CA9A3B8D49FD1AF8
:106C100071090300A1580300ED59030000000000B2
:106C20002DE9F0418468A28C4FF6FF739A428CB034
:106C300000F0DE80054620460CF044FB2B7D012B46
:106C400000F00481022B00F0D68033B994F8723042
:106C500003F01803182B00F04C8194F84471002FB6
:106C600040F0CC802B8AE68D94F93720CDE90A7765
:106C7000002B00F0CA80002AC0F251810023A4F842
:106C80007031AB7CA28D03F00303551C012BADB218
:106C900000F0D880B4F87431002B00F0DD80AB42F6
:106CA00040F267815B1B9BB2062BA4F874314FF056
:106CB00000028CBF00230123E2851F4694F83C208C
:106CC00063F3820284F83C2029460DF12702204616
:106CD0000CF066F8743000F04681B4F86E312BB1D8
:106CE000AB4240F2F6805B1BA4F86E31B4F86A3117
:106CF0002BB1AB4240F2E6805B1BA4F86A31E58D14
:106D000017B9AE4200F0DC800135ADB294F8B53071
:106D100013F001060AD1DDE90AC3002B53D1BCF1FF
:106D2000000F00F018811E4619464DE094F93720F7
:106D300023F00103002A84F8B530C0F2A78094F84C
:106D40005800C0F3C00100F0070010F09DFB94F85C
:106D5000583003F00703032B00F2A68003F128014B
:106D6000C9005B10D94094F85930B1F5A07F03F009
:106D7000070338BF4FF4A071032B00F29E8003F18C
:106D80002802D2005B10DA40B2F5A07F38BF4FF482
:106D9000A072E38B03F23F1303440B441344964861
:106DA000964A0721E3FB020191A3D3E90023FFF7F1
:106DB000A7F9616820F07F408142DDE90AC380F0D5
:106DC000C480461A60600021A28C24690694CDE933
:106DD000035705328A4D0291CDE900C6D2B2012196
:106DE0000020059506F00CF810F0FD0F40F0C6806D
:106DF0000CB0BDE8F0813D2784F844713946204647
:106E00000CB0BDE8F0410AF059BA002AB8BF84F8C6
:106E1000B970AB7CA28D03F00303551C012BADB2FE
:106E200010D0B4F87031002B3FF434AFAB4240F2D5
:106E3000AC805B1BA4F87031B4F87431002B7FF484
:106E40002EAF3BE70023A4F8743137E70023A4F802
:106E50006E31A4F86A3100E7E38C052B8BBF40F25A
:106E6000E2424FF4FA725A4303FB0222B4F8723141
:106E700042F2107101FB0323013BB3FBF2F39BB21F
:106E8000A4F87431002B7FF40AAF17E794F8590087
:106E9000012100F0070010F0F9FA94F8583003F0DF
:106EA0000703032B7FF65AAF94F8593003F007031A
:106EB000032B4FF429617FF662AF4FF4296268E734
:106EC0003D4623E70023A4F86A3120460BF0FAFF81
:106ED00015E706F0C9FD014600285DD00023A4F89F
:106EE0006E31A38CC3801B230371006806F08EFDF6
:106EF000FCE6218DB4F86C218B1D9A42C4BF931F10
:106F00005B1AB4F86811CCBF9BB21346994256D0B5
:106F1000A4F86831A4F86A31A4F86E219DE694F8CB
:106F2000B930002B3CD0013B84F8B93004F1C408DF
:106F300040460BF045FD002855D040460BF040FD83
:106F4000002842D00023E38598E6091A6060A3BBBD
:106F500051EA0C021ED115B9002F3FF449AF0026AB
:106F60003146334630E79DF8271020460AF0A6F94F
:106F70003EE7082120460AF0A1F939E706F0CEFDE8
:106F800084423FF435AF00DE32E73E2120460AF06E
:106F900095F92DE71E4617E70123A4F86E31A5E603
:106FA0000AAA0BA92846FFF72FFADDE90A231343A3
:106FB000BCD0237884F8B930B8E7002604E7B4F8E9
:106FC0006E1100297FF449AEA4E70246D4E9170107
:106FD00004F000F90028B5D194F83C301B0744BFF9
:106FE000238DE3854AE6FF200AF006F9A5E700BFF6
:106FF0008D49FD1A070000008C49FD1A00CA9A3B12
:10700000C9090300000000002DE9F04F87B0B0F877
:107010004071BDF84C900091CDE90432B0F80431D4
:10702000BDF840A01F44BFB20446A7EB090390F887
:107030005800D4F8FC809EB2BDF844300193C0F3F0
:10704000C001BDF84830039600F00700029310F02D
:107050001BFAE58C052D3BD915FB06F5BAF1050F9A
:10706000ADB240F2E24B3DD994F858304FF0961251
:1070700003F00703E261032B4FF09602228440F2F3
:10708000FB8094F8592002F00702032A4FF429618B
:1070900000F2038102F12803DB005210D340B3F564
:1070A000A47F38BF4FF4A4730B4400F2D5100344FF
:1070B000854A86480721E3FB020181A3D3E9002327
:1070C000FFF71EF8564620F07F4040F2E24314E0FE
:1070D000039B013515FB03F5BAF1050FADB24FF473
:1070E000FA7BC1D84FF096130AF10106E3619623AB
:1070F0002384B6B20A204FF4FA730BFB05F203FBAC
:1071000006F6531E3344B3FBF6F31FFA83FB6060AD
:1071100006FB0BF082425D4680F0A0806A49801A2F
:10712000A0FB010166A3D3E90023FEF7E9FF20F0ED
:107130007F408044B4F80421B4F84031A9EB07093A
:107140004D44ADB213442B44A4F84031638D134435
:107150001D4494F837306585DB0900F0A180216C6F
:10716000A36C594F01FB0233039A01FB1233A36452
:107170000023C4F8C03010F05DFB054694F8B80059
:10718000C0F3420010F058FB054406FB05F5504BD8
:107190004E4805F5742505F23F25A3FB0535AD0CDA
:1071A000A36C25640BFB05FB72085B44963A934283
:1071B00028BF1346C4E91123059B40F2E24909FBAD
:1071C00003F307212365EBFB07013DA3D3E900236C
:1071D000FEF796FF049BA8EB00083E48A0FB033097
:1071E000800A09FB00F0A0FB070135A3D3E90023C7
:1071F000FEF786FF751B20F07F47019B2385029BCE
:10720000A4F8723131462046A4F826A00BF0F4FD14
:10721000314B218D3344881DB3FBF6F39AB2904273
:10722000A4F86C2104D2C1F57F41FA310A4492B22C
:10723000009BA4F8682113B10023A4F874314346DD
:107240002A4639462046FFF767FC94F8423143F05E
:10725000010384F8423107B0BDE8F08F121A1A48D2
:10726000A2FB000116A3D3E90023FEF749FF20F09B
:107270007F40A8EB00085DE703F1280194F859204E
:10728000C9005B10D940B1F5A47F02F0070238BFF6
:107290004FF4A471032A7FF6FDAE4FF4296303E790
:1072A000049B0948A3FB000105A3D3E90023FEF7D3
:1072B00027FF20F07F47013735469EE7AFF3008078
:1072C0008D49FD1A0700000000CA9A3B8C49FD1A3F
:1072D00083DE1B435917B7D17FC3C90100000000EB
:1072E0002DE9F04F0D46166895F81180096814468F
:1072F000027FD1F8009093B08346C2F38012D0F899
:107300001E008DF83720B8F1FF0FBBF82220109037
:10731000ADF8442057D110AB93E803000E90ADF8C0
:107320003C105A46BBF82E1052F82EAB9278A2723F
:107330002181DBF82A206260DBF83A20C4F82220A1
:1073400004F122009BF83E200271052104F0CCF8E4
:1073500094F8272000F03F0060F3050284F827200E
:107360009BF83F20C2F3040184F82810BBF83410C6
:10737000E182012802F01F0289B20AD91B3202F011
:107380001F020B2A05D8063989B240F67A4291428B
:1073900025D90021C9F8081094F82C2061F30002C7
:1073A00084F82C20DBF80C400125504659468BF818
:1073B000045006F01FFB20682571214606F026FBCD
:1073C00013B0BDE8F08F0EAA0DF1370140460EF064
:1073D0009FFE9DF8372002328DF83720A1E72A68FA
:1073E00000215160BBF83620E78A228340F2E24355
:1073F00003FB07F73046BBF832300B930BF010FD60
:107400009BF83F2096F8B810520962F3430186F8C2
:10741000B81010F00FFA0A9096F8B800C0F34200C6
:1074200010F00AFA0A9A104407FB00F0C04A00F56F
:10743000742000F23F20A2FB00207A08800C963ACC
:10744000206362639BF8312040F2E24303FB02F2C7
:107450006264BBF83820A6F87221394630460BF03A
:10746000CBFCB44AB449C6F878113A44B2FBF7F2FF
:1074700090B2A6F86C01218B01F1060C604504DD89
:10748000C1F57F41FA31014488B25A46A6F8680135
:1074900012F81C3FC3F34013D2070A9300F139815D
:1074A0004FF48072ABF81C2099F81A000FF0A0FB83
:1074B000002800F00881DBF82420CBF82B20BBF853
:1074C0002820ABF82F20B8F1FF0F00F01C81BDF889
:1074D00044201098ABF82920CBF825009DF83720E0
:1074E0008BF81E200E98BDF83C20CBF81F00ABF89F
:1074F0002320E28AABF83220228BABF83420B6F896
:107500007221ABF8362096F8B820C2F342028BF80D
:107510003820304609F0D8FAA082ABF80600D5F83A
:1075200004805046594606F065FA1C23A28A88F862
:1075300004300A9BD8F800A0A8F80620002B40F0E1
:10754000D580DDF828B088F81CB04146504606F0DA
:107550005DFA94F8483003F00703032B00F2BB8078
:1075600003F1280B4FEACB0B5B102BFA03FBBBF5A7
:10757000A47F38BF4FF4A47B94F8490000F00700C3
:10758000032800F2A58000F128084FEAC80843103C
:1075900028FA03F8B8F5A47F38BF4FF4A478012186
:1075A0000FF074FF82460AF2D51208EB0B03634812
:1075B000DFF88C8113440721E3FB08014FF0961399
:1075C000C4E9033358A3D3E90023FEF799FD20F063
:1075D0007F407060EB680B98226B40F2E24101FB48
:1075E000003404F2B3440221A41A0120BF1A00227D
:1075F00003F02CFE484608F0D5FEA4EB0A044AA38B
:10760000D3E900238246A4FB0801FEF779FDCDF8FB
:107610000490AB684B49009120F07F480AF10202C8
:10762000363BD2B243440121002005F037FC01284B
:1076300071D099F81830DB0750D4304609F044FA7D
:107640003F4CA7FB044938A3D3E9002383464946AE
:107650002046FEF755FDAB683B4A0792A3F1360A78
:107660003A4B069620F07F47A7FB0331E01A384BD0
:1076700005934FF4F8730893736804934FF007036E
:1076800003FB071169EB010100244FF47A72002318
:107690000394FEF735FD0BF10505EDB2CDE9017060
:1076A000CDF8008053462A460121204605F01EFBF6
:1076B00010F0FD0F35D101220221104603F0C6FD66
:1076C00013B0BDE8F08FCBF82B00ABF82F00FAE633
:1076D0004FF4296863E74FF4296B4DE7002301223B
:1076E00000931846114605F0A3FBA6E794F827304F
:1076F00043F0400384F82730201D0EF0F3FA4FF0DA
:10770000010B20851FE70021CBF82510ABF82910CD
:10771000E4E600DEC4E606F001FA814589D000DE29
:1077200087E700DEC7E700BF8D49FD1A07000000AC
:1077300083DE1B437FC3C901404B4C008C49FD1ABB
:1077400000CA9A3B29590300795803008D49FD1A54
:10775000A1580300000000002DE9F04F8BB0CDE9E7
:10776000040103930020BDF858309DF85480BDF803
:107770005CB0BDF860A00693164609F057F80028E3
:1077800000F0418108F001090446484605F052FC2A
:10779000B9F1000F67D1636904F110020792002B61
:1077A00068D067693D6897F84800C0F3C00100F0F1
:1077B00007000FF069FEFB89B34A00F2CF300344A3
:1077C000B2480721E3FB0201ADA3D3E90023FEF792
:1077D00097FC20F07F40686030460EF08FFFFF235B
:1077E00084F83A3094F8393023F0020384F83930C1
:1077F0006EB3A8F10203012B40F2098194F84C10FA
:10780000039D68F3420184F84C1094F8391065F335
:107810000001DDE9042384F8391014990968A16195
:1078200014998988A183A4F824A004F1100000967B
:107830000021FFF77DF8A0640FF0A8FF002840F0BA
:10784000F1802046FFF7A0F80BB0BDE8F08F0FF0F5
:10785000D5FA0028CDD01499039832460FF090F84D
:1078600084F83A00C5E7062103F090FC002892D185
:107870001220E9E706F0A6F80790002800F0EF8054
:1078800009F016F90546002800F0E680143005F1ED
:10789000100703F03DFE002840F0E780032105F1CA
:1078A00018000FF001FDE86E069BA5F828B04FF612
:1078B000FF72EB84AA84002800F0D38005F15C01FC
:1078C00005F1600203F06EFCB5F8582022F4EF6277
:1078D00022F0070242F48C7242F00102A5F858200F
:1078E00095F8722022F007024FF0000B85F8722005
:1078F0007F22C5F86CB0A5F870B0A5F82AB0C5F81D
:107900002EB085F8B62005F132000EF09FF995F8FB
:10791000372060F30502012185F837200DF127009B
:107920000FF0C2FC9DF82710594A069B85F839B024
:10793000A2FB0102D20802EB4202A1EB820195F800
:107940003720A5F840B102F03F0285F8372095F8BE
:107950003C20A5F874B1053122F00702A5F86EB1FC
:10796000A5F86AB185F8381085F83C20298D494A78
:10797000A5F872A140F2E24B0BFB03FB06205A4430
:10798000A5F8700101F1060CB2FBFBF290B2604564
:10799000A5F86C0102DD0638401A80B2A5F868012E
:1079A00028460BF0C1F9594628460BF025FA4FF04E
:1079B000000B079BC5F8483185F844B109F0A4FBDA
:1079C00095F87C2160F3020285F87C2109F0A2FB86
:1079D00095F87C2160F3C50285F87C2195F8422159
:1079E0006BF3410285F8422105F1C4000AF0A6FFBD
:1079F0004FF09612C5E907226761C5E902BB85F819
:107A000000B02D61CFE60C200BB0BDE8F08F002058
:107A10000EF098FE94F8393043F00203C84684F81B
:107A20003930EBE66569EB6D2BBB05F1500105F1D3
:107A30004C0003F0BBFBE0B12E68E865D6F84801C6
:107A4000A8B105F0C5FF304609F038F8002303203F
:107A500063610BB0BDE8F08F079805F0B9FF072010
:107A6000F2E605F16400E86628E700DE16E700DECE
:107A7000E7E700DEE0E700DED7E700BFAFF3008016
:107A80008D49FD1A0700000000CA9A3B8C49FD1A77
:107A9000ABAAAAAA7FC3C9012DE9F04F04468DB055
:107AA000077F238D406AADF82C30E30715460E465C
:107AB000C7F3C0120A90C7F340170DF1280800F170
:107AC000F1800023A383B37C707C13F001031BBF00
:107AD000D4F81E30C4F82B30C4F82B30638CA4F8D3
:107AE0002F30FF2800F0C48004F11F0204F11E01B2
:107AF0000EF00EFBB8F80430A4F82930A37F0A98E2
:107B0000C4F825000233A3773368D3F800A0EB8ACA
:107B100063862B8BA386BAF82430E3860FF088FEA9
:107B200084F83800D5F80090484608F0CDFF0021D1
:107B3000A882E08048460BF073F9206821467468FB
:107B400005F058FFAA8AD4F80080E2801C23237134
:107B5000002F40F09B8027772146404605F056FFD6
:107B600095F84800B5F816B0F46840F2E243C0F367
:107B7000C00100F0070003FB0BFB0FF085FC0022A7
:107B8000A4EB00080221012003F060FB504608F03E
:107B900027FE494CA8FB044845A3D3E9002305462A
:107BA00041462046FEF7ACFACDF804A0B36843493D
:107BB000009120F07F472A1D363BD2B23B44012181
:107BC000002005F06BF910F0FD0F6FD14FF0000AA7
:107BD000534603220121CDF800A0504605F028F9B4
:107BE000484608F071FF0546334831A3D3E9002326
:107BF000ABFB0001FEF784FA1946314BB6680893D7
:107C0000304B069340F27233CDF81C900993D9F8AB
:107C100004308346CDE904A3104600234FF47A7262
:107C2000FEF76EFA284B0722A7FB0331CDE902B01D
:107C300002FB0711E01A68EB01014FF47A7200238E
:107C4000FEF75EFA0535363EEDB2CDE900703346FB
:107C50002A460121504605F065F810F0FD0F23D1AA
:107C60000122022110460DB0BDE8F04F03F0EEBA3C
:107C7000B8F80400A4F8230000210A98C4F82510DD
:107C8000A4F82910A277C4F81F003DE795F8273023
:107C900043F0400385F82730281D0EF023F8012714
:107CA000288558E700DE0CE700DED9E700DE8DE727
:107CB0008D49FD1A0700000000CA9A3BE1590300F4
:107CC000E5590300ED5903008D49FD1A000000003D
:107CD0002DE9F04F91B0FF270B930B1D0A93002362
:107CE000CDE90D33054616468DF833709B46089353
:107CF0003C46984699460DF1340A0FAB0693664B05
:107D00000593664B03930EAB0020CDE900A302233D
:107D10000F930490029033460DF13302294605F08B
:107D2000F5F8022813D00F9BBBB9FF2C18D033688D
:107D3000434515D0002F00F09280013FFF24FFB291
:107D40008DF83340D9E72946002005F01FF90F9B35
:107D5000022BF8D00F9B002BE7D000DEFF2CE6D1E2
:107D60009DF83330FF2B4AD0052BC6D1002008F0F8
:107D7000B3FE0028C1D090F93730002B25DA4368D4
:107D800009939DF83330052B15D0FF2CDDF8348096
:107D900007D05946404605F00DF90A9B4B449842DE
:107DA0002FD80E9BDDF824909DF833400893C346EE
:107DB000D6F80080A1E7002008F08EFE0028E4D06D
:107DC00090F93730002BE0DA97E790F85800C0F3CD
:107DD000C00100F007000FF057FB314A314B00F5AE
:107DE000B75015300721E0FB0231184626A3D3E92E
:107DF0000023FEF785F920F07F430993C1E7FF2CAC
:107E00002FD029480721A9FB000301FB093120A33A
:107E1000D3E90023FEF774F9044600B13E34089B11
:107E2000224AA3F57423A3F5107393421ED81E486B
:107E30000721ABFB000301FB0B3115A3D3E90023A2
:107E4000FEF75EF9089A1A4BA3FB022304EB934456
:107E50000B9B044400201C6011B0BDE8F08F00DED5
:107E60006BE76FF0090011B0BDE8F08F089B03F1DC
:107E7000E87303F5D43303F5A5730BF1FF3B0893C7
:107E8000D5E700BFAFF300808D49FD1A0700000061
:107E900000CA9A3B00000000F15B0300F55B0300A1
:107EA00000CA9A3B8C49FD1A8D49FD1ABFBDF07F6F
:107EB00083DE1B43000000002DE9F043C6684768DD
:107EC00073683D491A68D0F80090A7F57423A3F5AC
:107ED00010738B4283B0804607D907F1E87707F526
:107EE000D43709F1FF3907F5A57773685168DD8A42
:107EF000CDF8049006F1100301AA0220FFF7E8FE76
:107F000000284ED10199A1EB09031B0237D4084682
:107F1000494605F04FF8034628480721A3FB000215
:107F200001FB032122A3D3E90023FEF7E9F834691A
:107F30000444002C346109DB40F2E24305FB03F307
:107F4000A3422FD2E41AA342FCD33461D8F8003004
:107F50001A48A3EB0903A3FB0002072101FB03213D
:107F600013A3D3E90023FEF7CBF8154BA3FB073788
:107F7000A0EB97402044306103B0BDE8F083484651
:107F800005F018F803460D480721A3FB000201FB8A
:107F9000032107A3D3E90023FEF7B2F83469241ABA
:107FA000C7E73469002CD1D103B0BDE8F08300BF2E
:107FB00000CA9A3B00000000BFBDF07F8D49FD1A4A
:107FC00083DE1B4300000000F0B5C468636883B023
:107FD0000546002B54D111F0CBF8002011F024F904
:107FE0000021084611F0DCF800222521082011F0BC
:107FF00079F9414B019301A811F060F93F4940F232
:108000005B6011F02DFA237AC3F3420262F3061388
:10801000237220460FF0A0FD0EF0F0FE637A03F00D
:10802000030348BBFBB927682E6838460FF0E6F912
:1080300006446A6806F10901012011F085FC11F07F
:1080400061FD204608F0BAF9811C3246C9B23846B3
:108050000FF0D6F9054600BB20460FF09DF9D0B9C8
:10806000002003B0F0BD01200EF0FEFA4178821C22
:10807000007811F009FCD6E7181E18BF0120F3E7BD
:1080800093F82C309B07A6D01D48214611F044F8E8
:1080900011F08CF9E4E700DEE2E71A4A1A491B48BE
:1080A00040F2114316F0ADFC194B0721A5FB030369
:1080B00001FB05310EA3D3E90023FEF721F8154992
:1080C0000246154816F09DFC002585F31188BFF384
:1080D0006F8F0323184602DF1048214611F01CF869
:1080E00011F064F96FF08B00BBE700BFAFF30080C5
:1080F00000CA9A3B00000000D6BE898E5555550037
:108100004575030014210400602104009C20040034
:108110008D49FD1A6423040064210400457803009E
:108120002DE9F041C46894F92830002B8CB0C0F2DE
:10813000D480636805460E46002B40F0C38094F857
:10814000283023F0010384F8283011F011F80020C2
:1081500011F06AF80021084611F022F808200022E8
:10816000252111F0BFF8012005F076FD002800F070
:10817000BB801C3011F0E6F8754B0B930BA811F087
:108180009DF8744940F25B6011F06AF994F8280098
:10819000C0F3410025300FF043F96F48214610F03D
:1081A000BBFF94F828309B0603D46368002B00F0D3
:1081B0008680962011F0BCFB00231A46194618460B
:1081C00011F010FB0EF01AFE002840D194F8283070
:1081D00013F0180F53D1D4F800802F6840460FF0E9
:1081E0000DF907446A6807F10901002011F0ACFBA2
:1081F00011F088FC11F024FB204608F0FDFA011D67
:10820000C9B240463A460FF0FBF88046002871D1CB
:1082100016B9636B002B3BD163687BB12B68A361FC
:108220006B68E3614D4B646204F1180199600122AF
:108230000221002003F03EF8002859D120460FF01B
:10824000ABF8002852D100200CB0BDE8F08194F8C2
:108250002800C0F3C0000EF007FA07460DF12B000E
:108260000EF0EEFC79788046BA1C387811F00CFBE1
:108270009DF82B000022414611F0DAFCABE701200B
:108280000EF0F2F94178821C007811F0FDFAA2E7B5
:10829000334A0792334A059240F2F3120093089250
:1082A000CDE90366CDE9016606943B4631460322DB
:1082B00004F01CFD10F0FD0FAED000DEACE711F0B5
:1082C000A7FA7FE7636893F82C30D90705D4636871
:1082D00093F82C309A077FF532AF2348214610F0EF
:1082E0001BFF11F063F8AEE700DE42E700DEAAE70D
:1082F00000DEA3E71D4A1E491E4840F2E51316F0B2
:1083000080FB1D4B0721A8FB030301FB08310EA3D3
:10831000D3E90023FDF7F4FE18490246184816F089
:1083200070FB002585F31188BFF36F8F0323184678
:1083300002DF1448214610F0EFFE11F037F86FF01D
:108340008B0081E7AFF3008000CA9A3B0000000079
:10835000D6BE898E55555500298402000C04002094
:108360000D80030015800300457503009021040073
:10837000602104009C2004008D49FD1A7023040034
:1083800064210400C180030038B504460FF056FE96
:1083900094F8283094F82820C3F34103013303F004
:1083A0000303032B08BF002363F3420214BF03F14E
:1083B0002500252084F828200FF032F863680BB1DF
:1083C00023694BB904F0F4FDC11C002011F01EFB21
:1083D000BDE8384011F096BB11F046FB054604F0AD
:1083E000E7FDC11C002011F011FB11F08BFB11F017
:1083F0003BFB294604F0DEFD094A03460721A0FBAA
:10840000020201FB032104A3D3E90023FDF778FE58
:1084100023691B1A236138BD00CA9A3B0000000083
:108420008D49FD1A000000002DE9F04F8BB0044685
:1084300011F000F8C0B2002800F0158111F01CF80E
:10844000054611F055FA074611F05CFA814611F025
:108450004FFC064611F02EFC824611F00BFAEDB2ED
:10846000804611F0E3F90FF025F845B9BE482146E2
:1084700010F052FE0BB0BDE8F04F10F097BF012096
:1084800005F0EAFB0546002800F0BE8117F0FF0763
:10849000F6B240F0F180002E40F0E8804FF0FF0986
:1084A0003A464B46314620460FF052FF0028DDD0B9
:1084B0002A7F616800238DF823305FFA88F702F085
:1084C0000F03002900F0FB80616891F82C108807E9
:1084D00000F1F580072BC9D094F82810090740F166
:1084E0002D81002B40F0D2806B7F063B1F2BBDD827
:1084F000042005F0B1FB0028B8D011F00BFB636B32
:10850000804643B9638E40F2712202FB03F3B0FB55
:10851000F3F203FB120823685A68944B0721A2FB6D
:10852000030301FB02318EA3D3E90023FDF7E8FD2D
:108530006FF4427C00EB0C031F3B62EB02024345ED
:1085400072F1000292D311F063F963680793484611
:108550000EF05CFB94F829309907804640F1E081E9
:10856000002800F0DD8183464FF0010A10F092FFF1
:10857000CDE902AB09AB049305F11E0301932B7FF8
:10858000C3F3801301468246009300220123204654
:108590000FF0FAFE504610F0DBFE10F041FF00280D
:1085A00040F0E1817248214610F0B6FD002F40F006
:1085B000D081626892F82C3043F0010382F82C30AD
:1085C00094F8283043F0800384F8283005F060FBED
:1085D000172202714FF6FF72C2802A7F0746534668
:1085E000C2F340100AF1200107F11C02D3F800E0A9
:1085F000D3F804C09D68D3F80CA0C2F80CA01033C7
:108600008B42C2F800E0C2F804C0956002F110028B
:10861000ECD11B6813603B7FBC6060F345133B7774
:1086200011F022FA002E3861099B7B6108BF4FF0E0
:10863000FF0987F8199094F82930BA7EC3F34003F4
:10864000B8F1000F0CBF002303F0010363F3000235
:10865000BA7605F01DFBF860386839460BB0BDE806
:10866000F04F05F043BB0EF025FFFFE65FFA8AF0FE
:108670000EF014FB814613E794F828005FFA89F1A5
:10868000C0F3C0000EF0E6FA814609E7012B40F086
:1086900090806A7F0C2A7FF4E9AE2A7FCDF80090A3
:1086A000194600230193D20905F1240320460FF057
:1086B000D5FD00287FF41CAF2B7F03F00F03002BA8
:1086C00058D16B7F9A1F1F2A3FF6D0AE94F828200E
:1086D00002F02102202A07D16268002A00F0B4804B
:1086E000063B1F2B3FF6C2AE63682BB12B7F03F016
:1086F0000F03072B7FF4BAAE03209DF8238005F00B
:10870000ABFA054600283FF4B1AE05F0C1FA4FF6CA
:10871000FF73EB8005232B71EFB97F20AB7E2876AA
:10872000002E08BF4FF0FF0968F34103286885F861
:108730001990AB76294605F0D9FA97E6B9F1FF0F03
:108740008DF82490C2F3801860D094F82A209145C7
:108750003FF4C7AEB3E711F07DF8C0B2DEE700BF6B
:1087600000CA9A3B00000000D98003008D49FD1A21
:10877000E5810300062BA4D04521D94011F0010169
:1087800040F0F580012B1BD16B7F0C2B7FF46EAE7C
:108790002A7FCDF800900DF123030193D20905F152
:1087A000240320460FF05AFD50B16B7F002B9BD164
:1087B0005CE6062B85D04522DA40D30700F1D7804E
:1087C0002B7F03F00F03042B7FF450AE6B7F063B2F
:1087D0001F2B3FF64BAE94F82830DB077FF546AEF3
:1087E00010F058FE2B7F0278C3F38013B3EBD21F37
:1087F0007FF43CAE0830062205F11E0119F0B8F9ED
:1088000000287FF433AED0E700DE3FE605F11E0A14
:1088100009AA514640460EF095FA00283FF44CAFA5
:1088200094F8293003F0010343457FF445AF5146E6
:10883000062204F1080019F09BF900287FF43CAFF0
:108840002B7F03F00F034CE69620079211F070F88F
:10885000079A104610F0B2FF032005F0FDF980469C
:1088600000283FF403AE05F013FA4FF6FF73A8F8A3
:108870000630052388F80430002F70D17F23002EA6
:1088800088F8183014BF4B46FF2388F8193098F841
:108890001A30D8F8000023F0020388F81A30414655
:1088A00005F024FA10F0F6FD06460322337862F351
:1088B000030333702B7F3278C3F3801363F3C71243
:1088C0000C233270484673700EF0A0F994F82920FA
:1088D00092072CD558B33178324641F0400102F866
:1088E000021B0168C6F8021083889380D5F81E30F9
:1088F000B3606B8CB381304610F02AFD10F090FD10
:1089000098BB11F0FFF894F828301A4843F001039F
:10891000214684F828300BB0BDE8F04F10F0FCBBC6
:1089200094F828A004F12B0BCAF3801A1EE694F8E1
:1089300028303278C3F3801363F38612334603F88A
:10894000022BD4F82B20C6F80220B4F82F209A80EE
:10895000CCE710F07FFF079B83F8A60029E610F014
:1089600079FFC3B28BE700DE1CE600DEC9E76B7F50
:10897000B6E600BFED8003002DE9F043C468A28A8B
:108980004FF6FF739A4283B000F0FF8006460FF067
:1089900005FE3389628B208C94F82710A3831A4438
:1089A00092B2104480B2431C23840023638301F0FD
:1089B0003F034906E28300F1A68094F82810009353
:1089C00004F1290004F122030DF04EF90546D4E923
:1089D0000C31A26BA08BA36303FB0022E36B8A42E2
:1089E00094BF9B185B188B4228BF0B46626CE363F5
:1089F000236C94F849101A4494F82C3061F3061350
:108A00000021C4E9101294F8622084F82C3012F08E
:108A1000040200F08B8010F0ABFB002010F004FC8F
:108A2000201D10F04BFC2389A17A40F25B6043EAE1
:108A3000014110F015FD28460EF0F2FC21465A487F
:108A400010F06AFBA08910F073FF94F8482094F8A6
:108A50004900C2F3C003002102F0070200F0070042
:108A600010F0C0FE20460FF059FED4F800803768A1
:108A700040460EF0C3FC0744726807F1090100206C
:108A800010F062FF814611F011F8002011F028F873
:108A9000E36B94F8490003F12F02636C012100F0AD
:108AA000070003EB420510F065FC4D44054494F8C3
:108AB000490000F00700022836D004280CBF4FF40C
:108AC000BC73282301211D4410F056FC284410F0EB
:108AD000DFFF10F0B5FEA18A05313A46C9B2404623
:108AE0000EF08EFC0546A8B1B37A13F002062BD027
:108AF00000252E48214610F00FFB10F057FC2846A9
:108B000003B0BDE8F083218D04F122020DF0EEF8F0
:108B100005465CE720460EF03FFC00283CD10025CE
:108B2000284603B0BDE8F0831823CBE7D4E913014E
:108B300002F050FB00287FF46EAF94F8623043F0EF
:108B4000040384F8623066E7194A1A491A484FF458
:108B5000AC7315F056FF19480721A5FB000301FB74
:108B600005310FA3D3E90023FDF7CAFA14490246E1
:108B7000144815F046FF86F31188BFF36F8F032367
:108B8000184602DF6FF08B05B3E70F48214610F05F
:108B9000C3FA10F00BFCC2E700DEC0E7AFF30080C1
:108BA00000CA9A3B00000000718903002175030090
:108BB000DC210400602104009C2004008D49FD1A82
:108BC00084230400642104004575030000000000B4
:108BD000F0B5C468A28A4FF6FF739A4285B000F0E0
:108BE000AD8005460FF0DAFC2B89628B208C94F85F
:108BF0002710A3831A4492B2104480B2431C2384EA
:108C00000023638301F03F034906E28366D494F8AE
:108C10002810009304F1290004F122030DF024F838
:108C20000646204603A90FF039FE039B94F8621014
:108C30001A7861F3C3021A70039A94F862301178BB
:108C4000C3F3400363F38201117010F091FA002026
:108C500010F0EAFA201D10F031FB2389A17A40F2CE
:108C60005B6043EA014110F0FBFB30460EF0D8FB9D
:108C7000039920460FF0E8FD2146374810F04CFAE2
:108C8000E08910F055FE94F8490000F0070010F05C
:108C900095FD27682E6838460EF0B0FB064406F1B5
:108CA00009016A68012010F04FFE10F02BFFA18A25
:108CB00005313246C9B238460EF0A2FB0646A0B1D5
:108CC000AB7A13F0020518D000252448214610F095
:108CD00023FA10F06BFB284605B0F0BD218D04F19E
:108CE00022020DF003F806469BE720460EF054FBE7
:108CF00058BB0025284605B0F0BD194A19491A4845
:108D00004FF4807315F07DFE18480721A6FB000381
:108D100001FB06310EA3D3E90023FDF7F1F9144955
:108D20000246144815F06DFE85F31188BFF36F8F6E
:108D30000323184602DF6FF08B05C6E70E48214675
:108D400010F0EAF910F032FBD3E700DED1E700BF04
:108D500000CA9A3B000000008187030021750300D0
:108D600030220400602104009C2004008D49FD1A7B
:108D700090230400642104004575030013B50446E4
:108D80001E491F4816F045F910B1002002B010BD71
:108D90001C491B4816F03DF90028F6D11A4918481D
:108DA00016F037F90028F0D11849154816F031F9B6
:108DB00001460028E9D1164A114816F011FC014677
:108DC0000028E2D1134B0E48012201F0B7FE034602
:108DD0000028DAD1014600900246094816F013F83F
:108DE0000748012116F033F80CB90548CEE70448CE
:108DF000214616F0C2FE0028F7D0C6E7B4000020D6
:108E00000C0800209C000020840000206C00002042
:108E100040000020781F040008B5FFF7AFFF08B935
:108E2000002008BD034816F027F80028F8D10148B3
:108E3000F7E700BF0C08002008B50020FFF7ECFFA3
:108E400028B9084815F0D0FD6FF0120008BD16F0E3
:108E500043F820B1044815F0C7FD0020F6E70348A9
:108E6000F9E700BFC7240400E7240400FC24040041
:108E700008B5024815F0B8FD002008BD172504000C
:108E8000014B1B68184700BFCC00002030B50446DA
:108E900085B00D4610220021684618F061FE0223BD
:108EA0008DF802302A46044B01932146684615F09E
:108EB0005BF905B030BD00BF818E02002DE9F0479F
:108EC000058B0446280717460CD501290CBF45F031
:108ED000100545F02005258387F31188BFF36F8FB8
:108EE000BDE8F087022905F0070540F09480204690
:108EF00015F0AFFD052864D801A353F820F000BF9A
:108F0000D98E020017900200C38F0200858F0200E5
:108F10009F8F0200B18F020001F007035A1F012A40
:108F20001FD8002221F00701062BD4F8008089B257
:108F3000C4E9002209D1434603E0628B0132628317
:108F40001B68002BF9D141F002012183204615F066
:108F500080FD4FF0000900286DD041F020012183F1
:108F600069E0042B0AD121F0070189B22183204650
:108F700015F06FFD10B141F0200121834FF0000882
:108F8000C14658E02369D3F80090238B23F00703F0
:108F900043F0060323834FF0000846464BE0236965
:108FA000D3F80490238B23F0070343F00403F1E785
:108FB0002369D3F80890238B23F0070343F00503BC
:108FC000E8E74FF00008C146E7E7012243F0080355
:108FD000238387F31188BFF36F8F002A3BD1B8F149
:108FE000000F4AD1B9F1000F02D02D492046C847E1
:108FF000EFF31187202383F31288BFF36F8F238B46
:1090000023F008039BB22383D9063FD523F0100237
:10901000228303F007056669218B002EBFF67CAF23
:109020000023D4F8008021F00701C4E9003341F0A7
:10903000010121839946238B03F0070AAA4502D038
:10904000A268002AC1D1B8F1000F02D1B9F1000F16
:10905000DAD00022BAE7A1680029C0D00D68002943
:10906000BDD04F68334652462046B8471DB12B68E5
:1090700029461D46F3E72B46FAE74146334652465A
:109080002046D8F8008015F010FDA8E79A067FF575
:1090900023AF23F02002228303F0070527E700BF58
:1090A000D7EA0300014B036000207047801F0400D3
:1090B00007B51B491B4815F0ACFF70BB1A4919488E
:1090C00015F0A7FF48BB1949164815F0A2FF20BBB1
:1090D0001749144815F09DFFF8B90146154A114883
:1090E00016F07EFAC8B9024613490E48012316F05D
:1090F00051FB90B901230093014602230948EF2256
:1091000015F081FE48B9074815F0B6FE28B90548A4
:1091100003B05DF804EB15F0DFBE03B05DF804FBAF
:1091200044010020900700202C01002014010020A1
:10913000FC000020D00000205225040080B5054628
:109140000E461746984614F0C1FC034600F002FC98
:10915000DFF81890044649F8003042463046394658
:10916000A84754F8090000F08FFB00BF080000007A
:1091700008B50348034A0021121A15F084FD08BD02
:10918000A0080020F82E00200748084A084908B522
:10919000121A15F07AFD0748074A0849BDE8084049
:1091A000121A15F072BD00BF00000020A0080020B8
:1091B000E42A04000000002000000020E42A04004B
:1091C00038B505460C4699B1D1E901230F48096825
:1091D00015F00AFCD4E90423E1680D4815F004FCFD
:1091E000E1690C4815F000FCA1690B4815F0FCFB87
:1091F000012D05D1EFF305810848103915F0F4FB76
:1092000021462846BDE8384013F0A0BA6B2504007B
:109210009B250400CB250400DB2504000A2604005E
:1092200030BFFFF7FDBF00BF2DE9F0410B4EDFF867
:10923000308006EB0807CC1B05463246094920461C
:1092400018F067FCA01942460021083C18F088FC81
:10925000EC6707F10800BDE8F08100BF00000000E6
:1092600008000000501F04002DE9F843324D8046ED
:1092700032488946174615F0B7FBAB6ADE0622D5A1
:109280002F4815F0B1FB1124AB6A1D0703D52D48FB
:1092900015F0AAFB1224284DAB6A980715D52A4869
:1092A00015F0A2FB6E6BAB6A190642D52748314612
:1092B00015F09AFBB9F1000F03D0AB6A23F08003DD
:1092C000AB62132403E01024DEE76FF015061A4D9D
:1092D000AB6ADA0703D51E4815F086FB1424AB6A87
:1092E0009B0603D51B4815F07FFB1524124B9A6A89
:1092F000D50602D49A6A90070AD55B68190507D586
:109300004146304600F076FA10B180F30988022415
:10931000094B9A6A920642BF5A6A22F400525A6274
:109320009A6A42F0FF029A6200233B702046BDE831
:10933000F8836FF01506C4E700ED00E01E26040078
:1093400035260400692604007D26040096260400C4
:10935000AD260400CD26040010B51D4C1D4815F0A7
:1093600043FBA36A990130D51B4815F03DFB1E2035
:10937000A36ADA0103D5194815F036FB1F20144CF7
:10938000A36A1B0303D5164815F02EFB2120A36A00
:10939000590303D5134815F027FB22200C4CA36A70
:1093A0009A0303D5104815F01FFB2320A36ADB03A3
:1093B00003D50E4815F018FB2420054A936A6FEA7E
:1093C00003436FEA1343936210BD1D20D0E700BF33
:1093D00000ED00E0FD260400162704002A27040003
:1093E00045270400642704008A270400A5270400F9
:1093F00070B5244C064624480D4615F0F5FAA36ACC
:10940000D90435D5214815F0EFFA1720A36A1A05BB
:1094100003D51F4815F0E8FA18201A4CA36A9B05DB
:109420000FD51C4815F0E0FAA16BA36A180407D504
:10943000194815F0D9FA1EB1A36A23F40043A362B8
:109440001920104CA36A590503D5144815F0CCFA1D
:109450001A20A36ADA050DD5114815F0C5FA1B20AC
:10946000084A936A43F47F43936200232B7070BDD4
:109470001620CBE7A36A9B04F2D50A4815F0B4FA8C
:109480001C20EDE700ED00E0D1270400E8270400F0
:1094900069260400FA270400142804002A2804007E
:1094A00046280400CD2604002DE9F0415D4B5F689D
:1094B0008AB00446C7F30806002585F31188BFF378
:1094C0006F8F02F07F43B3F17F4F06D102F00C03A0
:1094D000082B13D1544815F087FA00252C464FF07D
:1094E0000008F31E8DF80780092B00F28C80DFE85E
:1094F00003F00A80847C8A8A8A8A8A8810074CBF93
:109500000C460125EBE74948464E15F06DFA8DF8FB
:109510000780F36A9A0704D5454815F065FA0023D9
:109520002AE0F36A002B01DA4248F6E7F36A5B00AF
:10953000F5D5414815F058FA7369A26943F4807370
:109540007361BFF34F8FBFF36F8F32F8023C7269C4
:1095500022F480727261BFF34F8FBFF36F8F03F4F9
:109560007F42B2F55F4F27D1DBB2022B24D12168B5
:10957000324815F039FA23689DF80720CAB902AEBF
:1095800004F1200720686168324603C20834BC42F7
:109590001646F7D1099A002D41D0C2F3080121B92E
:1095A0006FEA52226FEA4222099202A91846FFF797
:1095B00007FE0AB0BDE8F0811A4B9A6AD2B232B106
:1095C0000DF1070201212046FFF74EFE0FE09A6AD7
:1095D00012F47F4F05D00DF107010120FFF708FFBE
:1095E00005E09B6AB3F5803F99D3FFF7B5FE0346CC
:1095F000C2E70DF107020021E5E70DF107010020A8
:10960000ECE70F4889E70F4B0F49104817F4F87F34
:10961000A6F1100208BF194615F0E6F97FE76FF3CF
:109620000802C1E700ED00E08D280400B92804001D
:10963000D1280400F3280400022904002229040090
:109640003F2904005F2804007428040064290400F2
:10965000044B5A6942F010025A615A6922F008021A
:109660005A61704700ED00E0EFF30880EFF30981E5
:1096700001B57246FFF718FF01BD00BF0B4880F32C
:10968000088812F033FC202080F3118808484FF43A
:109690000461401880F30988EFF314800221084325
:1096A00080F31488BFF36F8F00F06CF8804D0020BA
:1096B000C03F00201EF0040F0CBFEFF30880EFF353
:1096C0000980816911F8021C0229FFD001B5724698
:1096D00015F0DDFA01BD00BF40B2002807DB044AE7
:1096E0004109012300F01F00834042F821307047F8
:1096F00000E100E040B200280CDB4309064900F01D
:109700001F0020330122824041F82320BFF34F8FF6
:10971000BFF36F8F704700BF00E100E0054B4209C7
:1097200000F01F0053F82220012303FA00F010403C
:10973000704700BF00E100E040B20028A8BF00F180
:10974000604001F10101B8BF064B4FEA4111ACBFC7
:1097500000F5614000F00F00C9B2B4BF195480F8A1
:109760000013704714ED00E0044B054A23F07F031B
:109770009360BFF34F8FBFF36F8F7047006002009D
:1097800000ED00E008B5FFF7EFFF0B4AD2F8883094
:1097900023F47003C2F88830EFF3148323F004033A
:1097A00083F31488BFF36F8FFFF7E2FCFFF7ECFC45
:1097B00000F0B2F813F09CF800ED00E042F8203C15
:1097C000009B42F81C3C0A49019B42F8183C029B52
:1097D00042F8143C21F001014FF0807342F8043C40
:1097E00042F8081C0023203A0265C0F88030704718
:1097F0003D910200094A0346906870B113F1160FBB
:10980000C06E05D0A0F14002934205D3834203D23B
:10981000814228BF0020704700207047942E00200E
:1098200008B515460B4A0C4B9060C26F1A600E4685
:1098300000F0A2F82C4686F309880020034B9847D5
:109840002046002100220023014C2047B3EC0300F6
:109850003D910200942E002070110020014B102237
:109860001A61704700ED00E0054B5A699B689A4207
:109870001FBF044A536843F080535360704700BFD2
:10988000942E002000ED00E0084B9B6883420BD132
:10989000EFF3058343B1064B5A6842F080525A6099
:1098A0005A6A22F400425A6217F023BE942E002016
:1098B00000ED00E015498A684FF030001044EFF3E6
:1098C000098C80E8F01F202080F31288BFF36F8F8F
:1098D0000F4F4FF000664A698A603E60D06F0D4CB2
:1098E0002060D2F880000023C2F8803080F3118815
:1098F00004B5104600F040F8BDE8044002F1300025
:1099000090E8F01F8CF3098870470000942E002027
:1099100004ED00E070110020044800232021C2184B
:109920000133302B82F80013F9D1704700E100E0D9
:1099300008B5EFF30583064A103B02EBC30152F86A
:10994000330049688847BDE80840FFF78DBF00BF76
:10995000701D04000148006870470000701100206D
:10996000024B034A0348012100F076B800000420AE
:1099700000000020801F0400C36E054A403B1360B6
:10998000044B4021C2E901131046012100F06EB8DA
:109990007411002000000B15084AC2F898000B68EB
:1099A00023F01F03034343F01003C2F89C308B687D
:1099B00043F00103C2F8A030704700BF00ED00E0A3
:1099C0002DE9F043DFF8608085B00E461F4604465F
:1099D0004FF00009B14523DA6068D8B13FB1411EAC
:1099E00008421BD11F2819D92368194216D12368B0
:1099F000019315F081F9A36803430393D8F89050BD
:109A0000C5F30725D0B2013DA84207D801A9FFF749
:109A1000C3FF421C09F101090C34DBE76FF01502AA
:109A2000104605B0BDE8F08300ED00E0044B0522D0
:109A3000C3F89420BFF34F8FBFF36F8F704700BF01
:109A400000ED00E0BFF35F8F024B0022C3F89420CB
:109A5000704700BF00ED00E010B5034C01232278F1
:109A6000FFF7AEFF207010BDD22E002008B50B4AC4
:109A700000231278FFF7A4FF10F1160F07D0084A51
:109A80000021D2F89030C3F30723984200DB08BDD1
:109A9000C2F89800C2F8A0100130F2E7D22E0020E0
:109AA00000ED00E02DE9F0435A4B5B4DD3F89030C8
:109AB0002C68C3F307239C4285B000F2A780FFF710
:109AC000C1FF00200C2684421AD1544EDFF8449185
:109AD00034706846FFF7E6FA514C524D8046002735
:109AE000B84514D133784B490020D1F89020C2F307
:109AF00007229342C0F28480FFF798FF002045E0E0
:109B0000696806FB0011FFF747FF0130DBE70098AB
:109B100000EB07114FEA071CCB682340B3F5000F99
:109B20004DD00AD8B3F5001F33D0B3F5800F3BD02A
:109B3000B3F5801F13D00137D2E7B3F1007F47D0D0
:109B4000B3F1805F4DD0B3F1807FF4D150F80C3089
:109B500088684A6815F0D0F840F0887009E050F83D
:109B60000C3088684A6815F0C7F840F0885040F417
:109B70003020CDE901230390D9F890303078C3F339
:109B80000723013B984234D96FF0150005B0BDE8BA
:109B9000F08350F80C3088684A6815F0ADF840F052
:109BA000885040F40020E4E750F80C3088684A6898
:109BB00015F0A2F840F0C06040F40030D9E750F84A
:109BC0000C3088684A6815F097F840F08270D0E74A
:109BD00050F80C3088684A6815F08EF840F4802000
:109BE000C7E750F80C3088684A6815F085F82843B4
:109BF000BFE701A9FFF7D0FE3378013333709AE74E
:109C0000C1F89830C1F8A00001336EE74FF0FF3083
:109C1000BCE700BF00ED00E08C1F0400D22E002046
:109C20000000F0FF0000021108B50649064821F0C7
:109C30000701C1F1005202F5802214F092FE0020CB
:109C400008BD00BFEB6200208011002070B54169A3
:109C5000867A0B4D044659B1437ADB0706D42C2390
:109C600003FB06535B6A1B689B689847002363618C
:109C70002C20214600FB0650BDE8704017F02BBB9E
:109C8000B4060020024B2C2202FB0030704700BFBC
:109C9000B4060020827A064B2C2101FB02339A6A1B
:109CA0001B7F1B33801A23F00303B0FBF3F07047D4
:109CB000B406002038B5074B827A2C2404FB02330B
:109CC0005B6AD3E901240C601568FFF7E3FF04FB2E
:109CD000005038BDB40600202DE9F04385B005469C
:109CE0006846039190461C4617F03AFDDDE900678F
:109CF000EFF31189202383F31288BFF36F8F6B8BEF
:109D0000002B41D02A8B9A4225D9002200232846D5
:109D100013F052F80446F0B189F31188BFF36F8F46
:109D2000039B002B41D032463B46684617F03DFD71
:109D3000A27A264B2C2101FB023320465B6A1B686A
:109D400003A91D68DDE90023A847606170BB2046B8
:109D5000FFF77CFF24E0698B4B1E6B8389F311882E
:109D6000BFF36F8F2B7F2A8BAC6A1B3323F0030367
:109D7000521A02FB0344154B154AEB1A9B1053432E
:109D8000A3722B7FE372CBE789F31188BFF36F8F48
:109D900023464246284613F00FF804460028BFD158
:109DA0000024204605B0BDE8F0836361012300254F
:109DB0002381039B6382E27A6560294604F11800DF
:109DC00017F0CEFE63692582E360EAE7B40600205F
:109DD000A38B2EBAF8B5124D00242C2600B9F8BD7D
:109DE00000F108024768BFF35B8F52E8003F591E3D
:109DF00042E8001CBCF1000FF7D1BFF35B8FDBB270
:109E0000012BECD1837AC46006FB035344601B6AC8
:109E100013B198473846E1E7FFF718FFFAE700BFAC
:109E2000B4060020024B0122C3F8402500207047F1
:109E300000E0014048B1054B054A1B68B3FBF2F353
:109E40005843044B43F00103184770473005002086
:109E500040420F00701F04002DE9F04190F82830B7
:109E600003F01F03012B04460F4600F128062FD0F4
:109E7000022B18D08BB394F82910204615F06FF8F8
:109E8000024678B3304615F054F91D4D002834D100
:109E900013693BB33A463146204698470346FFF7DD
:109EA00059FD2B5024E0818DC9B215F039FC0546CF
:109EB0000028E0D0304615F03CF902466868836817
:109EC000CAB99B6873B13A463146BDE8F0411847BC
:109ED000818DC9B215F00BFCE9E790F8291015F057
:109EE00042FCE4E7FFF736FD054B6FF085021A50A0
:109EF0000020BDE8F081DB68E4E7D368C9E700BF74
:109F00000C0000002DE9F04F0B7E33F0800893B079
:109F100004460E46154640F095847AB10846FFF790
:109F200059FF737EDA0703D49B0711D5337E7BB9C3
:109F3000204613B0BDE8F04F15F027B9497E8F07D2
:109F400000F1280908D5802B0CD13046FFF742FFDD
:109F5000404613B0BDE8F08F880700F03B84002B2B
:109F600040F03884CA0736D5338A082B0ED1F26800
:109F70001368A3625368C9F804303146002014F016
:109F8000E8FE054638B1FFF725FFE6E03046FFF76B
:109F900021FF0025E1E0484615F0CBF838B1E18D0E
:109FA00029B1204615F05DFD05460028F1D0FFF7E8
:109FB000D1FC94F82880B54F002318F0600FC351EE
:109FC000C8F3411309D0032B40F0C481FFF7C2FC52
:109FD0006FF085033AE03546E9E7484615F0A9F801
:109FE00094F82930002840F05381013B0A2BEDD82A
:109FF00001A252F823F000BF6FA10200CD9F020022
:10A0000003A20200CD9F020025A00200CD9F020006
:10A01000CD9F0200CD9F020095A00200CD9F0200BF
:10A02000F7A00200618D7F29D0D8A38D002BCDD160
:10A03000E38D002BCAD118F01F0FC7D194F8303030
:10A04000022B05D1FFF786FC4FF0FF333B5076E043
:10A05000A069036993F880301B0707D5C9B215F0D2
:10A06000CAF8804628B1002D6CD171E7012384F82D
:10A07000393094F83030012B0AD1638D43B984F81C
:10A080003030FFF767FC3B58002B00F0858056E02E
:10A090000123F4E7204614F0B1FE628DFF2A014649
:10A0A00094D8E38D002B91D194F82830D8068DD127
:10A0B00094F83030002BC5D02AB1D2B2204615F02A
:10A0C0003CFA0028BED0618D94F838308B42D8D04D
:10A0D000C9B2204615F038FA80460028C3D1628DF7
:10A0E000002A14BF0223012384F8303005212046C2
:10A0F00015F05DFDC5E708F01F08B8F1010F7FF40A
:10A1000065AFE38D002B7FF461AF628DFF2A3FF6D0
:10A110005DAFA18DFF293FF659AF94F83030022B87
:10A1200090D1D2B2C9B2204615F01EFC10F1020F38
:10A13000804640F01481FFF70DFC47F8008065B1C0
:10A140004FF000082846FFF745FEB8F1000F7FF4F6
:10A15000FFAEFFF7FFFB3B58F3B1484614F0E9FFB1
:10A160000346A069002B00F06183802166E3E38D44
:10A17000002B7FF42BAF94F83030002B3FF462AF0C
:10A18000012BA18D02D100297FF45CAF18F01F08CC
:10A1900010D0B8F1020F1AD0737EE28DD90700F10A
:10A1A000DA82002A40F0ED82204614F0D8FF002821
:10A1B000D3D1BDE600297FF445AF638D012BEBD1F0
:10A1C00094F86C3061F3C30384F86C30E4E7B4F8BE
:10A1D0002AA0BAF1000FDFD15FFA81F8414620468C
:10A1E00015F0B1FC0346FFF7B5FB3B50013302D13C
:10A1F0004FF0FF3837E752464146204614F09FFFA4
:10A200003FE7E38D002B7FF4E1AE628DA38D022A40
:10A210005FFA83FA11D108F01F085AEA08087FF4A0
:10A22000D5AEA0690122190A14F0C2FF00287FF4FC
:10A23000CDAE012384F8393023E794F8301000299B
:10A240003FF400AF012902D1002B7FF4FBAE18F0E0
:10A250001F0811D0B8F1020F9ED1002A9CD151469F
:10A26000204615F05BFC0346FFF774FB3B500133BF
:10A27000BED001225146C0E7002B7FF4E3AE012A95
:10A280008AD194F86C3043F008039DE70C0000007D
:10A290000A2B3FF69BAE01A252F823F0C9A202009E
:10A2A000CD9F0200CD9F0200CD9F0200CD9F0200F6
:10A2B000CD9F020043A30200CD9F0200D3A602005F
:10A2C000CD9F0200FDA60200E38D022B7FF47EAE3F
:10A2D00094F83030002B3FF4B5AE012BA18D02D1A4
:10A2E00000297FF4AFAE18F01F0811D0B8F1020FAB
:10A2F0001CD04FF0000805F10C0A504614F011FF75
:10A30000E38D984218D2FFF725FB6FF00B039DE613
:10A3100000297FF497AE94F86C304FEA930808F068
:10A320000208C3F3001348EA0308E4E7C9B2204671
:10A3300015F018FC8046DEE74146504614F02CFD2F
:10A340009FE6B4F82AA018F01F0F4FEA1A235FFA0D
:10A350008AFA09D029462046FFF77EFD8046B8F1EB
:10A36000000F7FF480AE8CE6013B0E2B3FF62EAE45
:10A3700001A252F823F000BFB5A30200F5A302002A
:10A380009FA40200CD9F0200CD9F020097A402006F
:10A3900097A40200CD9F0200CD9F0200CD9F020036
:10A3A000CD9F0200CD9F0200CD9F0200CD9F0200F5
:10A3B000E1A5020005F10C08404614F0B2FE834608
:10A3C0002046B4F82EA014F019FD20B101287FF426
:10A3D000FDAD616F00E0216F002900F037820A783F
:10A3E000DA4528BFDA46524528BF5246404614F0A7
:10A3F000C2FC46E6204614F001FD0AF1010201907C
:10A400000146D2B2204615F072F8804600283FF48B
:10A41000DDAD05F10C0AD0F804B0504614F081FE11
:10A420009BF80020824228BF02465946504614F04D
:10A43000A2FCD8F80CB0BBF1000F09D1298AE38D3A
:10A4400099427FF61EAEC91A504614F0AFFC18E6CA
:10A45000DBF8040083681B6B13B9DBF800B0EAE794
:10A46000019998470028F8D0A0F1040858F8041F73
:10A470000029F2D00A78002AEFD05046CDE9022117
:10A4800014F04FFE029A0399904238BF82B25046B0
:10A4900014F071FCEAE7204614F0B0FC96E5524651
:10A4A0000321204614F09BFD824600283FF48EAD28
:10A4B00014F032FEB4F82EB09AF81530C8B99AF8F4
:10A4C00014808DF828808DF82930DAF8103005F1E5
:10A4D0000C0A1B88ADF82A30504614F022FEC34502
:10A4E0005A4628BF4246824228BF02460AA9504621
:10A4F0007DE7DAF808208DF81530B24B1340B24AE8
:10A500004FF0000893428DF8148058D1102106A80E
:10A5100016F064F9021EFFF659AD0AA9102ADFF8F9
:10A52000ACE20DF1180C084628BF1022424501F19B
:10A53000020133D8920002325FFA82F88DF814805B
:10A54000034605F10C0A5046029314F0EAFDD84583
:10A55000424628BF5A46904228BF104602288346EA
:10A56000804628BF4FF0020B5A46A8EB0B0805A9FE
:10A57000504614F000FC4FEA58030193029B9B469F
:10A5800003EB5802934521D118F0010F3FF479AD48
:10A59000019A995C504614F0F7FB72E51CF8013BF8
:10A5A0004FEA131A03F00F031EF80AA01EF8033037
:10A5B00001F802AC01F8013C08F10108B6E79AF88D
:10A5C0001480DAF810308DF81480BAE71BF8011BFC
:10A5D0005046CDE9023214F0DFFBDDE90232D1E76B
:10A5E000204614F00BFC38B101282CD0FFF7B2F94B
:10A5F0006FF085033B5044E5236F002B00F026816C
:10A600005B88B3F5007FF1D9714B0A9300238DF875
:10A610002C30E36C04F14C0B9B4508BF0023BDF8C4
:10A620002A10A3B15A7D0F2A08D11A7D0A44ADF829
:10A630002A209DF82C2001328DF82C20226D934287
:10A6400003D01B68EBE7636FD7E7BDF82A100191D1
:10A6500005F10C0A504614F064FDB4F82E800199FF
:10A66000884528BF8846804528BF80464246052A3F
:10A6700028BF05220AA95046019214F07CFB019ADA
:10A68000B8EB02083FF4FDACE36C5B453FF4F9AC7A
:10A69000002B3FF4F6AC5A7D0F2A14D11A7D1969AC
:10A6A0000193424528BF4246504614F064FB019B8B
:10A6B0001A7D424594BFA8EB0208A8EB0808B8F140
:10A6C000000F3FF4DEAC226D93423FF4DAAC1B681E
:10A6D000DEE794F83030002B3FF4B4ACE38D012B6F
:10A6E0007FF474AC05F10C08404614F01AFD002804
:10A6F0003FF409AE94F8381040464CE708F01F08C4
:10A70000B8F1010F7FF49EAC204614F004FF00283E
:10A710003FF498ACB4F82CA0BAF1FF0F3FF656AC5A
:10A7200043681B795345FFF451AC5FFA8AF30F2B52
:10A730003FF64CACE38D012B7FF448AC05F10C08DF
:10A74000404614F0EEFC00283FF4DDAD04EB0A03B4
:10A7500093F83A10D0E7484614F0EBFC0146002885
:10A7600077D1002A3FF420ADA06915F014FE014610
:10A7700000283FF40EAC204613B0BDE8F04F15F0B2
:10A7800075B9484614F0D5FC002865D12846FFF776
:10A7900021FB09E5A069036993F8801011F0040119
:10A7A0007FF4C6AB15F00BFE064600283FF4D5AC8F
:10A7B0000146204615F05AF900283FF4B9AB30465F
:10A7C000FFF7E1BB00FF020000030200A12A040022
:10A7D000050F05004A077FF5DCAB002B3FF4B5AB56
:10A7E0003046FFF7F7FA94F83930002B3FF4B0AB5E
:10A7F00094F82930052B05D1618DA069C9B214F0F8
:10A80000FAFC054694F82930032B09D1638D022BFD
:10A8100006D1A18DA0690022090A14F0C9FC0546E1
:10A82000002384F83930A846FFF792BBE38D002B54
:10A830003FF49BAC291E18BF0121C90115F0C2FCD1
:10A84000FFF776BB6FF00408FFF782BB6FF01508C7
:10A8500009E4002A3FF4A8AC2946204615F006F981
:10A86000002897D02846FFF78EBB00BF0B78062B39
:10A8700010B414D10369D3F89C20EFF31184202382
:10A8800083F31288BFF36F8F4B6800201860506A03
:10A8900058B9C2E9083384F31188BFF36F8F0448B5
:10A8A00010BC0022002316F037BC03605362F2E7AD
:10A8B000280600202DE9FF4120264FF0FF335E4897
:10A8C0004FF0FF3201A912F051F9039B1B69D3F835
:10A8D0009C40236A93B1EFF3118286F31288BFF391
:10A8E0006F8F216A29B1606A0B682362814208BFB9
:10A8F000636282F31188BFF36F8FC9B99DF804308A
:10A90000062BDAD0072BD8D801A252F823F000BFCB
:10A9100063A9020057A9020083A9020069A90200E5
:10A92000A7A902009DA90200BBA8020031AA02004B
:10A930000B7ED1F81E205D06204609D1FFF7E2FA12
:10A9400002460028C5D00721204615F030F9C0E79F
:10A9500014F0DDFEF4E700220121204615F027F96E
:10A96000ABE700221146F8E794F86C3043F004039B
:10A9700001A984F86C30204614F065FC0022032104
:10A98000EBE794F86C3023F0040301A984F86C30F1
:10A99000204614F058FC00220221DEE701A92046DF
:10A9A00014F051FC89E794F86C30A76923F0040394
:10A9B00084F86C30D7F808803B69BFF35B8FD3F81D
:10A9C000A030BFF35B8F9A072FD5D8F83C303846BC
:10A9D0009847D8F82430002138469847D8F84030B6
:10A9E000054638469847ADB92946204614F0ACFDD7
:10A9F000054678B9A06915F001FD831E58425841FB
:10AA000094F86C3084F8305023F0680343EA401324
:10AA100084F86C3000220421204615F0C8F8002D7F
:10AA20003FF44BAF2A46072197E74FF0FF35F1E798
:10AA3000029A062191E700BF2806002030B589B0B0
:10AA400000220023CDE9062300246FF00703CDE99F
:10AA50000334CDE901441A4B1A4900944FF4806243
:10AA6000194812F031FD1949174816F03FFD184BEF
:10AA700018498B4207D3184B184900208B4210D33A
:10AA8000002009B030BD03F11402BFF35B8F52E820
:10AA9000000F42E80045002DF9D1BFF35B8F18335A
:10AAA000E7E703F11402BFF35B8F52E8004F42E87F
:10AAB0000005002DF9D1BFF35B8F1833DEE700BF2F
:10AAC000B5A80200002F0020A0080020BA2404002E
:10AAD00088080020A0080020A0080020A00800206E
:10AAE00038B5024609490546806915F0EDFC044673
:10AAF00048B985F83800284614F0FCFB044610B12C
:10AB0000A86915F014FD204638BD00BF6DA80200ED
:10AB100070B5084C084E0546B44202D300242046C6
:10AB200070BD636828461968FBF704FB0028F6D05F
:10AB30001834F1E788080020A00800202DE9F0472C
:10AB4000064617461D46F9B16FF08500BDE8F0874F
:10AB5000D4F8048025B1A5F1040A5AF8041F41B9BC
:10AB6000D8F800103B460022304614F013FE30B1F6
:10AB7000ECE7D8F80000FBF7DDFA0028EDD1183437
:10AB80004C45E5D30020E1E7014CDFF80890F7E7FA
:10AB900088080020A008002070B50646EFF3118158
:10ABA000202383F31288BFF36F8F1B4D2A6881F334
:10ABB0001188BFF36F8F526892F86C20D20705D4CA
:10ABC000BDE870402122002312F096BBEFF3118202
:10ABD00083F31288BFF36F8F2C682CB169682368E8
:10ABE0002B608C4208BF6B6082F31188BFF36F8FBC
:10ABF00044B1606804F10801C369984707482146D9
:10AC000016F03AFA2B6833B130460022BDE87040A6
:10AC1000002312F039BB70BD8C110020F805002014
:10AC200030B585B0CDE90012054600221448002356
:10AC300003A911F001FF0246E8B9039BDDE9000119
:10AC40005D60083383E80300EFF31180202383F372
:10AC50001288BFF36F8F039B1A600A4A516861B96B
:10AC6000C2E9003380F31188BFF36F8F06480022DA
:10AC7000002312F009FB05B030BD0B605360F1E713
:10AC8000F80500208C1100200000002007B50B788B
:10AC900003F06003202B09D0FEF75CFE0E4B6FF033
:10ACA00085021A50002003B05DF804FBCB880BB17D
:10ACB000002AF7D0138A0193D3680093002200235F
:10ACC000012000F06FF9014618B1044816F0F0FABF
:10ACD000E8E76FF00B00E6E70C0000007C060020C0
:10ACE00010B508484FF0FF324FF0FF3312F064F810
:10ACF000044600F091F90028F3D02046FFF76AF8E7
:10AD0000EFE700BF7C060020F0B5194889B000F0DD
:10AD10008FF9044640BB002600276FF00705CDE9F8
:10AD20000205CDE900000490CDE90667114B1249F8
:10AD300012484FF4806212F0C7FB11490F4816F019
:10AD4000D5FB104B0093CDE90667CDE90354CDE95F
:10AD500001440D4B0D490E484FF4007212F0B4FB44
:10AD60000C490B4816F0C2FB204609B0F0BD00BFED
:10AD700094060020E1AC020080350020B0090020DC
:10AD800087290400EC0100209DAE02004033002022
:10AD9000280900209129040010B500220446002350
:10ADA000024813F0CBFF00B1047610BDB4060020BA
:10ADB000F7B504690B7E0746606890F821609E42F3
:10ADC0000D4655D1002A37D126680A8A46BB019222
:10ADD000CB6800934FF0FF324FF0FF33042000F0B8
:10ADE000E1F8206040B32B8A032B04D8268220464A
:10ADF00014F0F1FE06E0EB685B8804339BB223821B
:10AE0000002BF4D02168B9B10B8A228A013B9A4207
:10AE100012D1214816F04CFA0023236023820BE064
:10AE2000318A738A70695B1AF168091A5B1A934256
:10AE300018D2204614F0CFFE28462C34FEF7CAFF65
:10AE4000BFF35B8F54E8003F23F0020344E8003275
:10AE5000002AF7D1BFF35B8F384603B0BDE8F0405E
:10AE600014F0D8BEE96806F10C0013F084FFC9E7BE
:10AE7000827E9A4208D0C27C9A4205D0786803B09C
:10AE8000BDE8F04014F047BE04F1140011F0CAFF11
:10AE9000002003B0F0BD00BF7C060020F8B50646D8
:10AEA0004FF0FF324FF0FF33174811F085FF044693
:10AEB0000C3013F092FF022821D00428F0D137691A
:10AEC0007B68D87CFFF768FF0546A0B1E168228A5D
:10AED0000C3013F050FF2946304614F004FE38B908
:10AEE0004FF0FF324FF0FF3307F1140011F0D6FF9F
:10AEF0002846FEF76FFF2046FEF76CFFD0E7376964
:10AF00007B68987EDEE700BF9406002070B504469B
:10AF1000807AFEF7B7FE6169054649B1637ADB07BF
:10AF200004D4436A1B6820469B68984700236361EA
:10AF30002146284616F0CFF9034B1B681BB1BDE82C
:10AF400070402A20184770BD5412002008B5034BEA
:10AF5000186816F0ADF9002008BD00BF5812002097
:10AF6000811EC9B21E2938B5054612D80A4CCC40FC
:10AF700014F001040BD0094813F0E0FE044630B190
:10AF8000013D074BEDB20C30595D13F0FDFE20463C
:10AF900038BD0024FBE700BF410000403807002017
:10AFA000B22A04002DE9F0410128DDE906760546C4
:10AFB0000AD0042804D1154813F0C0FE044628B96D
:10AFC00000242046BDE8F0811148F5E7013D114B12
:10AFD000EDB200F10C08595D404613F0D5FE002F8C
:10AFE000EFD0002EEDD0228A638A61699B1AE26855
:10AFF000521A9B1A9E4203D92046FEF7EBFEDFE76A
:10B0000032463946404613F0B6FEDAE7E006002045
:10B010000C070020B22A0400038A014623B1034B27
:10B02000186883689B6818471220704794020020B4
:10B0300038B50C4B0C4C1860206815F07FFF58B1E8
:10B0400020680469256855B9084B236083681B682C
:10B05000984700B1256038BD6FF01200FBE76FF034
:10B060007700F8E758120020940200204DAF02004C
:10B0700070B54FF0FF320D464FF0FF33002106460A
:10B0800014F055FE044660B90A4A0B490B481A23CE
:10B0900013F0B7FC84F31188BFF36F8F03231846B6
:10B0A00002DF022104F10C0013F05FFE0670457010
:10B0B000204670BDA4290400DA290400DE2904001A
:10B0C00000F1070C2CF0030C10B4541E1860A4B24D
:10B0D000ACF80020023A93B201FB04F24FF0000CEE
:10B0E00040F802C074B103FB011403FB01F22044D9
:10B0F000121B4FF6FF7C013B9BB263458050A0EBD7
:10B100000100F8D110BC70470346006810B1026816
:10B110000AB91A60704700F1070C2CF0030CD11D1E
:10B12000BCF800C021F003010CF1FF3CA1F800C005
:10B13000EFE700BF0B687BB1073323F003031A88E6
:10B14000013292B20346D1F800C043F807CB23F096
:10B1500003031A80086070470122F3E702FB010035
:10B16000704700BF401A90FBF2F080B2704700BFFA
:10B17000531E11449BB242B1DB430138CA1811F887
:10B18000013D00F8013F9142F9D17047014402E0CE
:10B1900010F8013B1BB98842FAD10020704701200A
:10B1A000704700BF10600860704700BF0A68034620
:10B1B0000068904205BF00220A6000201A607047B4
:10B1C000D2F800C0CCF80000D2F800C0CCF80410CF
:10B1D00010607047884203D01AB14368136070470B
:10B1E000002070470B68834209D02AB1586810606C
:10B1F0001A680A6018467047002BF9D1FAE7002355
:10B20000F8E700BF2DE9F8430E4EDFF83C904FF011
:10B2100090080C2706F1200409EB08052A1D294691
:10B220002046083CFFF7BEFFB442A5F10C05F5D15E
:10B23000043F3B1DA8F13008A4F12006EAD1BDE887
:10B24000F88300BFB81200200413002010B4034696
:10B250008C469AB101EB4101144803EB4304090108
:10B2600001EB84010144487A0C7AA04204BF01300A
:10B27000087210BC614618460EF074BD01EB410225
:10B280000A4C120100EB400302EB830323449C7A37
:10B29000DA7AA24201D010BC704701329A72044B94
:10B2A00001225A5410BC0EF08DBD00BFE0120020E8
:10B2B0005C120020F8B506461C460D4602B3227803
:10B2C0006378D21A12F0030229D1294F71004FEA94
:10B2D000450C3144AC44890001EB0C1101330431BD
:10B2E000DBB27A18606823702146FFF769FF214BB3
:10B2F0000122294630465A550EF064FD0020F8BD63
:10B300000EF04AFD0028DAD0294630460EF036FD10
:10B31000637860B92278D21A12F00302D5D0012ADC
:10B3200003D00133DBB22370E1E71046F8BD05EB33
:10B33000450206EB46010E4F120102EB81023A4430
:10B340007100907AD27A90424FEA450C05D020786D
:10B35000C01A10F00302E2D1BBE72278D21A92079A
:10B3600002D00233DBB22370D4E902039847C5E769
:10B37000E01200205C1200202DE9F04FDFF8609110
:10B3800019F8003089B0002B59D0DFF858A1C0EB74
:10B3900000134FF0000B00EB40079B000324CDE9A6
:10B3A00004BB09F800B00AEB071703930294834625
:10B3B000B8460023B96A58F8240F079307AAFFF785
:10B3C00009FF044607AAB4B1079D2E786978761A5A
:10B3D00006F00306012E35D02B78591A01F003012F
:10B3E0000129DBB23DD1D7E90901FFF7F3FE04469D
:10B3F00007AA002CE8D197F82E3097F82F209A4210
:10B4000003D087F82F300123049397F82C3097F856
:10B410002D209A4203D087F82D3001230593029BFB
:10B420005D1EEBB2FF2B0293A7F10C07C0D104996C
:10B43000D846DDF814B011B1BBF1000F45D009B00A
:10B44000BDE8F08F01396970079BD3E9020290478C
:10B45000079D2A786978D3B2521A02F00302012AB2
:10B4600021D0B86A019300224146FFF7BBFE6C6011
:10B47000019B6A786B702B789B1A03F00303012BF6
:10B4800008D0D7E9090107AAFFF7A4FE012E044658
:10B4900098D10EE0039B6A701A1D2946204652443B
:10B4A000FFF78EFEEDE7D7E9090107AAFFF792FE45
:10B4B0000446029B8BB101235946584609F80B30CC
:10B4C0000EF080FC09B0BDE8F08F5A464146404678
:10B4D00009B0BDE8F04F0EF045BC002C8BD0EAE778
:10B4E0005C120020E01200204B1EDBB271B1411E45
:10B4F00000EB030C002011F8013F23B15A1E01306C
:10B500001340C0B2FAD16145F5D170470846704783
:10B510002DE9F04F064685B04FF0030B01270421BB
:10B5200030460BF0C1FE306800221E244FF0010CA3
:10B53000C30F924696460DE01C2D40F272814FF0EB
:10B54000010C192B1AD0BEF10C0F17D0013C1CD3E3
:10B550001A460B4620FA04F101F00101994238D055
:10B56000E5B2531C0E2DDBB240F263810029E3D01B
:10B570001C2D40F25681192B8C46E4D1631C07FA2E
:10B5800003F3002970D05B421840B54B434003934E
:10B5900003AC002214F8013B23B1591E01320B40C9
:10B5A000D2B2FAD104AB9C42F4D1012A07D983B2BA
:10B5B000B3EB104F5BD1C3B2B3EB106F57D10BF1AC
:10B5C000FF3B1BF0FF0BAAD16FF00D0005B0BDE8EB
:10B5D000F08FE5B20CF10108072D5FFA88F840F210
:10B5E0000981B8F1060F29D907FA04F1B3B320EAAB
:10B5F0000100002101320E2DD3B2A0D80EF1010EB0
:10B600005FFA8EFE9BE77146DDF804E001330E2DF4
:10B61000DBB240F2F081BEF10C0F00F0E281013CA0
:10B6200020FA04F111F0010153D0E5B24FF0020C01
:10B63000072DE04640F2D9811A468C46E1B9B8F1AF
:10B64000060F1ED01C2D40F28B81013C20FA04F124
:10B6500011F0010100F07A81C44681E7084301211D
:10B66000C8E701340123A340013B18438DE7306054
:10B67000002005B0BDE8F08FB8F1060F01D01C2DF9
:10B6800003D9013C1346C44662E732BB134601228C
:10B69000A24020EA0200724601330E2DDBB20BD924
:10B6A000BEF10C0FDDD0013C20FA04F111F00101D4
:10B6B0001ED01A468C4653E7964500F07881964690
:10B6C0000022013C20FA04F101F001018A4200F05D
:10B6D00065811A464FF0010C42E71C2D27D0CDF8AA
:10B6E00004E01346012B0FD0DDF804E0C44628E740
:10B6F000E5B2072D4FF0020C4FF001081AD9C446ED
:10B700001A464FF0020899E713464FF0010909FA6B
:10B7100004F2B1B3072D20EA020025D9012B00F075
:10B72000A9800E2D1AD9DDF804E000210BE713469D
:10B73000C44608E7052D40F2A380BCF1060F00F0D7
:10B740009D80002B40F0AE80012202FA04F1072D0B
:10B7500040EA010040F29F80714657E7019A964502
:10B760001FD0013C0021F3E60AF1FF3A4B455FFA96
:10B770008AFA1DD0F1460021019A4A4512D0CE46E0
:10B78000E4E6072D40EA020025D9012B3FF43BAF48
:10B790000E2D019A1AD90C2A16D0013C964649461C
:10B7A000D6E60021019A02F1010E5FFA8EFECAE68A
:10B7B00002230021019A72453FF420AF192B3FF478
:10B7C000DDAE4FF0010CC1E64946D7E696450FD0F5
:10B7D000013C4946BCE61A464B460AF1010A93422F
:10B7E0005FFA8AFAF14600F0AC8013460121C3E704
:10B7F0004946D7E7E1461346C446C846002900F04B
:10B80000B6800AF10102BCF1060FD2B200F2BE808E
:10B8100000F0D58033B3C1469246E0461A46CC4686
:10B8200004E01C2D4FF001083FF489AECDF804E090
:10B8300058E70EF101085FFA88F8072DCDF804806B
:10B8400005D9002914BF88464FF001084AE70029AE
:10B8500000F0B7800AF1010A5FFA8AFA884641E7E8
:10B86000D6BE898E0A46194613460122A24020EA16
:10B870000200C3E67246DDF804E00DE7013C67E62E
:10B88000BAF1000F1AD10121013301FA04F2DBB23F
:10B8900010438A46B2E60AF1010A13465FFA8AFAB1
:10B8A0001146ABE61C2D3FF45CAF012B4FF00001BD
:10B8B0007FF449AEC446CDF804E026E7052D26D036
:10B8C000F1461A46BAF1010F12D0042D03D0BAF195
:10B8D000020F00F08C80BCF1060F26D01BBB0123A9
:10B8E000A340CDF804E01843C446CE46002374E7D5
:10B8F0000AFA04F108430AF1010A9A425FFA8AFA45
:10B900001DD0C4461346CDF804E0012134E7BCF154
:10B91000060F3FF418AECDF804E01A46F146DDF804
:10B9200004E0002BDBD0012B01D0002109E603FA53
:10B9300004F1CDF804E0C446CE4608434DE7CDF807
:10B9400004E00132D3B2CE46012133E7E5B208F17B
:10B950000109072D5FFA89F9C44606D9C8466EE683
:10B9600061461346C4468846EBE61346CC46BCF116
:10B97000060F7FF6DFAE01210AF1010A013301FA59
:10B9800004F25FFA8AFADBB2104337E60122013390
:10B99000A240DBB220EA020000212FE6E5B2072D2B
:10B9A0004FF0020C4FF001083FF6A9AE26E70EF16A
:10B9B000010E5FFA8EFE00214FF0010CC3E59246A6
:10B9C000C4E5052D4FF001083FF68CAEBAF1000F2B
:10B9D00022D1134608FA04F2F14610434146C2460A
:10B9E000CAE601340123A340CDE5884606E70121DC
:10B9F000A14008437FE771454FF0010201D08E4618
:10BA00005FE696445FFA8EFEBEF10C0F11463FF4DE
:10BA1000B5AD013C94469BE5052D06D0F146E046C8
:10BA2000DDF804E04FF0010C4CE7E0464FF0010C6C
:10BA300074E700BF70B5057E0468FF2D2AD02A4642
:10BA40004FF0000C07E09E6814F80E30FF2B1546EF
:10BA5000B4441FD01A4602EB420391424FEA031E40
:10BA600004EB0313EFD18D4202D114F80E200276BD
:10BA700014F80E20986805EB45052D01FF2A625544
:10BA800006D002EB420204EB021293680344936077
:10BA9000604470BD002070BDA2EB010C1CF4000FCF
:10BAA00010B4836844690AD12CF07F4C6344A342EC
:10BAB0000DD8E41A00234461836010BC7047891AD2
:10BAC00021F07F418B4208D95B1AA342F1D91B1B9D
:10BAD00000244461836010BC70470C44E41AE9E719
